:020000040800F2
:100000000004002047010008170B0008FD09000844
:10001000130B0008C10500081D21000800000000A6
:10002000000000000000000000000000951600081D
:100030003106000800000000DD0B0008D51700089D
:1000400067010008670100086701000867010008F0
:1000500067010008670100086701000867010008E0
:1000600067010008670100086701000867010008D0
:1000700067010008670100086701000867010008C0
:1000800067010008670100086701000867010008B0
:100090001B210008670100086701000867010008CC
:1000A0006701000867010008670100086701000890
:1000B000291800082B1800086701000867010008CC
:1000C0006701000867010008670100086701000870
:1000D00067010008411D0008F91D0008B11E000855
:1000E0006701000867010008670100086701000850
:1000F0006701000867010008670100086701000840
:10010000670100086701000867010008670100082F
:10011000111B00087D1C000867010008670100082A
:100120006701000867010008670100082F06000842
:10013000DFF80CD000F01EF800480047BF3300087D
:1001400030E50020704708488047084981F3088857
:1001500007480047FEE7FEE7FEE7FEE7FEE7FEE7AB
:10016000FEE7FEE7FEE7FEE74501000830E5002078
:1001700031010008064C074D06E0E06840F001033D
:1001800094E8070098471034AC42F6D3FFF7D4FF49
:10019000083F0008283F00080020704738B54FF49A
:1001A0007A7484208DF8000000208DF801008420EE
:1001B0008DF8020003226946002001F0CDFE03E025
:1001C0000A2000F036FA641E0E48007810F0010F85
:1001D00001D1002CF4D10CB9002038BD09480078B9
:1001E00010F0010F0BD00848C078842807D10648CA
:1001F0000079772801D10020EFE70120EDE700200A
:10020000EBE7000028000020A610002038B54FF4CE
:100210007A7488208DF8000000208DF80100882075
:100220008DF8020003226946002001F095FE03E0EC
:100230000A2000F0FEF9641E0E48007810F0010F4D
:1002400001D1002CF4D10CB9002038BD0948007848
:1002500010F0010F0BD00848C078882807D1064855
:100260000079882801D10020EFE70120EDE7002088
:10027000EBE7000028000020A610002070B5012642
:100280000325002406E0FFF789FF012800D103E0E1
:10029000601CC4B2AC42F6DB00BFAC4200D1002609
:1002A000304670BD70B501260325002406E0FFF737
:1002B000ADFF012800D103E0601CC4B2AC42F6DB04
:1002C00000BFAC4200D10026304670BD70B501269B
:1002D0000325002406E000F021F8012800D103E006
:1002E000601CC4B2AC42F6DB00BFAC4200D10026B9
:1002F000304670BD70B501260325002406E000F0ED
:1003000045F8012800D103E0601CC4B2AC42F6DB22
:1003100000BFAC4200D10026304670BD38B54FF466
:100320007A7483208DF8000000208DF8010083206E
:100330008DF8020003226946002001F00DFE03E063
:100340000A2000F076F9641E0E48007810F0010FC4
:1003500001D1002CF4D10CB9002038BD0948007837
:1003600010F0010F0BD00848C078832807D1064849
:100370000079772801D10020EFE70120EDE7002088
:10038000EBE7000028000020A610002010B54FF475
:100390007A740C220021194800F05AF918B90C217E
:1003A000174800F001F90C21154801F0B7FC802036
:1003B000134908700F22002001F0CEFD03E00A204F
:1003C00000F037F9641E0F48007810F0010F01D1DA
:1003D000002CF4D10CB9002010BD0A48007810F0B0
:1003E000010F09D00848C078802805D10648007957
:1003F000772801D10120EFE70020EDE79A3D0008C2
:10040000A000002028000020A610002070B504469F
:100410000E460A253146204601F080FC81202070DE
:10042000F21C2146002001F097FD0CE0002000F0B6
:1004300029FB0A2000F0FDF8002000F0E1FA0A2074
:1004400000F0F7F86D1E0D48007810F0010F01D193
:10045000002DEBD10DB9002070BD0848007810F0D8
:10046000010F09D00648C078802805D104480079DA
:10047000772801D10120EFE70020EDE728000020D8
:10048000A610002038B500246946064800F0F8F8A8
:1004900020B9009800F008F8044600E00024204647
:1004A00038BD00004A3D00082DE9F04706464FF0F0
:1004B000010A03254FF00008C6F30F39C6F30B07F6
:1004C000B9F1000F1CD1002412E03A460021344853
:1004D00000F0BEF818B93946324800F065F83946E0
:1004E0003048FFF793FF012800D103E0601C84B27D
:1004F000AC42EADB00BFAC424FD10020BDE8F08740
:1005000023E000241AE04FF480524146244800F0D2
:100510009FF828B94FF48051224800F045F801E0D7
:1005200000BFFEE74FF480511E48FFF76FFF012820
:1005300002D108F5805803E0601C84B2AC42E2DBD3
:1005400000BFAC4201D10020D8E75FEA0900A9F161
:1005500001011FFA81F9D4D1002F1EDD002415E01E
:100560003A4641460E4800F073F820B939460D4826
:1005700000F01AF801E000BFFEE739460948FFF72E
:1005800045FF012800D103E0601C84B2AC42E7DBE8
:1005900000BFAC4201D10020B0E75046AEE70000FA
:1005A0004A3D0008A000002010B50246002002E0ED
:1005B00013781844521C0B00A1F10101F8D110BDB1
:1005C00000BFFEE710B502460B460024002102E002
:1005D000505C0444491C9942FAD3A0B210BD2DE9E5
:1005E000F04104460D460027B8460026294620461D
:1005F00000F00FF88046A81E205C0602681E205CF2
:1006000006431FFA88F0B04200D101273846BDE802
:10061000F08110B502460B460020002103E0545C37
:1006200020444C1CA1B29C1E8C42F8D810BD7047CF
:100630007047014606E04FF4FA5001E0421E90B2C6
:100640000028FBD10A00A1F1010399B2F3D1704750
:100650002DE9F04106460C461546FF27012130469C
:1006600002F092FF40B9204602F084FFA8B202F0E7
:1006700099FF074602F062FF3846BDE8F0810000AE
:1006800070B505460C46FF2602F0CAF8094900225B
:10069000086809A102F0C8F90121284602F074FF98
:1006A00028B902F0E3FF206002F048FF0026304640
:1006B00070BD00000C000020303A00002DE9F04130
:1006C0000026124D2C78E81EB0F8017039462846F5
:1006D000FFF785FF0646902C06DB9F2C04DC314695
:1006E000204600F03DF80EE0802C0CDB8F2C0ADC5D
:1006F0000748007840F00100054908700846007876
:1007000040EA46000870BDE8F0810000A910002012
:1007100028000020F8B505460E460EA0006800909F
:1007200000BFFFF7AFFE044600200B490870012C04
:1007300007D10A48B0F80120C11C012001F00CFCCF
:1007400004E004226946012001F006FC002CE8D0F8
:10075000F8BD00000102030428000020A6100020BC
:1007600070B504460D46A4F19000C6B2034850F897
:10077000262029462046904770BD0000783E00089C
:1007800070477047704700002DE9F04106460F465C
:100790000025DFF85880802002F096FF0446802272
:1007A0004146204600F0AAF9012F08D1A8F1030123
:1007B000B1F801200878214601F0CEFB11E0267047
:1007C000A81985B25520607005F1550085B2281230
:1007D000A070E5700549C91E08780422214601F081
:1007E000BBFB204602F062FFBDE8F081A9100020AB
:1007F00008B50121FC2000F003FA4FF47C50ADF85D
:10080000000003208DF8020010208DF803006946D7
:100810002D4800F061F84FF47C512B4800F0E7F8C8
:10082000B020ADF8000003208DF8020010208DF8F4
:1008300003006946254800F04FF8B021234800F036
:10084000D6F84020ADF8000003208DF802004820C3
:100850008DF8030069461D4800F03EF84FF4004053
:10086000ADF8000003208DF8020010208DF8030081
:100870006946174800F030F84FF40041144800F082
:10088000B4F84FF4F060ADF8000003208DF80200DA
:1008900010208DF8030069460E4800F01DF84FF453
:1008A000F0610C4800F0A1F84FF44040ADF80000B2
:1008B00003208DF8020048208DF8030069460548A2
:1008C00000F00AF808BD00000014014000080140D3
:1008D000001C0140001801402DE9F04102460025AE
:1008E0000026002000230024002791F803C00CF00C
:1008F0000F0591F803C01CF0100F03D091F802C04F
:100900004CEA0505B1F800C01CF0FF0F31D01468A7
:1009100000202BE04FF0010C0CFA00F3B1F800C0FE
:100920000CEA03069E4220D183004FF00F0C0CFA14
:1009300003F7BC4305FA03FC4CEA040491F803C036
:10094000BCF1280F06D14FF0010C0CFA00FCC2F8E4
:1009500014C00AE091F803C0BCF1480F05D14FF074
:10096000010C0CFA00FCC2F810C0401C0828D1D3BE
:100970001460B1F800C0BCF1FF0F34DD54680020F2
:100980002EE000F1080C4FF0010808FA0CF3B1F862
:1009900000C00CEA03069E4221D183004FF00F0CE9
:1009A0000CFA03F7BC4305FA03FC4CEA040491F883
:1009B00003C0BCF1280F05D100F1080C08FA0CF8AF
:1009C000C2F8148091F803C0BCF1480F07D100F1C0
:1009D000080C4FF0010808FA0CF8C2F81080401C0F
:1009E0000828CED35460BDE8F081416170470161B1
:1009F00070470AB1016100E04161704700BFFEE746
:100A000010B50446052C37D2DFE804F003091017AF
:100A10001E00002280211A48FFF7EBFF2DE0002284
:100A20004FF480711648FFF7E4FF26E000224FF4F0
:100A300000711348FFF7DDFF1FE000224FF48061D3
:100A40000F48FFF7D6FF18E0002280210C48FFF77F
:100A5000D0FF00224FF480710948FFF7CAFF00223F
:100A60004FF400710648FFF7C4FF00224FF4806185
:100A70000348FFF7BEFF00E000BF00BF10BD00004D
:100A80000018014010B50446052C31D2DFE804F00F
:100A900003090F151B00012280211748FFF7A9FF4A
:100AA00027E0012211021448FFF7A3FF21E00122F1
:100AB00051021148FFF79DFF1BE0012291020E48F1
:100AC000FFF797FF15E0012280210B48FFF791FF08
:100AD000012211020848FFF78CFF0122510206484B
:100AE000FFF787FF012291020348FFF782FF00E032
:100AF00000BF00BF10BD00000018014010B503E0AA
:100B00000B780370401C491C1300A2F10102F7D1BD
:100B100010BD00BFFEE7704710B500214FF0006028
:100B200000F052F84FF4E06000F044F810BD00000F
:100B300070B5002100230F22C4784CB31A4C2468EE
:100B400004F4E064C4F5E0644FEA1421C1F1040345
:100B500022FA01F2447804FA03F1847804EA0204E8
:100B600044EA01014FEA0111104C0678A1550478BE
:100B700004F01F054FF0010404FA05F405784FEA6C
:100B800065154FF0E02606EB8505C5F8004109E044
:100B9000047804F01F050124AC40054D0678761159
:100BA00045F8264070BD00000CED00E000E400E0D8
:100BB00080E100E002490143024A116070470000F1
:100BC0000000FA050CED00E0024A0A400243024B25
:100BD0001A60704780FFFF1F08ED00E070470000BB
:100BE00029B1064AD2690243044BDA6104E0034AA0
:100BF000D2698243014BDA61704700000010024065
:100C000029B1064A92690243044B9A6104E0034AFF
:100C100092698243014B9A617047000000100240C4
:100C200030B500210022002400232D4D6D6805F011
:100C30000C0121B1042905D0082923D105E0294D53
:100C4000056022E0274D05601FE0254D6D6805F425
:100C50007012022505EB9242214D6D6805F4803437
:100C60001CB9214D554305600BE01D4D6D6815F411
:100C7000003F03D01C4D5543056002E0194D55431C
:100C8000056002E0174D056000BF00BF144D6D68A0
:100C900005F0F0010909154D6B5C0568DD40456004
:100CA0000F4D6D6805F4E061090A104D6B5C4568F5
:100CB000DD4085600A4D6D6805F46051C90A0B4D31
:100CC0006B5C4568DD40C560054D6D6805F44041CD
:100CD000890B074D6B5CC568B5FBF3F5056130BD4D
:100CE0000010024000127A0000093D002900002097
:100CF0003900002070B506460C460025A11E30467E
:100D0000FFF760FC05462812A11E7054601E355482
:100D100070BD00007FB504460025FF264FF48051CA
:100D20003E48FFF762FEFF2200210A2000F06CFB24
:100D3000002000F0C1F998B9FE2000F0BDF940B9DB
:100D400000BF04E000F008FB0DF805006D1C102D3D
:100D5000F8D3FF2000F0C8FBFF2000F0C5FB002601
:100D60004FF480512D48FFF742FEFF2000F0BCFBFE
:100D70009DF8000020709DF80100000260806088EE
:100D80009DF80210084360809DF803000006606033
:100D900060689DF8041040EA0140606060689DF85A
:100DA000051040EA0120606060689DF80610084365
:100DB00060609DF8070020729DF8080060729DF841
:100DC00009000006E060E0689DF80A1040EA014072
:100DD000E060E0689DF80B1040EA0120E060E06808
:100DE0009DF80C100843E060207C9DF80D1040EA4F
:100DF000111020749DF80D000007000D6082608ABC
:100E00009DF80E10084360829DF80F004008207581
:100E100001206075304604B070BD0000000C014038
:100E20007FB504460025FF264FF480517E48FFF72A
:100E3000DCFDFF220021092000F0E6FA002000F08E
:100E40003BF998B9FE2000F037F940B900BF04E043
:100E500000F082FA0DF805006D1C102DF8D3FF206C
:100E600000F042FBFF2000F03FFB00264FF48051D2
:100E70006D48FFF7BCFDFF2000F036FB9DF8000039
:100E8000800920709DF80000C0F3830060709DF819
:100E9000000000F00300A0709DF80100E0709DF8D4
:100EA000020020719DF8030060719DF804000001AC
:100EB000E080E0889DF8051040EA1110E0809DF880
:100EC000050000F00F0020729DF80600C009607256
:100ED0009DF80600C0F38010A0729DF80600C0F3D4
:100EE0004010E0729DF80600C0F30010207300204F
:100EF00060739DF806008007000D206120699DF851
:100F0000071040EA8100206120699DF8081040EA3E
:100F1000911020619DF80800C0F3C20020759DF873
:100F2000080000F0070060759DF809004009A075F1
:100F30009DF80900C0F38200E0759DF80900800764
:100F4000400F2076207E9DF80A1040EAD1102076CE
:100F50009DF80A00C0F3801060769DF80A008006B4
:100F6000400EA076A07E9DF80B1040EAD110A0762E
:100F70009DF80B0000F07F00E0769DF80C00C009A2
:100F800020779DF80C00C0F3411060779DF80C00AD
:100F9000C0F38200A0779DF80C008007000FE07777
:100FA000E07F9DF80D1040EA9110E0779DF80D006C
:100FB000C0F3401084F82000002084F821009DF840
:100FC0000D0000F0010084F822009DF80E00C00919
:100FD00084F823009DF80E00C0F3801084F82400EC
:100FE0009DF80E00C0F3401084F825009DF80E0017
:100FF000C0F3001084F826009DF80E00C0F38100B5
:1010000084F827009DF80E0000F0030084F8280003
:101010009DF80F00400884F82900012084F82A0078
:10102000304604B070BD0000000C014070B50446AD
:10103000FF252046FFF7F4FE054604F12C00FFF7DC
:1010400069FE05462069401C6064217E606C891C35
:1010500001228A4050436064217A01208840A064C4
:10106000D4E9110148436064284670BD70B500257D
:1010700018E000F071F9044604F01F04052C04D0B8
:101080000B2C04D00D2C06D103E0052605E00B2027
:1010900070BD0D20FCE7FF2600BF00BF052E00D16C
:1010A00002E06D1C402DE4D900BF00BF00F054F9F0
:1010B0000028FBD02046EBE770B5064640F6FF74EB
:1010C00000BF00F049F90546641EB54201D0002C6E
:1010D000F7D10CB9FF2070BD0020FCE700B593B03C
:1010E0006846FFF7A3FF1198400A13B000BD000047
:1010F00038B54FF480515848FFF777FC952200210E
:10110000084600F081F90120FFF7D6FF08B1FF2063
:1011100038BD00BF4FF480514F48FFF768FCFF20F7
:1011200000F0E2F94FF480514B48FFF75EFC872254
:101130004FF4D571082000F067F90120FFF7BCFFDC
:101140000028E7D1002406E0FF2000F0CDF90DF8DB
:101150000400601CC4B2042CF6DB9DF802000128D8
:101160006DD19DF80300AA2869D100BF4FF48051CA
:101170003948FFF73CFCFF2000F0B6F94FF48051EE
:101180003548FFF732FC00BF00F061F90028FBD1C1
:1011900001220021372000F037F900BF0120FFF7BE
:1011A0008BFF0028FAD14FF480512B48FFF71FFC2A
:1011B000FF2000F099F94FF480512748FFF715FC04
:1011C00000BF00F044F90028FBD10122910729203B
:1011D00000F01AF90020FFF76FFF0028C6D14FF486
:1011E00080511D48FFF703FCFF2000F07DF94FF40C
:1011F00080511948FFF7F9FB00BF00F028F90028DB
:10120000FBD1012200213A2000F0FEF800BF0020AF
:10121000FFF752FF0028FAD1002406E0FF2000F07B
:1012200063F90DF80400601CC4B2042CF6DB9DF8D1
:10123000000010F0400F01D0062500E004254FF417
:1012400080510548FFF7D3FBFF2000F04DF900F077
:10125000D1F800205CE70000000C014010B500242C
:1012600000F012F84FF480510648FFF7C0FB00BFB2
:1012700003E0FF2000F038F9641C092CF9D9FFF7CE
:1012800037FF10BD000C014008B501210820FFF711
:10129000B7FC01218803FFF7A3FC4FF46040ADF8D1
:1012A000000018208DF8030003208DF80200694625
:1012B0000C48FFF711FB4FF48050ADF800001020F0
:1012C0008DF8030069460748FFF706FB4FF480518D
:1012D0000448FFF78CFB00F092F80121024800F06F
:1012E00085F908BD000C0140003800402DE9F041AF
:1012F00004460F46154600264FF0FF084FF4805174
:101300001448FFF772FBFF223946112000F07CF8E9
:101310000020FFF7D1FE90B9FE20FFF7CDFE70B997
:1013200000BF04E000F018F82070641C761CAE4288
:10133000F8D300F011F800F00FF84FF000084FF468
:1013400080510448FFF753FBFF2000F0CDF84046E2
:10135000BDE8F081000C014010B5FF2000F052F90B
:1013600010BD00002DE9F04704460D4616461F4605
:101370004FF00008C1464FF0FF0A4FF480511C485F
:10138000FFF733FB26E005EB0901FF22112000F0F7
:101390003BF80020FFF790FE10B1FF20BDE8F0877A
:1013A000FE20FFF789FE98B94FF0000805E0FFF72F
:1013B000D3FF2070641C08F10108B045F7D309F58C
:1013C0000079FFF7C9FFFFF7C7FF4FF0000A01E000
:1013D0004FF0FF0A3800A7F10107D4D14FF4805134
:1013E0000348FFF704FBFF2000F07EF85046D5E7E6
:1013F000000C014010B5002000F0CAF810BD10B577
:10140000382000F0C5F810BD2DE9FC4106460C4619
:101410001746002546F040008DF80000200E8DF89C
:101420000100200C8DF80200200A8DF80300E0B2C4
:101430008DF804008DF8057000BF04E01DF805006C
:1014400000F052F86D1C062DF8D3BDE8FC8110B5F4
:10145000002400BFFF2000F047F8FF2801D1002042
:1014600010BD641C6FF07F408442F3D30120F7E786
:101470002DE9F04104460F46154600264FF0FF08BF
:101480004FF480511748FFF7B0FAFF223946182071
:10149000FFF7BAFF0020FFF70FFEC0B9FF2000F0F2
:1014A00023F8FE2000F020F800BF04E0207800F0D0
:1014B0001BF8641C761CAE42F8D3FFF74DFFFFF714
:1014C0004BFFFFF7D3FD052801D14FF000084FF483
:1014D00080510448FFF78BFAFF2000F005F84046E2
:1014E000BDE8F081000C014010B50446204600F034
:1014F00089F810BD2DE9F04704460D4616461F46F3
:101500004FF00008C1464FF0FF0A4FF480511F48CA
:10151000FFF76BFA2CE005EB0901FF221820FFF71B
:1015200073FF0020FFF7C8FD10B1FF20BDE8F08772
:10153000FF20FFF7D9FFFE20FFF7D6FF4FF000088E
:1015400005E02078FFF7D0FF641C08F10108B045E2
:10155000F7D309F50079FFF7FFFEFFF7FDFEFFF770
:1015600085FD052802D14FF0000A01E04FF0FF0A87
:101570003800A7F10107CED14FF480510348FFF79F
:1015800036FAFF20FFF7B0FF5046CFE7000C0140CE
:1015900010B586B004460021134800F027F800205B
:1015A000ADF804004FF48270ADF806000020ADF8ED
:1015B0000800ADF80A00ADF80C004FF40070ADF86B
:1015C0000E00ADF810400020ADF812000720ADF875
:1015D000140001A9044800F03FF80121024800F07E
:1015E00005F806B010BD00000038004021B10288A7
:1015F00042F04002028004E002884FF6BF731A40B6
:101600000280704710B5044600BF02210A4800F06E
:1016100015F80028F9D02146074800F01BF800BF54
:101620000121054800F00AF80028F9D0024800F02E
:101630000EF8C0B210BD0000003800400246002085
:1016400013890B4201D0012000E0002070470146C1
:10165000888970478181704710B50022028802F4A2
:1016600041520B884C8823438C882343CC882343E6
:101670000C8923434C8923438C892343CC892343FE
:101680001A430280838B4FF2FF74234083830B8ABB
:10169000038210BD704710B500F002F810BD0000C5
:1016A00000210020304A126842F480322E4B1A602A
:1016B00000BF2D4A126802F40030491C10B9B1F580
:1016C000A06FF6D1284A126812F4003F01D0012021
:1016D00000E00020012843D1244A126842F01002A1
:1016E000224B1A601A46126822F003021A601A4648
:1016F000126842F002021A601B4A52681A4B5A6082
:101700001A4652685A601A46526842F480625A6019
:101710001A46526822F47C125A601A46526842F401
:10172000E8125A601A46126842F080721A6000BFCE
:101730000D4A126812F0007FFAD00B4A526822F06C
:101740000302094B5A601A46526842F002025A607C
:1017500000BF054A526802F00C02082AF9D101E0E4
:1017600000BFFEE77047000000100240002002406A
:1017700010B500F031F8FFF7CFF9FFF739F84FF463
:10178000E13000F053F84FF4E13000F0ADF84FF4E1
:10179000E13000F001F94FF4E13000F05FF94FF46F
:1017A000E13000F011FA0420FFF76CF94FF4FA7001
:1017B000FEF73FFF0420FFF723F94FF400410448F0
:1017C000FFF713F900BF01F0C3FE0028FBD110BDE5
:1017D000001C01407047000010B51048006840F040
:1017E00001000E490860084640680D4908400B4951
:1017F0004860084600680B490840084908600846E8
:10180000006820F4802008600846406820F4FE004C
:10181000486000208860FFF73EFF10BD00100240C6
:101820000000FFF8FFFFF6FE7047704710B586B066
:10183000044601210846FFF7E3F901218803FFF779
:10184000DFF94FF40070ADF8140018208DF8170080
:1018500003208DF8160005A92148FFF73DF84FF445
:101860008060ADF8140004208DF8170005A91C480D
:10187000FFF732F825208DF8000000208DF80100D8
:1018800001208DF802008DF803006846FFF750F93B
:1018900001940020ADF80800ADF80A00ADF80C0086
:1018A000ADF810000C20ADF80E0001A90D4800F0B5
:1018B000DDFB012240F224410A4800F0B7FB01227F
:1018C00040F22551074800F0B1FB0121054800F026
:1018D00072FB4021034800F061FB06B010BD000020
:1018E000000801400038014010B586B004460121CF
:1018F0004804FFF775F90420ADF8140018208DF89E
:10190000170003208DF8160005A92148FEF7E4FF13
:101910000820ADF8140004208DF8170005A91C4814
:10192000FEF7DAFF26208DF8000000208DF8010078
:1019300001208DF802008DF803006846FFF7F8F8E3
:1019400001940020ADF80800ADF80A00ADF80C00D5
:10195000ADF810000C20ADF80E0001A90D4800F004
:1019600085FB012240F224410A4800F05FFB01227E
:1019700040F22551074800F059FB0121054800F0CD
:101980001AFB4021034800F009FB06B010BD00001F
:10199000000801400044004010B586B00446012113
:1019A0008804FFF71DF94FF48060ADF8140018208B
:1019B0008DF8170003208DF8160005A92148FEF7C1
:1019C0008BFF4FF40060ADF8140004208DF8170071
:1019D00005A91C48FEF780FF27208DF80000002095
:1019E0008DF8010001208DF802008DF80300684693
:1019F000FFF79EF801940020ADF80800ADF80A004A
:101A0000ADF80C00ADF810000C20ADF80E0001A9E7
:101A10000D4800F02BFB012240F224410A4800F05F
:101A200005FB012240F22551074800F0FFFA012191
:101A3000054800F0C0FA4021034800F0AFFA06B0B4
:101A400010BD0000000C01400048004010B54021CE
:101A5000014800F0A3FA10BD004C004010B586B05C
:101A600004460121C804FFF7BBF84FF48060ADF8CD
:101A7000140018208DF8170003208DF8160005A912
:101A80002148FEF729FF4FF40060ADF81400042050
:101A90008DF8170005A91C48FEF71EFF34208DF8AD
:101AA000000000208DF8010001208DF802008DF863
:101AB00003006846FFF73CF801940020ADF80800E9
:101AC000ADF80A00ADF80C00ADF810000C20ADF830
:101AD0000E0001A90D4800F0C9FA012240F224418C
:101AE0000A4800F0A3FA012240F22551074800F00D
:101AF0009DFA0121054800F05EFA4021034800F0FC
:101B00004DFA06B010BD000000100140004C00402E
:101B100010B540F22551194800F062FA90B140F238
:101B20002551164800F03DFA144800F0EDFAC1B214
:101B30001348144A1288815412480088401C1149E5
:101B400008801AE010210D4800F041FAA8B10B48B6
:101B500000884FF04020B0F8040C0A48008808497B
:101B6000A1F10301A1F801004FF0030008704FF04C
:101B7000000004490880FEF7A1FD10BD004C0040A4
:101B8000A91000200600002070B50446E1B2094803
:101B900000F0BFFA002507E04021064800F017FAE0
:101BA00000B105E0681C85B240F6B8308542F3DB31
:101BB00000BF70BD004C004010B54021014800F04E
:101BC000EDF910BD0050004010B586B0044601216B
:101BD0000805FFF705F84FF48050ADF81400182001
:101BE0008DF8170003208DF8160005A92048FEF790
:101BF00073FE0420ADF814008DF8170005A91D48E8
:101C0000FEF76AFE35208DF8000000208DF80100F7
:101C100001208DF802008DF803006846FEF788FF6A
:101C200001940020ADF80800ADF80A00ADF80C00F2
:101C3000ADF810000C20ADF80E0001A90E4800F020
:101C400015FA012240F224410B4800F0EFF901227D
:101C500040F22551084800F0E9F90121064800F05A
:101C6000AAF94021044800F099F906B010BD00001F
:101C700000100140001401400050004010B540F237
:101C80002551174800F0ACF990B140F225511448A5
:101C900000F087F9124800F037FAC1B21148124A31
:101CA0001288815410480088401C0F49088015E0B4
:101CB00010210B4800F08BF980B1094800880848D2
:101CC0008088094800880749C91EA1F8010004203E
:101CD000087000200449088000F022FA10BD0000BE
:101CE00000500040A91000200800002070B50446F4
:101CF000E1B2094800F00DFA002507E0402106484E
:101D000000F065F900B105E0681C85B240F6B83016
:101D10008542F3DB00BF70BD0050004002E0435C31
:101D20004A1C83540A00A1F10101F8D17047000058
:101D300010B54021014800F031F910BD00380140D4
:101D400010B540F22551184800F04AF990B140F220
:101D50002551154800F025F9134800F0D5F9C1B216
:101D60001248134A1288815411480088401C1049B7
:101D7000088017E010210C4800F029F990B10A48BA
:101D800000880C48B0F80408094800880749A1F108
:101D90000301A1F801004FF0000008700449088019
:101DA000FEF78CFC10BD000000380140A910002097
:101DB000000000200030014070B50446E1B209483F
:101DC00000F0A7F9002507E04021064800F0FFF8E1
:101DD00000B105E0681C85B240F6B8308542F3DBFF
:101DE00000BF70BD0038014010B54021014800F02F
:101DF000D5F810BD0044004010B540F225511948F7
:101E000000F0EEF890B140F22551164800F0C9F804
:101E1000144800F079F9C1B21348144A1288815469
:101E200012480088401C114908801AE010210D4812
:101E300000F0CDF8A8B10B4800884FF04020B0F872
:101E400004040A4800880849A1F10301A1F801002F
:101E50004FF0010008704FF0000004490880FEF7C1
:101E60002DFC10BD00440040A910002002000020FD
:101E700070B50446E1B2094800F04BF9002507E0CF
:101E80004021064800F0A3F800B105E0681C85B2C7
:101E900040F6B8308542F3DB00BF70BD004400401F
:101EA00010B54021014800F079F810BD004800400D
:101EB00010B540F22551194800F092F890B140F267
:101EC0002551164800F06DF8144800F01DF9C1B214
:101ED0001348144A1288815412480088401C114942
:101EE00008801AE010210D4800F071F8A8B10B48E5
:101EF00000884FF04020B0F804080A4800880849DC
:101F0000A1F10301A1F801004FF0020008704FF0A9
:101F1000000004490880FEF7D1FB10BD00480040D6
:101F2000A91000200400002070B50446E1B2094861
:101F300000F0EFF8002507E04021064800F047F8E0
:101F400000B105E0681C85B240F6B8308542F3DB8D
:101F500000BF70BD004800402DE9F04104460D4629
:101F60001646002731462846FEF7C4FE094951F8B7
:101F70002400804707E03A467B1C9FB2A85C064AD3
:101F800052F8241088473000A6F10106F3D1BDE8CD
:101F9000F0810000643E0008503E0008CA43028001
:101FA000704710B5002200230A1201249440A3B206
:101FB000DC43048010BD21B1828942F40052828149
:101FC00004E082894DF6FF731A4082817047024611
:101FD000002013880B4201D0012000E00020704750
:101FE00070B502460B460024002100250020C3F3F3
:101FF000421503F01F01012606FA01F1012D02D15D
:102000009689314006E0022D02D1168A314001E066
:10201000968A31401C12012606FA04F416883440D0
:1020200011B10CB1012000E0002070BDF0B50346F5
:1020300000240026002500201846C1F3421401F0B8
:102040001F06012707FA06F5012C01D10C3004E028
:10205000022C01D1103000E014301AB107682F4370
:10206000076002E00768AF430760F0BD2DE9F04765
:1020700086B005460E460024A24600BF00BF0027DA
:102080002F462C8A4CF6FF700440F08804432C82C3
:10209000AC894EF6F3100440B08831890843718949
:1020A00008430443AC81AC8A4FF6FF400440B0893A
:1020B0000443AC8201A8FEF7B3FD1248874202D167
:1020C000DDF810A001E0DDF80CA00AEBCA0000EB7F
:1020D0000A1031688900B0FBF1F86420B8FBF0F019
:1020E00004012009642101FB1089322000EB091052
:1020F000B0FBF1F000F00F0004432C8106B0BDE806
:10210000F08700000038014001468888C0F30800CD
:102110007047C1F3080282807047704700BFFEE736
:10212000704702E008C8121F08C1002AFAD17047A0
:102130007047002001E001C1121F002AFBD1704747
:1021400070B504460D460020E070401EE06229464E
:10215000204601F091FA08B1042070BD04F22E204F
:1021600001F027F9A0F52A41553901D00320F4E701
:1021700094F83000E92807D094F83000EB2803D019
:1021800094F83000E82811D1032209A104F1660077
:1021900001F01DF908B90020DFE7052205A104F1CF
:1021A000820001F014F908B90020D6E70220D4E734
:1021B000464154004641543332000000024600E0DC
:1021C000521C107810B110788842F9D110787047FD
:1021D0000246891E5069801E884201D8002070473F
:1021E0005389906A03FB0100F9E72DE9F047824625
:1021F0008846DAF80040B8F1000F06D1E76817B159
:102200006069B84215D8012713E04146504601F0F5
:1022100018F80546022D02D20120BDE8F087681C9F
:1022200001D12846F9E76069A84201D92846F4E7B8
:102230004746206908B90020EFE70026474518D136
:102240007E1C6069B04200D802263146504600F03C
:10225000F8FF0546012D01D0681C01D12846DCE7B6
:102260003DB1E568022D03D36069A84200D92F462D
:102270000026E6B93E4600BF761C6069B04204D82D
:102280000226BE4201D90020C7E73146504600F081
:10229000D8FF054605B909E0012D01D0681C01D120
:1022A0002846BAE7BE42E7D10020B6E700BF4FF0AC
:1022B000FF323146204601F021FA8146B9F1000F84
:1022C00008D1B8F1000F05D032464146204601F052
:1022D00015FA8146B9F1000F0DD1E660D4E904107A
:1022E000801E814202D82069401E2061207940F082
:1022F0000100207107E0B9F1010F02D14FF0FF306A
:1023000000E001200646304687E700002DE9F35F34
:102310008946D9F80080009800F120050B22202181
:10232000284601F001F90020074606464FF0080B49
:1023300000BF3046761C18F80040202C00DC4AE034
:102340002F2C01D05C2C0AD100E0761C18F8060076
:102350002F28FAD018F806005C28F6D03BE02E2C87
:1023600001D05F450BD3BBF10B0F01D02E2C02D057
:102370000620BDE8FC9F08274FF00B0BD9E720464D
:1023800000F046F8A8B13046761C18F800A0504678
:1023900000F058F818B1ABF10100B84201D806209E
:1023A000E7E738467F1C2C5438467F1C05F800A010
:1023B00010E0214612A0FFF701FF08B10620D8E780
:1023C000612C04DB7A2C02DCA4F12000C4B2384674
:1023D0007F1C2C54ADE700BF08EB0600C9F80000D5
:1023E0000FB90620C5E72878E52801D10520287017
:1023F000202C01DC042000E00020E8720020B8E777
:10240000222A2B2C3A3B3C3D3E3F5B5D7C7F00000B
:1024100001460B48007888420FDC09484078884222
:1024200001DB0120704706488078884205DC0448BB
:10243000C078884201DB0120F4E70020F2E70000C9
:10244000D03E0008014610480079884219DC0E4849
:102450004079884201DB012070470B48807988422F
:1024600005DC0948C079884201DB0120F4E7064811
:10247000007A884205DC0448407A884201DB01206A
:10248000EAE70020E8E70000D03E00082DE9F0412F
:1024900004460E46D4F800800021204600F00DF9D5
:1024A0000546EDB9002700BF4046A16901F0E4F8F8
:1024B000054605B113E0E0690078E52802D0E0693F
:1024C000007820B9781C0746B04201D107E0002708
:1024D0000121204600F071F80546002DE4D000BF30
:1024E000042D00D107252846BDE8F0812DE9F047ED
:1024F00004468946204601F055FA10B10120BDE896
:10250000F08749462046FFF763FE0646E6624FF431
:102510000072002104F1300001F006F804F13008E7
:102520000127002500E03D446089A84207D97219BF
:1025300060783B46414600F059F90028F3D06089A5
:10254000A84201D0012000E00020C0B2D7E72DE969
:10255000F041044627680021204600F0AEF8054609
:1025600015B12846BDE8F08100BF3846A16901F0E9
:1025700083F8054605B11DE0E06906780EB904252B
:1025800018E0E069C07A00F03F00A071E069C07A0D
:1025900010F0080F07D10B2204F12001E06900F0D0
:1025A00016FF00B906E00021204600F006F80546B7
:1025B000002DDAD000BF2846D4E72DE9F0410446CB
:1025C00088462768206900F12006A06910B1B6F599
:1025D000001F02D30420BDE8F081F005C00D45D1F5
:1025E000A069401CA061606938B93889B0EB561FFA
:1025F0003CD80020A0610420EDE77889401E10EA55
:10260000562F33D12046616900F01BFE0546012D8F
:1026100001D80220DFE7681C01D10120DBE77869DF
:10262000A8421DD8B8F1000F03D10020A0610420FA
:10263000D1E720466169FFF7D8FD05460DB90720AF
:10264000C9E7012D01D10220C5E7681C01D1012095
:10265000C1E729463846FFF749FF08B10120BAE72C
:10266000656129463846FFF7B3FDA0612661C6F3D0
:10267000080107F130000844E0610020ABE770B5C5
:102680000446266801212046FFF700FF054695B95C
:102690003046A16900F0F0FF054665B9202200210F
:1026A000E06900F041FF0B2204F12001E06900F035
:1026B000A0FE0120F070284670BD2DE9F0410446CF
:1026C0000D462668B5F5001F02D215F01F0F02D087
:1026D0000220BDE8F0812561A7681FB93078032882
:1026E00000DB776A47B93089B0EB551F01D802206B
:1026F000EFE7706AA0611CE070894FEA402811E0A2
:102700003946204600F09DFD0746781C01D1012086
:10271000DFE7022F02D37069B84201D80220D8E760
:10272000A5EB08054545EBD239463046FFF750FD8D
:10273000A0616761A06908B90220CAE7A06900EB3F
:102740005520A061C5F3080106F130000844E0619E
:102750000020BEE770B505460DB1012070BDFEF743
:102760007DFD04460CB10120F8E70020F6E72DE9D5
:10277000F04107460E46154636B1012E0FD0022E07
:1027800004D0032E10D106E000240FE04FF40070B7
:10279000286000240AE001202860002406E0FEF7FB
:1027A0009DFC2860002401E0042400BF00BF2046F7
:1027B000BDE8F0812DE9F04107460C4615461E465E
:1027C000012E07D933464FF4007229462046FEF702
:1027D000C9FD05E04FF4007229462046FEF786FD4C
:1027E0000020BDE8F0810146002070472DE9F0414E
:1027F00007460C4615461E46012E07D933464FF4B0
:10280000007229462046FEF775FE05E04FF400727F
:1028100029462046FEF72CFE0020BDE8F08100008E
:1028200010B54FF40C7000F04FFF124908604FF4E0
:102830000A7000F049FF104908604FF40A7000F078
:1028400043FF0E4908604FF4007000F03DFF0C4953
:1028500008600848006850B10748006838B1074868
:10286000006820B10846006808B1002010BD0120B2
:10287000FCE700000C0000201400002018000020DD
:102880002400002038B50546284600F0B4FA044676
:102890003CB96946284601F0AAF804460CB9002064
:1028A0002860204638BD2DE9F84F04460E4669469B
:1028B000204601F09CF88246BAF1000F01D194F84D
:1028C00011A0BAF1000F02D05046BDE8F88FE068C1
:1028D000B04204D2207C10F0020F00D1E668D4F898
:1028E00014904FF00008C4F81480EEB300984089AB
:1028F0004702B9F1000F11D0701EB0FBF7F1A9F13A
:102900000100B0FBF7F0814208D3A9F10100791E64
:10291000884360616069361AA56912E0A5687DB9CF
:1029200000212046FFF761FC0546012D02D102205F
:102930006074CAE7681C02D101206074C5E7A56015
:10294000A5618DB125E0F61B606938446061207C8B
:1029500010F0020F09D000BF29462046FFF745FCC2
:1029600005463DB9002616E029E02946204600F03C
:1029700068FC0546681C02D101206074A5E7012DA2
:1029800003D900984069A84202D8022060749CE7ED
:10299000A561BE42D7D800BF606930446061F005D0
:1029A000C00D0CD029460098FFF712FC8046B8F104
:1029B000000F02D10220607487E708EB5628E16817
:1029C0006069884205D96069E060207C40F0400081
:1029D00020746069C005C00D24D0E069404521D055
:1029E000207C10F0800F0FD0E26900994878012315
:1029F00004F12801FFF7FAFE10B10120607464E7CA
:102A0000207C00F07F002074009948780123424622
:102A100004F12801FFF7CEFE10B10120607454E7E5
:102A2000C4F81C80504650E7F7B582B016460398AC
:102A3000019001A800F077FC0546002D02DA0B207A
:102A400005B0F0BD0C4850F825400CB100202070B6
:102A5000029810B10020029908700749029841F8C5
:102A600025000EB90020EBE7002202A903A800F020
:102A700013FA07463846E3E7540000202DE9F74FE4
:102A80008EB0044616461CB9092011B0BDE8F08F7F
:102A900006F03F06324602A90FA800F0FDF90546F0
:102AA000F5BB0298039003A80F9900F07BFB054645
:102AB0002DB99DF8370010F0800F00D0062516F0D4
:102AC0001C0F50D045B1042D03D103A8FFF7D7FD4B
:102AD000054646F008060AE09DF8120010F0110FB6
:102AE00001D0072503E016F0040F00D00825CDBB68
:102AF00016F0080F48D00A99029800F03BFC814676
:102B000000F00FFC00900A9901F10E00009900F00E
:102B1000F0FE20200A99C87200220A99029800E06B
:102B20007CE000F0D4FE0A9901F11C00002100F0C5
:102B3000E0FE01200299C870B9F1000F24D002987C
:102B4000C06A01900022494603A800F073FE0546C2
:102B500045B9DDE9011000F08FFD0546A9F101003E
:102B60000299C86010E07DB99DF8120010F0100FB6
:102B700001D0042508E016F0020F05D09DF81200E0
:102B800010F0010F00D007254DB916F0080F01D045
:102B900046F040060298C06A20620A986062EDBB67
:102BA0000A99029800F0E6FBA0600A9901F11C0066
:102BB00000F0F3FBE060029820600298C088A080DB
:102BC000267400206074E06160614FF4007200219F
:102BD00004F1280000F0A8FC16F0200F39D0E068BE
:102BE000E0B1E0686061029840894FEA402AA76836
:102BF000D4F80C800CE03946204600F022FB074652
:102C0000012F00D80225781C00D10125A8EB0A0865
:102C10000DB9D045EFD8A76105B900E00BE0C8F3C6
:102C20000800002815D039460298FFF7D1FA5FEA6C
:102C3000000B01D102250CE00BEB5820E061E269AA
:102C400002994878012304F12801FFF7B3FD00B190
:102C500001250DB100202060284616E72DE9FF4F21
:102C600085B0044615469A46DDF818B00020CAF82B
:102C7000000003A9204600F0BAFE0490049810B9A1
:102C8000607C049018B1049809B0BDE8F08F207CF6
:102C900010F0010F01D10720F6E76169E068401AE2
:102CA00001900198854200D9019D9FE06069C005AF
:102CB000C00D7ED103984089401E616900EA512908
:102CC000B9F1000F17D1606910B9A068029004E053
:102CD0002046A16900F0B5FA02900298022802D2BB
:102CE00002206074D0E70298401C02D10120607479
:102CF000CAE70298A061A1690398FFF769FA06463E
:102D000016B902206074BFE74E444FEA5528B8F167
:102D1000000F29D009EB080003994989884203D99B
:102D200003984089A0EB0908039948784346324646
:102D30005946FFF73FFD10B101206074A4E7207CE5
:102D400010F0800F0DD0E069801B404509D2E16989
:102D5000891B0BEB41204FF4007204F1280100F0B5
:102D600048FB4FEA482737E0E069B04220D0207C9A
:102D700010F0800F0FD0E26903994878012304F125
:102D80002801FFF733FD10B1012060747CE7207C3F
:102D900000F07F002074039948780123324604F143
:102DA0002801FFF707FD18B1012060746CE700E00F
:102DB000E6616069C0F30800C0F50077AF4200D952
:102DC0002F466069C0F3080204F1280011183A4642
:102DD000584600F00EFB00BFED1BDAF80000384447
:102DE000CAF80000BB44606938446061002D7FF47C
:102DF0005DAF002048E7F8B504466946204600F07C
:102E0000F6FD0646EEBB207C10F0400F41D0207C42
:102E100010F0800F0ED0E26900994878012304F188
:102E20002801FFF7E3FC08B10120F8BD207C00F089
:102E30007F00207400F075FA0746216A009800F0C0
:102E40001BFC0646EEB9656AE87A40F02000E8729D
:102E50002946A268206800F03AFD05F11C00E168EF
:102E600000F047FD394605F1160000F042FD002153
:102E700005F1120000F049FD01200099C87000988A
:102E800000E006E000F048FD0646207C00F0BF00B0
:102E900020743046C9E700002DE9F74F8AB00021C1
:102EA0000B9801600A9800F03EFA089008980028F4
:102EB00003DA0B200DB0BDE8F08FB549089851F842
:102EC00020400CB90C20F5E70B9804600C9800F03A
:102ED000FE000C90207878B16078FFF784FC814682
:102EE00019F0010F08D10C9820B119F0040F01D08E
:102EF0000A20DFE70020DDE70020207008986070DE
:102F00006078FFF727FC814619F0010F01D00320FC
:102F1000D0E70C9820B119F0040F01D00A20C9E7BE
:102F2000002739462046FFF70BF90546022D01D050
:102F30002EDA2DE0002614E04FF4DF7000EB0611CE
:102F400004F13000084409900998007920B10998EB
:102F5000083000F022FA00E0002002A941F8260023
:102F6000761C042EE8D3002606B1761E00BF02A808
:102F700050F8267027B139462046FFF7E1F800E007
:102F80000320C5B2022D03DB701C06460428EED3D5
:102F9000042D01D101208DE7022D01DB0D2089E7F1
:102FA00004F13B0000F005FAB0F5007F01D00D20E0
:102FB00080E704F1460000F0FCF98046B8F1000F0C
:102FC00004D104F1540000F0E8F98046C4F81880F8
:102FD0004020005DA070A078012804D0A0780228CD
:102FE00001D00D2066E7A07808FB00F83D20005DC9
:102FF0006081608918B16089411E084201D00D20AE
:1030000058E704F1410000F0D4F92081208910F044
:103010000F0F01D00D204DE704F1430000F0C9F976
:103020008346BBF1000F04D104F1500000F0B5F964
:10303000834604F13E0000F0BCF90190019808B904
:103040000D2037E701984044218900EB11100790CB
:103050000798834501D20D202CE70798ABEB0000C1
:103060006189B0FBF1FABAF1000F01D10D2021E71F
:1030700000254848824500D803254FF6F570824563
:1030800000D8022540F6F570824500D801250DB91B
:103090000D200FE70AF102006061E76101983844F2
:1030A000206207983844A062032D13D104F15A001E
:1030B00000F07FF908B10D20FCE6208908B10D2051
:1030C000F8E604F15C0000F068F960626069800075
:1030D000069014E0208908B90D20EBE6206A4044F0
:1030E0006062022D02D16069400007E0606900F073
:1030F0000100616901EB410100EB51000690A169FB
:10310000069800F2FF10B1EB502F01D20D20D1E64E
:103110004FF0FF302061E06080202071032D2CD122
:1031200004F1600000F045F9012826D1791C204601
:1031300000F0A2FA08BB0020207104F22E2000F05B
:1031400038F9A0F52A41553917D104F1300000F0C3
:1031500024F91149884210D104F5057000F01DF9D9
:103160000E49884209D104F5067000F016F9206175
:1031700004F5077000F011F9E06025700848008838
:10318000401C80B206490880E080002092E60000E2
:1031900054000020F5FFFF0F5252614172724161ED
:1031A000580000202DE9F3410446276802E0019809
:1031B000401C0190019800782F28F8D001980078E1
:1031C0005C28F4D00020A06001980078202808D264
:1031D00080212B20015500212046FFF76EFA05467D
:1031E0002CE000BF01A92046FFF790F8054605B185
:1031F00023E02046FFF7ABF905462B20065D3DB1E5
:10320000042D04D100BF16F0040F00D1052514E0F1
:1032100016F0040F00D010E0A07910F0100F01D1CB
:1032200005250AE02069C0F3080207F130001118F3
:10323000384600F09FF8A060D4E700BF2846BDE8FC
:10324000FC812DE9F04781460C46D9F80050022C4C
:1032500002D36869A04202D84FF001085EE04FF047
:10326000FF382878012804D002282CD0032851D117
:103270003CE0264606EB5606286A00EB5621284617
:1032800000F0FAF900B148E03046761CC0F30801BE
:1032900005F13000475C286A00EB5621284600F013
:1032A000EBF900B139E0C6F3080105F13000405CEC
:1032B00047EA002714F0010F01D0380901E0C7F3F5
:1032C0000B00804629E0286A00EB1421284600F014
:1032D000D3F900B121E040F2FF1101EA440205F107
:1032E0003001501800F065F8804616E0286A00EBBF
:1032F000D411284600F0C0F900B10EE040F2FF11F1
:1033000001EA840205F13001501800F046F820F07F
:10331000704802E04FF0010800BF00BF4046BDE822
:10332000F0870020704770B504464FF0FF302668E4
:103330003146324601B970BD00BF12F8013B212B66
:1033400001D33A2BF9D13A2B11D101250E78302E29
:1033500008DB0E78392E05DC8E1C964202D10E78E1
:10336000A6F13005012D01DA28462260E3E70020AE
:1033700000BFE0E770B505460C4604F11A0000F006
:1033800018F806462878032805D104F1140000F047
:1033900010F846EA0046304670BD0146C8788A7883
:1033A00042EA00204A7842EA00200A7842EA0020F5
:1033B0007047014648780A7842EA00207047FEF7D5
:1033C000D7F900210846FDF7A5F900BFFEE7F0B5E3
:1033D00003461D460C46002000BF15F8017B14F87B
:1033E00001CBA7EB0C00561E320001D00028F4D010
:1033F000F0BD30B503460C463AB100BF14F8015B8E
:1034000003F8015B551E2A00F8D130BD70B50546A2
:103410000F48007C20B90E4908688047012070BD24
:10342000B5F5284F11D269090948C06830F8112054
:10343000002406E00020064BDB680E1923F8160076
:10344000641C9442F6DB0020E9E70220E7E7000075
:103450004000002000B509494FF42862C8680021E7
:1034600000F042F905494FF428428868002100F035
:103470003BF901200149087400BD00004000002014
:103480002DE9F04106460024A0461A48007C10B9F8
:103490001849086880471EB94FF0FF30BDE8F08139
:1034A000C6F34F1516F01F0F01D0681C85B240F20D
:1034B0003F541AE00F48C06830F8140020B908F1F2
:1034C00001001FFA80F801E04FF00008A8450BD179
:1034D000002705E00748C068E11920F811507F1C5B
:1034E000AF42F7D36001D9E7641E002CE2DA4FF057
:1034F000FF30D3E7400000200022002106E0094809
:10350000C06830F8110000B1521C491CB1F5A86F19
:10351000F5D3642050434FF4A863B0FBF3F0C0B27E
:10352000704700004000002010B5034600BF03F8BC
:10353000011B541E2200FAD110BD000010B5034833
:103540000068FFF79FF9002010BD00001400002064
:1035500010B5FF24FFF764F904490122086804A1AB
:10356000FFF762FA0446204610BD00000C00002060
:10357000303A000010B50446214602480068FFF7C3
:1035800092F910BD1400002070B504460D462A467D
:10359000214603480068FFF771FA0646304670BDC1
:1035A000140000202DE9F047044600270026B1460C
:1035B00021E02A4B4FF4007229480168294800682D
:1035C000FFF74CFB074607B11BE0002507E0244846
:1035D0000068405DA919244A5054681C85B21F48F0
:1035E00000688542F3D31D480068304486B209F173
:1035F00001001FFA80F9E11704EBD151B9EB612FFB
:10360000D7DB00BFE11704EBD1514912B4EB4121E4
:1036100021D0A046E01704EBD0504012A4EB40228A
:103620000E4B0F4801680F480068FFF717FB07466D
:103630008FB9002507E00A480068405DA9190A4AC9
:103640005054681C85B2054800688542F3D303488E
:103650000068304486B23846BDE8F0871C00002080
:103660002400002014000020A00000200148006871
:10367000C06870471400002070B504460D4600264F
:10368000E06AA84210D0204600F08CF906465EB9E8
:10369000607801232A4604F13001FFF78BF810B15E
:1036A0004FF0FF350126E562304670BD70B5044627
:1036B00004B970BD03488068251A2846FFF7A6FEA6
:1036C00000BFF6E74000002070B505462846FFF72A
:1036D000D7FE0446601C00D170BD024880682044BB
:1036E000FAE700004000002030B5034601E003F88F
:1036F000011B1400A2F10102F9D130BD2DE9F04700
:1037000004460D4616464FF00209022D74D3606937
:10371000A84271D92078012804D0022849D0032872
:103720000DD15EE02F4607EB5707206A00EB5721CB
:103730002046FFF7A1FF8146B9F1000F00D075E0E8
:1037400038467F1CC0F3080104F1300001EB00088B
:1037500015F0010F05D0F1B298F8000061F31F10C9
:1037600000E0F0B288F800000120E070206A00EB71
:1037700057212046FFF780FF8146B9F1000F00D0A6
:1037800054E0C7F3080104F1300001EB000815F024
:10379000010F02D0C6F3071006E098F8000000F011
:1037A000F000C6F30321084388F800000120E07010
:1037B0003CE0206A00EB15212046FFF75DFF8146C3
:1037C000B9F1000F00D031E040F2FF1101EA4502EB
:1037D00004F130015018B1B200F097F80120E07008
:1037E00024E0206A00EBD5112046FFF745FF814613
:1037F000B9F1000F01D019E019E040F2FF1101EA20
:10380000850204F130015018FFF7C7FD66F31B0075
:10381000064640F2FF1101EA850204F1300150181A
:10382000314600F066F80120E07000BF00BF484656
:10383000BDE8F0872DE9F04781460E4617464FF068
:103840000008D9F80040022E02D36069B04202D8C5
:103850000220BDE8F08767B100BF4FF0FF32394664
:103860002046FFF74BFF8046B8F1000F01D04046DD
:10387000EFE700BF31464846FFF7E3FC054605B9D0
:1038800022E0012D01D10220E3E7681C01D10120D3
:10389000DFE7002231462046FFF730FF8046B8F1CF
:1038A000000F01D04046D4E7D4E90410801E8142C5
:1038B00006D22069401C2061207940F0010020716F
:1038C0002E466069B042D5D800BF0020C1E770B570
:1038D00006460C461546A9B204F11A0000F015F888
:1038E0003078032804D1290C04F1140000F00DF8FD
:1038F00070BD00F8011B090A00F8011B090A00F855
:10390000011B090A00F8011B704700F8011B09128E
:1039100000F8011B7047000070B50446204600F017
:1039200041F80546C5BB207803282ED1207901280F
:103930002BD14202002104F13000FFF7F5FD4AF6D9
:10394000552104F22E20FFF7E0FF144904F1300066
:10395000FFF7CFFF124904F50570FFF7CAFF04F522
:1039600006702169FFF7C5FF04F50770E168FFF7EE
:10397000C0FFE069401CE0626078012304F130017F
:10398000E26AFEF733FF00202071607800221146C2
:10399000FEF7EDFE00B10125284670BD525261418F
:1039A0007272416170B504460025E078E8B1607834
:1039B000012304F13001E26AFEF718FFA0B90020EC
:1039C000E070216AE06A401AA16988420DD2A078AD
:1039D00002280AD1A369E16ACA186078012304F1B8
:1039E0003001FEF703FF00E00125284670BD70B5E9
:1039F00004460D4609268CB1206878B1206800780D
:103A000060B1A0882168C988884207D121684878B8
:103A1000FEF7E9FE10F0010F00D100260EB9206874
:103A200000E000202860304670BD303A42414E4BE5
:103A3000302F464C41472E7478740000000000007F
:103A40000000000000000000000000000000000076
:103A50000000303A42414E4B302F42494E2E74788E
:103A600074000000000000000000000000000000E2
:103A700000000000000000000000303A42414E4BC0
:103A8000302F4346472E7478740000000000000079
:103A90000000000000000000000000000000000026
:103AA0000000303A42414E4B302F43464742414B93
:103AB0002E74787400000000000000000000000078
:103AC00000000000000000000000303A42414E4B70
:103AD000302F4F544845522E747874000000000077
:103AE00000000000000000000000000000000000D6
:103AF0000000303A42414E4B312F464C41472E7424
:103B000078740000000000000000000000000000C9
:103B100000000000000000000000303A42414E4B1F
:103B2000312F42494E2E74787400000000000000CE
:103B30000000000000000000000000000000000085
:103B40000000303A42414E4B312F4346472E7478A5
:103B500074000000000000000000000000000000F1
:103B600000000000000000000000303A42414E4BCF
:103B7000312F43464742414B2E74787400000000B9
:103B80000000000000000000000000000000000035
:103B90000000303A42414E4B312F4F544845522E8F
:103BA00074787400000000000000000000000000B5
:103BB00000000000000000000000303A42414E4B7F
:103BC000322F464C41472E747874000000000000EC
:103BD00000000000000000000000000000000000E5
:103BE0000000303A42414E4B322F42494E2E7478FB
:103BF0007400000000000000000000000000000051
:103C000000000000000000000000303A42414E4B2E
:103C1000322F4346472E74787400000000000000E5
:103C20000000000000000000000000000000000094
:103C30000000303A42414E4B322F43464742414BFF
:103C40002E747874000000000000000000000000E6
:103C500000000000000000000000303A42414E4BDE
:103C6000322F4F544845522E7478740000000000E3
:103C70000000000000000000000000000000000044
:103C80000000303A42414E4B332F464C41472E7490
:103C90007874000000000000000000000000000038
:103CA00000000000000000000000303A42414E4B8E
:103CB000332F42494E2E747874000000000000003B
:103CC00000000000000000000000000000000000F4
:103CD0000000303A42414E4B332F4346472E747812
:103CE0007400000000000000000000000000000060
:103CF00000000000000000000000303A42414E4B3E
:103D0000332F43464742414B2E7478740000000025
:103D100000000000000000000000000000000000A3
:103D20000000303A42414E4B332F4F544845522EFB
:103D30007478740000000000000000000000000023
:103D400000000000000000000000303A50554241E1
:103D50004E4B2F46544150502E7478740000000092
:103D60000000000000000000000000000000000053
:103D70000000303A505542414E4B2F435241505073
:103D80002E747874000000000000000000000000A5
:103D900000000000000000000000303A5055424191
:103DA0004E4B2F46544346472E7478740000000053
:103DB0000000000000000000000000000000000003
:103DC0000000303A505542414E4B2F435243464734
:103DD0002E74787400000000000000000000000055
:103DE00000000000000000000000303A42414E4B4D
:103DF0003000000000000000000000000000303A29
:103E000042414E4B31000000000000000000000065
:103E10000000303A42414E4B3200000000000000EA
:103E2000000000000000303A42414E4B33000000D9
:103E300000000000000000000000303A50554241F0
:103E40004E4B0000000000000000000000000000D9
:103E5000B91D0008711E0008291F0008891B0008F1
:103E6000ED1C0008311D0008E91D0008A11E000816
:103E70004D1A0008B91B00088507000881070008D3
:103E80008307000889070008000000000000000008
:103E90000000000000000000000000000000000022
:103EA00000000000F50200088504000899010008E0
:103EB000CD0200087D020008990100089901000860
:103EC00099010008A50200080000000000000000A1
:103ED000819FE0FC407E80FC00002B2E2C3B3D5B54
:103EE0005D2F5C222A3A3C3E3F7C7F0001000400AB
:103EF0001000400000010002000001000200040068
:103F00000800100020000000283F000800000020EA
:103F10005C00000022210008843F00085C000020B3
:103F2000D4E400003221000800000000000000007E
:103F30000000000000000000000000000000000081
:103F40000000000000000000000000000000000071
:103F50000000000000010203040102030406070838
:103F6000090204060800000055340008F93400086E
:103F7000AC300020ACD800200000000000000000A1
:043F8000000000003D
:0400000508000131BD
:00000001FF
