:020000040800F2
:100000000004002047010008671A0008C515000811
:10001000631A0008AD060008AD34000800000000B7
:10002000000000000000000000000000E5270008BC
:100030008B08000800000000A11B000847290008E9
:1000400067010008670100086701000867010008F0
:1000500067010008670100086701000867010008E0
:1000600067010008670100086701000867010008D0
:1000700067010008670100086701000867010008C0
:1000800067010008670100086701000867010008B0
:10009000373400086701000867010008670100089D
:1000A0006701000867010008670100086701000890
:1000B00099290008C52900086701000867010008A0
:1000C0006701000867010008670100086701000870
:1000D000670100089D2F00084D300008FD30000822
:1000E0006701000867010008670100086701000850
:1000F0006701000867010008670100086701000840
:10010000670100086701000867010008670100082F
:10011000712D0008B12E0008670100086701000872
:1001200067010008670100086701000889080008E6
:10013000DFF80CD000F01EF8004800470F4C000814
:1001400018560020704708488047084981F30888FE
:1001500007480047FEE7FEE7FEE7FEE7FEE7FEE7AB
:10016000FEE7FEE7FEE7FEE745010008185600201F
:1001700031010008064C074D06E0E06840F001033D
:1001800094E8070098471034AC42F6D3FFF7D4FF49
:100190000C5800082C58000838B504460025842067
:1001A0008DF8000000208DF8010084208DF80200F9
:1001B00003226946204603F05DF87721842000F091
:1001C00097F80546284638BD38B5044600258820EE
:1001D0008DF8000000208DF8010088208DF80200C5
:1001E00003226946204603F045F8AA2255218820BB
:1001F00000F040F80546284638BD00002DE9F041E2
:1002000005460E4617460A244FF0000803E00A2070
:1002100000F041FB641E1548007800F0010008B9A9
:10022000002CF4D114B90020BDE8F0810F4800780B
:1002300020F001000D4908700846007800F0020027
:10024000022810D10846007820F002000870084803
:10025000C078A84207D13A460549C91C304601F08A
:10026000F5FB0120E0E74046DEE700002900002022
:10027000BA1000202DE9F04105460E461746C82465
:100280004FF0000803E00A2000F005FB641E16484A
:10029000007800F0010008B9002CF4D114B9002056
:1002A000BDE8F0811048007820F001000E49087088
:1002B0000846007800F00200022812D108460078B3
:1002C00020F0020008700948C078A84209D1074808
:1002D0000079B04203D005480079B84201D14FF00F
:1002E00001084046DCE7000029000020BA10002089
:1002F0002DE9F04105460E46C824002704E00A20F7
:1003000000F0C9FA601EC4B21348007800F0010082
:1003100008B9002CF3D114B90020BDE8F0810E48D3
:10032000007820F001000C4908700846007800F0C1
:10033000020002280DD10846007820F00200087063
:100340000648C078A84204D104480079B04200D1E0
:1003500001273846E1E7000029000020BA100020FC
:100360002DE9F041064601270325002407E0304629
:1003700000F0C4FF012800D103E0601CC4B2AC420D
:10038000F5DB00BFAC4200D100273846BDE8F08164
:100390002DE9F041064601270325002407E03046F9
:1003A000FFF7FAFE012800D103E0601CC4B2AC42A2
:1003B000F5DB00BFAC4200D100273846BDE8F08134
:1003C0002DE9F041064601270325002407E03046C9
:1003D000FFF7FAFE012800D103E0601CC4B2AC4272
:1003E000F5DB00BFAC4200D100273846BDE8F08104
:1003F0002DE9F041064601270325002407E0304699
:1004000000F041F8012800D103E0601CC4B2AC4206
:10041000F5DB00BFAC4200D100273846BDE8F081D3
:100420002DE9F041064601270325002407E0304668
:1004300000F041F8012800D103E0601CC4B2AC42D6
:10044000F5DB00BFAC4200D10027322000F023FAD8
:100450003846BDE8F0812DE9F04106460127032525
:10046000002407E0304600F03FF8012800D103E007
:10047000601CC4B2AC42F5DB00BFAC4200D1002727
:100480003846BDE8F08138B50446002583208DF854
:10049000000000208DF8010083208DF80200032267
:1004A0006946204602F0E6FE77218320FFF720FF11
:1004B0000546284638BD38B50446002586208DF807
:1004C000000000208DF8010086208DF80200032234
:1004D0006946204602F0CEFE77218620FFF708FF0E
:1004E0000546284638BD000070B5044600250C229C
:1004F00000210D4800F06CFD18B90C210B4800F0EC
:10050000C9F80C21094802F037FD8020074908701E
:100510000F22204602F0AEFE77218020FFF7E8FE92
:100520000546284670BD0000A6550008B40000200E
:100530002DE9F04104460E4615460027294620467F
:1005400002F01AFD81202070EA1C2146304602F09C
:1005500091FE77218120FFF7CBFE07463846BDE8A4
:10056000F081000038B5044600256946064800F0D1
:1005700046FD28B92046009900F008F8054600E03D
:100580000025284638BD0000565500082DE9F05FCB
:1005900080460E464FF0010B03254FF0000AC6F3CC
:1005A0000F39C6F30B07B9F1000F1DD1002413E07A
:1005B0003A460021354800F00BFD18B93946344859
:1005C00000F068F83A4641463148FFF7B1FF01288C
:1005D00000D103E0601C84B2AC42E9DB00BFAC4256
:1005E00051D10020BDE8F09F24E000241BE04FF42F
:1005F00080525146254800F0EBFC28B94FF4805159
:10060000234800F047F801E000BFFEE74FF48052B6
:1006100041461F48FFF78CFF012802D10AF5805A96
:1006200003E0601C84B2AC42E1DB00BFAC4201D10C
:100630000020D7E7B9F10000A9F101011FFA81F903
:10064000D3D1002F1FDD002416E03A4651460F4853
:1006500000F0BEFC20B939460D4800F01BF801E05F
:1006600000BFFEE73A4641460948FFF761FF01280F
:1006700000D103E0601C84B2AC42E6DB00BFAC42B8
:1006800001D10020AEE75846ACE7000056550008FF
:10069000B400002010B50246002002E01378184490
:1006A000521C0B1EA1F10101F8D110BD00BFFEE7E5
:1006B00010B50C480078012813D10A48B0F80100A1
:1006C000401C80B20749A1F80100B1F8031088422C
:1006D00007DB0020034908704FF40041024800F096
:1006E00051FF10BD24000020001C014010B504463D
:1006F0004FF400410B4800F045FF00200A49A1F8E3
:100700000100C8206043A1F803000846B0F80300C8
:10071000002805DD01200870C103024800F034FF05
:1007200010BD0000001C01402400002010B504464C
:1007300002A001F0F0FA00F08DFC10BD303A2F421B
:10074000414E4B322F464C41472E54585400000026
:1007500020B505462046FFF7E9FF002020BD000038
:100760000279442A10D14279482A0DD100BF01F103
:100770000902825C0B4B5A544A1CD1B201F10902A6
:10078000825C2C2AF3D10CE002796F2A09D14279DC
:100790006E2A03D10122044B1A7002E00022024BA0
:1007A0001A707047085200206E00002010B50246F3
:1007B0000B460024002102E0505C0444491C99428D
:1007C000FAD3A0B210BD2DE9F04105460C46002732
:1007D000B8460026032C02D20020BDE8F081214655
:1007E000284600F00EF88046A01E285C0602601E17
:1007F000285C06431FFA88F0B04200D10127384632
:10080000EBE710B502460B460020002103E0545CE4
:1008100020444C1CA1B29C1E8C42F8D810BD000094
:10082000002100EB4002024B1A4491707047000017
:10083000FC3000202DE9F04704460D4616461F46C1
:100840003B4632462946204600F0E6FE681E1FFA67
:1008500080F813E0601E1FFA80F907E000210120F4
:1008600000F07EFF09F101001FFA80F93019401EE7
:100870004845F3DC08F101001FFA80F87819401EA2
:100880004045E7DCBDE8F0877047704700E0401E58
:100890000028FCD17047014606E04FF4FA5001E011
:1008A000421E90B20028FBD10A1EA1F1010399B2A9
:1008B000F3D170470021C0EBC002064B9954C0EB46
:1008C000C0021A44A2F80310C0EBC0021A44A2F8F6
:1008D00005107047C03000202DE9F04705460F464F
:1008E000144698464FF00009202C0DDB7E2C0BDCC3
:1008F000A4F12006F6000648064443462A46394637
:10090000304602F051FEA9464846BDE8F087000097
:10091000C0BF03002DE9F04705460F461446984630
:100920004FF0000917E02078202813DB20787E287C
:1009300010DC2078A0F12006F6000A480644434661
:100940002A463946304602F02FFE681DC5B2A94638
:10095000641C00E0641C20780028E4DC4846BDE804
:10096000F0870000C0BF03002DE9F04705460F46A1
:10097000144698464FF00009202C0DDB7E2C0BDC32
:10098000A4F1200636010648064443462A46394665
:10099000304602F047FEA9464846BDE8F087000011
:1009A000C0B703002DE9F04705460F4614469846A8
:1009B0004FF0000918E02078202814DB20787E28EA
:1009C00011DC2078A0F1200636010A48064443468F
:1009D0002A463946304602F025FE05F10800C5B228
:1009E000A946641C00E0641C20780028E3DC48462B
:1009F000BDE8F087C0B7030070B586B00446002696
:100A00002CA207CA03AB07C32046FFF7A9FC0128A5
:100A10002CD101262A4800EBC405601CC0B240F06E
:100A200030008DF81000012000EB4400C1B2022319
:100A3000DA010120FFF7FEFE012000EB4400C1B205
:100A4000002303AA0120FFF7ADFF01200021CDE91B
:100A500000101B4800EBC400C388012000EB4400D9
:100A6000C1B22A46612000F039F920E0012000EBF4
:100A70004400C1B20223DA010120FFF7DBFE601C53
:100A8000C0B240F030008DF81000012000EB4400AF
:100A9000C1B2002303AA0120FFF784FF012000EB6D
:100AA0004400C1B2002307A26120FFF77BFF30465C
:100AB00006B070BD55415254325F46545F49443AC6
:100AC000DC3000204E554C4C000000002DE9FC5F4E
:100AD00005468A4614461F46DDF830B000200190D6
:100AE000814626464CB95B46302251462846FFF7E0
:100AF000F3FE01900198BDE8FC9F0BE0012F01D1AE
:100B0000360902E00A20B6FBF0F609F10109681D7A
:100B1000C5B20195002EF1D1B04630E0681FC5B2D4
:100B2000012F18D104F00F00092809D804F00F0094
:100B300000F130025B4651462846FFF7CDFE08E043
:100B400004F00F003730C2B25B4651462846FFF72B
:100B5000C3FE24090FE00A20B4FBF0F100FB1140B2
:100B600030305B460246514600902846FFF7B4FEFF
:100B70000A20B4FBF0F408F1010000F0FF08C845BA
:100B8000CCD30198B7E72DE9FC5F05468A461446A9
:100B90001F46DDF830B000200190814626464CB952
:100BA0005B46302251462846FFF7DEFE0190019851
:100BB000BDE8FC9F0CE0012F01D1360902E00A20BC
:100BC000B6FBF0F609F1010905F10800C5B201957F
:100BD000002EF0D1B04631E0A5F10800C5B2012FDA
:100BE00018D104F00F00092809D804F00F0000F113
:100BF00030025B4651462846FFF7B6FE08E004F097
:100C00000F003730C2B25B4651462846FFF7ACFEB4
:100C100024090FE00A20B4FBF0F100FB1140303052
:100C20005B460246514600902846FFF79DFE0A208B
:100C3000B4FBF0F408F1010000F0FF08C845CBD385
:100C40000198B5E72DE9F84F0746884691461E46BC
:100C5000DDE90AA4BAF1010F08D101233246414669
:100C600038460094FFF732FF054607E0002332467E
:100C7000414638460094FFF729FF054623464A4679
:100C800041462846FFF746FEBDE8F88F2DE9FC47B0
:100C900004460F4690461D46DDF82890032095FB3C
:100CA000F0F0C6B206B9012607E04B464246394687
:100CB0002046FFF711FE601DC4B2301EA6F10101EF
:100CC000CEB2F2D100902B4603A239460190A1206A
:100CD000FFF7B8FFBDE8FC87250000002DE9F84FBD
:100CE00006460F4690461D46DDE90A9423464246D5
:100CF00039463046FFF756FE8246B9F1010F07D15B
:100D000001232A46394650460094FFF73CFF06E08F
:100D100000232A46394650460094FFF734FFBDE8C9
:100D2000F88F00002DE9F0470646894615469A4699
:100D30000024A04600275DE0285DB0281EDB285D6A
:100D4000F7281BDC601C285CA12817DB285DB03865
:100D50005E2100FB01F7601C285C00F2AD20074417
:100D60007F01534632464946384602F0D5FB06F12C
:100D70001000C6B2B046A01CC4B23BE0285DA1285A
:100D80001DDB285DA3281ADC601C285CA12816DB6B
:100D9000285DA1385E2100FB01F7601C285CA138AA
:100DA00007447F01534632464946384602F0B4FBB9
:100DB00006F11000C6B2B046A01CC4B21AE0285D0D
:100DC000202815DB285D7E2812DC285DA0F1200795
:100DD0003F010B480744534632464946384602F025
:100DE00021FC06F10800C6B2B046601CC4B201E0A6
:100DF000601CC4B2285D00289EDC4046BDE8F08738
:100E000080CF03000121C0EBC002084B99540021A0
:100E1000C0EBC0021A44A2F8031041F27071C0EB9B
:100E2000C0021A44A2F8051070470000C03000202C
:100E3000012100EB4002014B99547047FC30002027
:100E400010B500F039FFB8B9002412E0C4EBC400BB
:100E50000A4908444078012809D10020C4EBC401A4
:100E6000064A114448700120FFF740FC03E0601C73
:100E7000C4B2042CEADB00BF10BD0000C03000206B
:100E800010B50C234FF4807201210846FFF7D2FC05
:100E900000230CA201210846FFF784FD00230EA2C7
:100EA00003210120FFF77EFD00230FA20521012071
:100EB000FFF778FD002311A207210120FFF772FD43
:100EC00010BD00005343393346383433333A34309D
:100ED0003030305043530000323831353230333007
:100EE0002D512D31383239005343393246373332A0
:100EF000302D56322E332D56322E3300435243308E
:100F00005834443838413239452D32303138303355
:100F10003136000008B5022000F0E4FE012829D196
:100F200022480068401C2149086004239A010921D5
:100F30000120FFF77FFC00231DA209210120FFF7FC
:100F4000F1FE0220FFF76CFC00231BA209213120D7
:100F5000FFF7E8FE00231AA20B210120FFF7E2FEB3
:100F600000200346009011480B2102684120FFF742
:100F70000AFE19E0022000F0B5FE012814DD04236A
:100F80009A0109210120FFF755FC002308A209213D
:100F90000120FFF7C7FE0220FFF742FC00230AA250
:100FA00009212120FFF7BEFE08BD0000340000200B
:100FB000D7B4CCAC3A000000D5FDB3A300000000CC
:100FC000C1BCC6B7CAFD3A00D2ECB3A30000000012
:100FD0002DE9F04106460C461546FF270121304613
:100FE00003F0D2FE40B9204603F0C4FEA8B203F0DD
:100FF000D9FE074603F0A2FE3846BDE8F08170B581
:1010000005460C46FF260121284603F0BDFE28B9FF
:1010100003F02CFF206003F091FE0026304670BDE7
:101020002DE9F04107460C4615461E464FF0FF08D5
:101030000221384603F0A8FE48B9284603F09AFE7C
:101040003146204603F018FF804603F077FE404605
:10105000BDE8F08110B516200B490870002088709B
:10106000C8704C20087100204871552088712220DA
:10107000C8714C21044800F03FFE4C220249042074
:1010800002F0F8F810BD0000083100202DE9F04111
:1010900000260027134D2C78E81EB0F80180077851
:1010A00041462846FFF78FFB0646902C08DB9F2C15
:1010B00006DC012E13D13946204600F061F80EE01F
:1010C000802C0CDB8F2C0ADC0748007840F00100F4
:1010D000054908700846007840EA46000870BDE8F7
:1010E000F0810000BD100020290000202DE9F84308
:1010F00007460D464FF00008002400260020287007
:1011000000BF2AE00120334620220C210090FFF787
:10111000BDFD06F11400C6B2164850F8241038463A
:10112000884700B91BE0601CC1B201231A021846AF
:10113000FFF780FB04EB04100F4BC218601CC1B218
:1011400000230120FFF7E6FB0C48B0F80120C11C8A
:10115000042002F08FF8601CC4B2062CD2DB00BF62
:10116000062C02D14FF0010800E02C704046BDE88B
:10117000F88300007C57000884560008BA1000204D
:1011800070B505460C46902D05D1204600F072F84A
:101190001549085525E0912D23D11348005D0328FA
:1011A0001BD1204602F048F9B8B900200E49085575
:1011B0002046FFF77FFB204601F08CFB204600F025
:1011C00023F8012804D10121204601F091FB08E019
:1011D0000221204601F08CFB03E00321204601F0B0
:1011E00087FB012070BD00002A00002070B5044676
:1011F0000E46A4F11000C5B2024850F82510042094
:10120000884770BDAC570008FEB5044688200290A0
:101210000026002500200190134800680090134824
:101220000079029004EB8400C5B205EB8501104AF9
:1012300002EBC10001A9FFF7E2FE88B905EB8501C9
:101240000B4A02EBC100012302A9019AFFF7E8FE55
:1012500038B903226946042002F00CF8012600E0A8
:1012600000263046FEBD0000A8570008BA10002036
:101270003652000818B50446002000901D48005D55
:1012800020B1012815D002282FD11FE01A4800797B
:1012900011280DD12046FFF7CBFD2046FFF7B2FD08
:1012A0001448005D401CC0B2124908550DF80400F6
:1012B0001CE011480079222807D10E48005D401C2F
:1012C000C0B20C4908550DF804000FE00A48007937
:1012D000332809D10748005D401CC0B205490855B4
:1012E0000DF804000020085500E000BF00BF1DF805
:1012F000040018BD2E000020BA10002070B586B082
:1013000004460026002001900290039004901448A7
:1013100000EBC40589208DF8140000208DF815001D
:1013200089208DF81600032205A9204601F0A2FFAE
:101330000D2201A98920FEF761FF01280DD10A21A4
:101340000DF10500FFF73FFA012806D108220DF143
:101350000501284600F07AFB0126304606B070BD34
:10136000DC30002008B50121FC2000F02BFC4FF4FC
:101370007C50ADF8000003208DF8020010208DF89D
:1013800003006946314800F069F84FF47C512F485A
:1013900000F0FAF8B020ADF8000003208DF802004C
:1013A00010208DF803006946294800F057F8B02155
:1013B000274800F0E9F84020ADF8000003208DF840
:1013C000020048208DF803006946214800F046F8E5
:1013D00040211F4800F0D8F84FF40040ADF800005D
:1013E00003208DF8020010208DF80300694619488B
:1013F00000F034F84FF40041164800F0C3F84FF401
:10140000F060ADF8000003208DF8020010208DF888
:1014100003006946104800F021F84FF4F0610E48CF
:1014200000F0B0F84FF44040ADF8000003208DF814
:10143000020048208DF803006946074800F00EF8C6
:101440004FF44041044800F09FF808BD00140140EB
:1014500000080140001C0140001801402DE9F04146
:10146000024600250026002000230024002791F8D2
:1014700003C00CF00F0591F803C00CF0100CBCF188
:10148000000F03D091F802C04CEA050591F800C0A6
:10149000BCF1000F31D0146800202BE04FF0010C9C
:1014A0000CFA00F3B1F800C00CEA03069E4220D10A
:1014B00083004FF00F0C0CFA03F7BC4305FA03FC52
:1014C0004CEA040491F803C0BCF1280F06D14FF098
:1014D000010C0CFA00FCC2F814C00AE091F803C039
:1014E000BCF1480F05D14FF0010C0CFA00FCC2F81A
:1014F00010C0401C0828D1D31460B1F800C0BCF162
:10150000FF0F34DD546800202EE000F1080C4FF08E
:10151000010808FA0CF3B1F800C00CEA03069E4279
:1015200021D183004FF00F0C0CFA03F7BC4305FAEE
:1015300003FC4CEA040491F803C0BCF1280F05D168
:1015400000F1080C08FA0CF8C2F8148091F803C0F6
:10155000BCF1480F07D100F1080C4FF0010808FA60
:101560000CF8C2F81080401C0828CED35460BDE8A7
:10157000F0810246002093680B400BB1012000E08F
:101580000020704741617047016170470AB10161F5
:1015900000E041617047000010B54FF480410848F9
:1015A000FFF7E7FF08B9012010BD4FF400410448E0
:1015B000FFF7DFFF08B90220F6E70020F4E700009C
:1015C0000018014000BFFEE770B501F089FF044636
:1015D000012C0ED10C23020201210846FFF72AF943
:1015E00000F070FB0546002D13DD0120FFF753F9D5
:1015F0000FE0032C09D10C234FF48072012108461F
:10160000FFF718F901F026FA03E0022C01D1FFF7E9
:1016100037FCFFF77FFC70BD2DE9F04104460D4615
:1016200016461F46601EC4B2E81DC5B21521002033
:1016300000F096F82146012000F092F8A019401E13
:10164000C1B2012000F08CF87521002000F088F86C
:101650002946012000F084F8E819401EC1B201209B
:1016600000F07EF83021002000F07AF85C210020A4
:1016700000F076F8BDE8F08110B50C234FF48072CD
:1016800001210846FFF7D6F8002318A201210846D9
:10169000FFF740F9002315A202210120FFF73AF9D4
:1016A000002312A203210120FFF734F900230FA227
:1016B00004210120FFF72EF900230CA205210120AF
:1016C000FFF728F9002309A206210120FFF722F9DC
:1016D000002306A207210120FFF71CF90C234FF479
:1016E000807201210846FFF7A5F810BD3031204D6A
:1016F00059544553545F56302E3120656231326261
:1017000032333920313130303030203030303031E8
:101710000000000070B5044600251BE000200F49C2
:1017200008601420FFF7B2F804F0800020B1012017
:101730000A49091F086003E000200849091F0860E2
:101740000120064908601420FFF7A0F86006040E87
:10175000681CC5B2082DE1DB70BD0000B4812242D7
:1017600070B505460C460020054908600548C0F8DC
:10177000A4512046FFF7CEFF01200149086070BD4B
:10178000AC8122420080224210B500206E490860E0
:101790000120FFF780F801206C49C1F8A801FFF78C
:1017A0007AF830210020FFF7DBFF94210020FFF7BB
:1017B000D7FF31210020FFF7D3FFD7210020FFF70B
:1017C000CFFF9F210120FFF7CBFF32210020FFF741
:1017D000C7FF00210120FFF7C3FF01210846FFF7E3
:1017E000BFFF03210120FFF7BBFF20210020FFF7EF
:1017F000B7FF01210846FFF7B3FF03210120FFF7E0
:10180000AFFF05210120FFF7ABFF07210120FFF704
:10181000A7FF09210120FFF7A3FF0B210120FFF7FC
:101820009FFF0D210120FFF79BFF10210120FFF7F3
:1018300097FF11210120FFF793FF13210120FFF7EC
:101840008FFF15210120FFF78BFF17210120FFF7E4
:1018500087FF19210120FFF783FF1B210120FFF7DC
:101860007FFF1D210120FFF77BFF1F210120FFF7D4
:1018700077FF30210020FFF773FF75210020FFF76D
:101880006FFF00210120FFF76BFF13210120FFF7FD
:1018900067FF15210020FFF763FF00210120FFF7FC
:1018A0005FFFFF210120FFF75BFFBC210020FFF756
:1018B00057FF00210120FFF753FFA6210020FFF76B
:1018C0004FFF0C210020FFF74BFFCA210020FFF73C
:1018D00047FF00210120FFF743FF9F210120FFF771
:1018E0003FFF20210120FFF73BFFF0210020FFF701
:1018F00037FF10210120FFF733FF81210020FFF780
:101900002FFF38210120FFF72BFF03210120FFF7D4
:1019100027FF20210020FFF723FF0B210120FFF7E5
:101920001FFF0120FEF7B7FFAF210020FFF718FFD0
:101930000A20FEF7B0FF0C234FF480720121084605
:10194000FEF778FF10BD0000A881224200802242ED
:1019500010B50446052C37D2DFE804F00309101750
:101960001E00002280211A48FFF710FE2DE0002201
:101970004FF480711648FFF709FE26E000224FF46D
:1019800000711348FFF702FE1FE000224FF4806150
:101990000F48FFF7FBFD18E0002280210C48FFF7FD
:1019A000F5FD00224FF480710948FFF7EFFD00229A
:1019B0004FF400710648FFF7E9FD00224FF4806103
:1019C0000348FFF7E3FD00E000BF00BF10BD0000CB
:1019D0000018014010B50446052C31D2DFE804F0B0
:1019E00003090F151B00012280211748FFF7CEFDC8
:1019F00027E0012211021448FFF7C8FD21E001226F
:101A000051021148FFF7C2FD1BE0012291020E486E
:101A1000FFF7BCFD15E0012280210B48FFF7B6FD62
:101A2000012211020848FFF7B1FD012251020648C8
:101A3000FFF7ACFD012291020348FFF7A7FD00E08C
:101A400000BF00BF10BD00000018014010B503E04A
:101A50000B780370401C491C131EA2F10102F7D140
:101A600010BD00BFFEE7704708B54FF4C06000F03E
:101A70008DF825208DF8000000208DF80100012050
:101A80008DF802008DF80300684600F047F8262024
:101A90008DF8000000208DF8010001208DF8020073
:101AA0008DF80300684600F039F827208DF8000013
:101AB00000208DF8010001208DF802008DF8030050
:101AC000684600F02BF834208DF8000000208DF8D7
:101AD000010001208DF802008DF80300684600F037
:101AE0001DF835208DF8000000208DF80100012040
:101AF0008DF802008DF80300684600F00FF81C20F6
:101B00008DF8000000208DF8010001208DF8020002
:101B10008DF80300684600F001F808BD70B500219B
:101B200000230F22C47804B3154C246804F4E06445
:101B3000C4F5E064210AC1F10403CA40447804FA00
:101B400003F184781440214309010E4C0678A15515
:101B5000047804F01F050124AC4005786D11AD0038
:101B600005F1E025C5F8004109E0047804F01F05FF
:101B70000124AC40044D0678761145F8264070BD2E
:101B80000CED00E000E400E080E100E002490143E8
:101B9000024A1160704700000000FA050CED00E0F9
:101BA0007047000029B1064AD2690243044BDA614A
:101BB00004E0034AD2698243014BDA6170470000B6
:101BC0000010024029B1064A92690243044B9A610F
:101BD00004E0034A92698243014B9A617047000016
:101BE0000010024030B500210022002400232D4DBA
:101BF0006D6805F00C0121B1042905D0082923D115
:101C000005E0294D056022E0274D05601FE0254DC8
:101C10006D6805F47012022505EB9242214D6D6846
:101C200005F480341CB9214D554305600BE01D4D72
:101C30006D6805F400351DB11C4D5543056002E08B
:101C4000194D5543056002E0174D056000BF00BF08
:101C5000144D6D6805F0F0010909154D6B5C0568C0
:101C6000DD4045600F4D6D6805F4E061090A104DD7
:101C70006B5C4568DD4085600A4D6D6805F4605118
:101C8000C90A0B4D6B5C4568DD40C560054D6D684C
:101C900005F44041890B074D6B5CC568B5FBF3F556
:101CA000056130BD0010024000127A0000093D00BD
:101CB0003F0000204F0000200148007870470000DE
:101CC0002400002070B50025002407E02046FEF720
:101CD00093FEA0402843C5B2601CC4B2042CF5DBBF
:101CE000284670BD014601EB4100024A104480784D
:101CF00070470000FC30002070B505460C460026F9
:101D0000A11E2846FEF752FD0646310AA01E2954A0
:101D1000601E2E5470BD2DE9F047ADF5095D0646F5
:101D20000122314642F21800684402F073F98246FB
:101D30000DF50050476A00210291039104914FEA8A
:101D40001738C7F30B09B8F1000F2DD0002429E094
:101D500042F214036B444FF4805205A9181D02F09F
:101D60004BFA8246002518E005A8405D552803D1AE
:101D70000498401C04900EE005A8405DAA2803D1F9
:101D80000398401C039006E005A8405D882802D116
:101D90000298401C0290681C85B2B5F5805FE3DBB9
:101DA000601C84B24445D3D342F214036B444A46C8
:101DB00005A9181D02F020FA824642F21800684474
:101DC00002F02AF88246002418E005A8005D552894
:101DD00003D10498401C04900EE005A8005DAA28D9
:101DE00003D10398401C039006E005A8005D8828F5
:101DF00002D10298401C0290601C84B24C45E4D38E
:101E00000DF5095DBDE8F0877FB504460025FF2686
:101E10004FF480513E48FFF7B5FBFF2200210A2016
:101E200000F06CFB002000F0C1F998B9FE2000F032
:101E3000BDF940B900BF04E000F008FB0DF8050053
:101E40006D1C102DF8D3FF2000F0C8FBFF2000F020
:101E5000C5FB00264FF480512D48FFF795FBFF206E
:101E600000F0BCFB9DF8000020709DF8010000020E
:101E7000608060889DF80210084360809DF8030030
:101E80000006606060689DF8041040EA01406060F0
:101E900060689DF8051040EA0120606060689DF868
:101EA0000610084360609DF8070020729DF8080046
:101EB00060729DF809000006E060E0689DF80A1075
:101EC00040EA0140E060E0689DF80B1040EA012024
:101ED000E060E0689DF80C100843E060207C9DF80D
:101EE0000D1040EA111020749DF80D000007000D40
:101EF0006082608A9DF80E10084360829DF80F0092
:101F00004008207501206075304604B070BD0000A7
:101F1000000C01407FB504460025FF264FF4805198
:101F20007E48FFF72FFBFF220021092000F0E6FA90
:101F3000002000F03BF998B9FE2000F037F940B9D5
:101F400000BF04E000F082FA0DF805006D1C102DB2
:101F5000F8D3FF2000F042FBFF2000F03FFB0026FB
:101F60004FF480516D48FFF70FFBFF2000F036FB68
:101F70009DF80000800920709DF80000C0F38300E8
:101F800060709DF8000000F00300A0709DF8010053
:101F9000E0709DF8020020719DF8030060719DF8CB
:101FA00004000001E080E0889DF8051040EA11106F
:101FB000E0809DF8050000F00F0020729DF80600FB
:101FC000C00960729DF80600C0F38010A0729DF8F1
:101FD0000600C0F34010E0729DF80600C0F3001048
:101FE0002073002060739DF806008007000D2061BB
:101FF00020699DF8071040EA8100206120699DF862
:10200000081040EA911020619DF80800C0F3C2005A
:1020100020759DF8080000F0070060759DF8090024
:102020004009A0759DF80900C0F38200E0759DF895
:1020300009008007400F2076207E9DF80A1040EAB4
:10204000D11020769DF80A00C0F3801060769DF8CC
:102050000A008006400EA076A07E9DF80B1040EA94
:10206000D110A0769DF80B0000F07F00E0769DF87F
:102070000C00C00920779DF80C00C0F34110607778
:102080009DF80C00C0F38200A0779DF80C0080073B
:10209000000FE077E07F9DF80D1040EA9110E077A7
:1020A0009DF80D00C0F3401084F82000002084F853
:1020B00021009DF80D0000F0010084F822009DF839
:1020C0000E00C00984F823009DF80E00C0F38010B4
:1020D00084F824009DF80E00C0F3401084F8250019
:1020E0009DF80E00C0F3001084F826009DF80E0045
:1020F000C0F3810084F827009DF80E0000F0030073
:1021000084F828009DF80F00400884F82900012079
:1021100084F82A00304604B070BD0000000C014075
:1021200070B50446FF252046FFF7F4FE054604F18E
:102130002C00FFF769FE05462069401C6064217E83
:10214000606C891C01228A4050436064217A01201E
:102150008840A064D4E9110148436064284670BDFA
:1021600070B5002518E000F071F9044604F01F0472
:10217000052C04D00B2C04D00D2C06D103E0052631
:1021800005E00B2070BD0D20FCE7FF2600BF00BF5F
:10219000052E00D102E06D1C402DE4D900BF00BF28
:1021A00000F054F90028FBD02046EBE770B5064656
:1021B00040F6FF7400BF00F049F90546641EB542C1
:1021C00001D0002CF7D10CB9FF2070BD0020FCE736
:1021D00000B593B06846FFF7A3FF1198400A13B00B
:1021E00000BD000038B54FF480515848FFF7CAF9D8
:1021F00095220021084600F081F90120FFF7D6FF63
:1022000008B1FF2038BD00BF4FF480514F48FFF7A1
:10221000BBF9FF2000F0E2F94FF480514B48FFF783
:10222000B1F987224FF4D571082000F067F9012039
:10223000FFF7BCFF0028E7D1002406E0FF2000F0F4
:10224000CDF90DF80400601CC4B2042CF6DB9DF837
:10225000020001286DD19DF80300AA2869D100BFB2
:102260004FF480513948FFF78FF9FF2000F0B6F99D
:102270004FF480513548FFF785F900BF00F061F950
:102280000028FBD101220021372000F037F900BFE0
:102290000120FFF78BFF0028FAD14FF480512B4823
:1022A000FFF772F9FF2000F099F94FF480512748A9
:1022B000FFF768F900BF00F044F90028FBD10122C4
:1022C0009107292000F01AF90020FFF76FFF00287E
:1022D000C6D14FF480511D48FFF756F9FF2000F09A
:1022E0007DF94FF480511948FFF74CF900BF00F019
:1022F00028F90028FBD1012200213A2000F0FEF845
:1023000000BF0020FFF752FF0028FAD1002406E0AA
:10231000FF2000F063F90DF80400601CC4B2042C27
:10232000F6DB9DF8000000F0400008B1062500E053
:1023300004254FF480510548FFF726F9FF2000F0EF
:102340004DF900F0D1F800205CE70000000C0140DE
:1023500010B5002400F012F84FF480510648FFF742
:1023600013F900BF03E0FF2000F038F9641C092CCA
:10237000F9D9FFF737FF10BD000C014008B5012166
:102380000820FFF71FFC01218803FFF70BFC4FF427
:102390006040ADF8000018208DF8030003208DF890
:1023A000020069460C48FFF759F84FF48050ADF829
:1023B000000010208DF8030069460748FFF74EF82B
:1023C0004FF480510448FFF7DFF800F092F8012144
:1023D000024800F085F908BD000C014000380040BB
:1023E0002DE9F04104460F46154600264FF0FF0840
:1023F0004FF480511448FFF7C5F8FF2239461120E9
:1024000000F07CF80020FFF7D1FE90B9FE20FFF726
:10241000CDFE70B900BF04E000F018F82070641C15
:10242000761CAE42F8D300F011F800F00FF84FF030
:1024300000084FF480510448FFF7A6F8FF2000F091
:10244000CDF84046BDE8F081000C014010B5FF20FA
:1024500000F052F910BD00002DE9F04704460D468A
:1024600016461F464FF00008C1464FF0FF0A4FF4D2
:1024700080511C48FFF786F826E005EB0901FF2292
:10248000112000F03BF80020FFF790FE10B1FF2074
:10249000BDE8F087FE20FFF789FE98B94FF00008ED
:1024A00005E0FFF7D3FF2070641C08F10108B04578
:1024B000F7D309F50079FFF7C9FFFFF7C7FF4FF022
:1024C000000A01E04FF0FF0A381EA7F10107D4D13E
:1024D0004FF480510348FFF757F8FF2000F07EF8D3
:1024E0005046D5E7000C014010B5002000F0CAF8B6
:1024F00010BD10B5382000F0C5F810BD2DE9FC4125
:1025000006460C461746002546F040008DF80000B0
:10251000200E8DF80100200C8DF80200200A8DF8A5
:102520000300E0B28DF804008DF8057000BF04E0F0
:102530001DF8050000F052F86D1C062DF8D3BDE81B
:10254000FC8110B5002400BFFF2000F047F8FF28F1
:1025500001D1002010BD641C6FF07F408442F3D392
:102560000120F7E72DE9F04104460F461546002605
:102570004FF0FF084FF480511748FFF703F8FF2290
:1025800039461820FFF7BAFF0020FFF70FFEC0B949
:10259000FF2000F023F8FE2000F020F800BF04E048
:1025A000207800F01BF8641C761CAE42F8D3FFF7CD
:1025B0004DFFFFF74BFFFFF7D3FD052801D14FF08B
:1025C00000084FF480510448FEF7DEFFFF2000F0C2
:1025D00005F84046BDE8F081000C014010B5044606
:1025E000204600F089F810BD2DE9F04704460D465D
:1025F00016461F464FF00008C1464FF0FF0A4FF441
:1026000080511F48FEF7BEFF2CE005EB0901FF22B9
:102610001820FFF773FF0020FFF7C8FD10B1FF205F
:10262000BDE8F087FF20FFF7D9FFFE20FFF7D6FFB8
:102630004FF0000805E02078FFF7D0FF641C08F198
:102640000108B045F7D309F50079FFF7FFFEFFF762
:10265000FDFEFFF785FD052802D14FF0000A01E0DD
:102660004FF0FF0A381EA7F10107CED14FF4805179
:102670000348FEF789FFFF20FFF7B0FF5046CFE782
:10268000000C014010B586B004460021134800F04C
:1026900027F80020ADF804004FF48270ADF8060072
:1026A0000020ADF80800ADF80A00ADF80C004FF4BA
:1026B0000070ADF80E00ADF810400020ADF812002B
:1026C0000720ADF8140001A9044800F03FF80121EB
:1026D000024800F005F806B010BD000000380040C8
:1026E00021B1028842F04002028004E002884FF6E5
:1026F000BF731A400280704710B5044600BF022124
:102700000A4800F015F80028F9D02146074800F0E3
:102710001BF800BF0121054800F00AF80028F9D095
:10272000024800F00EF8C0B210BD000000380040B2
:102730000246002013890B400BB1012000E000206D
:1027400070470146888970478181704710B5002223
:10275000028802F441520B884C8823438C8823431F
:10276000CC8823430C8923434C8923438C892343FE
:10277000CC8923431A430280838B4FF2FF7423409A
:1027800083830B8A038210BD10B50146002000220E
:1027900020E00023114C236001F0800323B10123CA
:1027A0000E4C0834236003E000230C4C08342360F3
:1027B0004B06190E0123094C23604306180E084BE3
:1027C000D3F818310BB140F001000023034C236013
:1027D000531CDAB2082ADCDB10BD00009401214250
:1027E00000002142704710B500F002F810BD000053
:1027F0000CB50020019000903448006840F480300F
:102800003249086000BF3148006800F40030009091
:102810000198401C0190009818B90198B0F5A06F7C
:10282000F1D12A48006800F4003010B10120009076
:1028300001E0002000900098012844D1244800685D
:1028400040F01000224908600846006820F00300AC
:1028500008600846006840F0020008601B484068B5
:102860001A4948600846406848600846406840F495
:10287000806048600846406820F47C104860084644
:10288000406840F4E81048600846006840F08070F6
:10289000086000BF0D48006800F000700028F9D003
:1028A0000A48406820F0030008494860084640682C
:1028B00040F00200486000BF0448406800F00C008F
:1028C0000828F9D101E000BFFEE70CBD001002406E
:1028D00000200240002100EB4002044B99540121EA
:1028E00000EB40021A44517070470000FC30002099
:1028F00000EB4002014B1A4491707047FC300020FD
:1029000010B500F021F8FFF7AFF800F0E1F8FEF79E
:1029100029FD4FF4E13000F01DFB0420FFF75AF8C9
:10292000FEF732FF0120FDF7E1FE00BF02F010FAD2
:102930000028FBD10420FFF70BF8FEF79DFE0520D1
:1029400000F02CFC10BD704710B51048006840F036
:1029500001000E490860084640680D4908400B49CF
:102960004860084600680B49084008490860084666
:10297000006820F4802008600846406820F4FE00CB
:10298000486000208860FFF72EFF10BD0010024055
:102990000000FFF8FFFFF6FE10B50221480700F027
:1029A00021F860B106480078401C05490870FDF721
:1029B0007FFE00F04BFD0221480700F004F810BD37
:1029C000380000207047CA430282704721B1028854
:1029D00042F00102028004E0028840F2FE331A4015
:1029E0000280704730B50246002000230024158A7B
:1029F00005EA0103958905EA010413B10CB1012030
:102A000000E0002030BD1AB183890B43838102E0CE
:102A100083898B4383817047028802F08F02028092
:102A2000CA884B881A4303881A4302808A888285A1
:102A30000A880285054A904202D0054A904201D197
:102A40000A7A02860122828270470000002C01402F
:102A50000034014008B569460220FEF747FBC0B9C3
:102A60000223DA010A210120FDF7E4FE00230FA270
:102A70000A210120FEF756F91048B0F80120C11CC8
:102A8000042000F0F7FB03226946042000F0F2FB6B
:102A90000BE00223DA010A210120FDF7CBFE00231F
:102AA00007A20A210120FEF73DF908BD4654B3CC28
:102AB000D0F2B8FCD0C2CAA7B0DC2100BA10002006
:102AC0004654B3CCD0F2B8FCD0C2B3C9B9A62100E9
:102AD0000EB501210846FFF765F80720ADF80000A4
:102AE0000020ADF802004AF6C870ADF804000020DE
:102AF000ADF8060069464FF08040FFF78DFF0122D8
:102B000002214807FFF77FFF02214807FFF75BFF1D
:102B100001218807FFF75AFF0EBD000010B586B0EF
:102B2000044601210846FFF74DF801218803FFF70D
:102B300049F84FF40070ADF8140018208DF8170014
:102B400003208DF8160005A91848FEF787FC4FF4FE
:102B50008060ADF8140004208DF8170005A9134813
:102B6000FEF77CFC01940020ADF80800ADF80A00E7
:102B7000ADF80C00ADF810000C20ADF80E0001A966
:102B80000B4800F001FC012240F22441084800F00B
:102B9000DBFB012240F22551054800F0D5FB002166
:102BA000034800F096FB06B010BD0000000801408D
:102BB0000038014010B586B0044601214804FEF7F4
:102BC000F1FF0420ADF8140018208DF81700032041
:102BD0008DF8160005A91848FEF740FC0820ADF84E
:102BE000140004208DF8170005A91348FEF736FCE1
:102BF00001940020ADF80800ADF80A00ADF80C0013
:102C0000ADF810000C20ADF80E0001A90B4800F043
:102C1000BBFB012240F22441084800F095FB012251
:102C200040F22551054800F08FFB0021034800F0D9
:102C300050FB06B010BD00000008014000440040F9
:102C400010B586B0044601218804FEF7ABFF4FF4AF
:102C50008060ADF8140018208DF8170003208DF85F
:102C6000160005A91848FEF7F9FB4FF40060ADF80F
:102C7000140004208DF8170005A91348FEF7EEFB99
:102C800001940020ADF80800ADF80A00ADF80C0082
:102C9000ADF810000C20ADF80E0001A90B4800F0B3
:102CA00073FB012240F22441084800F04DFB012251
:102CB00040F22551054800F047FB0021034800F091
:102CC00008FB06B010BD0000000C014000480040A9
:102CD00010B54021014800F0EFFA10BD004C004053
:102CE00010B586B004460121C804FEF75BFF4FF41F
:102CF0008060ADF8140018208DF8170003208DF8BF
:102D0000160005A91848FEF7A9FB4FF40060ADF8BE
:102D1000140004208DF8170005A91348FEF79EFB48
:102D200001940020ADF80800ADF80A00ADF80C00E1
:102D3000ADF810000C20ADF80E0001A90B4800F012
:102D400023FB012240F22441084800F0FDFA012251
:102D500040F22551054800F0F7FA0021034800F041
:102D6000B8FA06B010BD000000100140004C004051
:102D700010B540F22551174800F0C0FA90B140F26A
:102D80002551144800F09BFA124800F04BFBC1B2E9
:102D90001148124A1288815410480088401C0F497B
:102DA000088016E010210B4800F09FFA88B109480E
:102DB00000880848001D0088084800880649C91E88
:102DC000A1F8010003200870002004490880FEF7E4
:102DD0005DF910BD004C0040BD1000200600002031
:102DE00070B50446E1B2094800F021FB002507E078
:102DF0004021064800F079FA00B105E0681C85B270
:102E000040F6B8308542F3DB00BF70BD004C004097
:102E100010B54021014800F04FFA10BD00500040AD
:102E200010B586B0044601210805FEF7BBFE4FF43D
:102E30008050ADF8140018208DF8170003208DF88D
:102E4000160005A91748FEF709FB0420ADF8140089
:102E50008DF8170005A91448FEF700FB0194002027
:102E6000ADF80800ADF80A00ADF80C00ADF81000A0
:102E70000C20ADF80E0001A90C4800F085FA0122E3
:102E800040F22441094800F05FFA012240F2255146
:102E9000064800F059FA0021044800F01AFA06B07A
:102EA00010BD00000010014000140140005000401F
:102EB00010B540F22551184800F020FA90B140F2C8
:102EC0002551154800F0FBF9134800F0ABFAC1B2E8
:102ED0001248134A1288815411480088401C104936
:102EE000088017E010210C4800F0FFF990B10A4863
:102EF0000088094880880A4800880849C91EA1F846
:102F0000010004210548801FC17000200449088089
:102F100000F0CEFA10BD000000500040C02000209C
:102F20000800002070B50446E1B2094800F07FFABD
:102F3000002507E04021064800F0D7F900B105E080
:102F4000681C85B240F6B8308542F3DB00BF70BD27
:102F50000050004010B504462046FFF7DFFD204634
:102F6000FFF728FE2046FFF76BFE2046FFF7B8FE6E
:102F70002046FFF755FF10BD02E0435C4A1C835416
:102F80000A1EA1F10101F8D17047000010B54021DF
:102F9000014800F091F910BD0038014010B540F231
:102FA0002551174800F0AAF990B140F22551144874
:102FB00000F085F9124800F035FAC1B21148124A02
:102FC0001288815410480088401C0F49088015E081
:102FD00010210B4800F089F980B1094800880848A1
:102FE000001D0088084800880649C91EA1F8010094
:102FF0000020087004490880FEF748F810BD000062
:1030000000380140BD1000200000002070B50446CB
:10301000E1B2094800F00BFA002507E0402106481C
:1030200000F063F900B105E0681C85B240F6B830E5
:103030008542F3DB00BF70BD0038014010B5402170
:10304000014800F039F910BD0044004010B540F2CD
:103050002551174800F052F990B140F2255114481B
:1030600000F02DF9124800F0DDF9C1B21148124A02
:103070001288815410480088401C0F49088016E0CF
:1030800010210B4800F031F988B109480088084840
:10309000001D0088084800880649C91EA1F80100E3
:1030A00001200870002004490880FDF7EFFF10BDE3
:1030B00000440040BD1000200200002070B504460E
:1030C000E1B2094800F0B3F9002507E040210648C5
:1030D00000F00BF900B105E0681C85B240F6B8308D
:1030E0008542F3DB00BF70BD0044004010B54021B5
:1030F000014800F0E1F810BD0048004010B540F272
:103100002551174800F0FAF890B140F225511448C3
:1031100000F0D5F8124800F085F9C1B21148124A02
:103120001288815410480088401C0F49088016E01E
:1031300010210B4800F0D9F888B1094800880848E8
:10314000001D0088084800880649C91EA1F8010032
:1031500002200870002004490880FDF797FF10BD89
:1031600000480040BD1000200400002070B5044657
:10317000E1B2094800F05BF9002507E0402106486C
:1031800000F0B3F800B105E0681C85B240F6B83035
:103190008542F3DB00BF70BD0048004010B5044617
:1031A000062C5AD2DFE804F0030C151E273001214B
:1031B0002B4800F08EF84021294800F07DF84DE0C2
:1031C0000121284800F085F84021264800F074F8D5
:1031D00044E00121244800F07CF84021224800F01E
:1031E0006BF83BE00121214800F073F840211F48B3
:1031F00000F062F832E001211D4800F06AF8402139
:103200001B4800F059F829E00121154800F061F849
:103210004021134800F050F80121124800F059F8FD
:103220004021104800F048F801210F4800F051F803
:1032300040210D4800F040F801210C4800F049F809
:1032400040210A4800F038F80121094800F041F80F
:103250004021074800F030F800E000BF00BF10BD7B
:10326000003801400044004000480040004C00404D
:10327000005000402DE9F04104460D461646002757
:1032800031462846FEF738FD094951F824008047A9
:1032900007E03A467B1C9FB2A85C064A52F824100D
:1032A0008847301EA6F10106F3D1BDE8F081000089
:1032B000705600085C560008CA430280704710B57B
:1032C000002200230A1201249440A3B2DC430480AC
:1032D00010BD21B1828942F40052828104E08289CA
:1032E0004DF6FF731A408281704702460020138812
:1032F0000B400BB1012000E00020704770B5024682
:103300000B460024002100250020C3F3421503F0E2
:103310001F01012606FA01F1012D02D196893140E3
:1033200006E0022D02D1168A314001E0968A314032
:103330001C12012606FA04F41688344011B10CB1AF
:10334000012000E0002070BDF0B5034600240026F7
:10335000002500201846C1F3421401F01F06012782
:1033600007FA06F5012C01D10C3004E0022C01D142
:10337000103000E014301AB107682F43076002E0F4
:103380000768AF430760F0BD2DE9F04786B00546FA
:103390000E460024A24600BF00BF00272F462C8AFD
:1033A0004CF6FF700440F08804432C82AC894EF642
:1033B000F3100440B08831890843718908430443FD
:1033C000AC81AC8A4FF6FF400440B0890443AC8224
:1033D00001A8FEF707FC1248874202D1DDF810A0D1
:1033E00001E0DDF80CA00AEBCA0000EB0A1031681E
:1033F0008900B0FBF1F86420B8FBF0F0040120096B
:10340000642101FB1089322000EB0910B0FBF1F0C0
:1034100000F00F0004432C8106B0BDE8F0870000E7
:103420000038014001468888C0F308007047C1F3A6
:1034300008028280704770470146C1EBC100024A12
:103440001044807870470000C0300020002028E041
:10345000C0EBC001144A515C012920D1C0EBC0016E
:103460001144B1F80310491C89B2C0EBC0020E4BE5
:103470001A44A2F80310C0EBC0021A44B2F80520A7
:1034800091420CDB0021C0EBC00299540121C0EB3A
:10349000C0021A445170C0EBC0021A449170411C22
:1034A000C8B20428D4DB7047C030002000BFFEE75C
:1034B00070B50026094C25782B2D02D12046FDF74A
:1034C0004FF90648C01EB0F801102046FDF77BF901
:1034D000064631462846FDF789FE70BDC020002013
:1034E00070B500250B480078022810DB0020094940
:1034F000087001F0FDFA0446D12C01D1012506E047
:10350000D22C01D1022502E0B12C00D1032528469E
:1035100070BD0000380000202DE9F04704468A46BF
:1035200016461F4600201F4908600320FFF72CF9AC
:10353000C4F30740FFF728F9C4F30720FFF724F985
:10354000E0B2FFF721F90223102251463046FEF780
:1035500063F84FF000091DE04FF0000813E0FF2072
:10356000FFF712F90546012F05D1E843C1B201204A
:10357000FEF7F6F803E029460120FEF7F1F808F11E
:10358000010000F0FF08B8F1100FE8DB09F10100BD
:1035900000F0FF09B9F1020FDEDB012001490860EC
:1035A000BDE8F087900121422DE9F04704468946A5
:1035B00016461F4600201A4908600320FFF7E4F86A
:1035C000C4F30740FFF7E0F8C4F30720FFF7DCF887
:1035D000E0B2FFF7D9F80223052249463046FEF74C
:1035E0001BF84FF0000813E0FF20FFF7CDF8054669
:1035F000012F05D1E843C1B20120FEF7B1F803E085
:1036000029460120FEF7ACF808F1010000F0FF08A0
:10361000B8F1050FE8DB012001490860BDE8F0873B
:10362000900121422DE9F04704468A4616461F467E
:1036300000201F4908600320FFF7A6F8C4F30740E5
:10364000FFF7A2F8C4F30720FFF79EF8E0B2FFF7F8
:103650009BF80223082251463046FDF7DDFF4FF06C
:1036600000091DE04FF0000813E0FF20FFF78CF881
:103670000546012F05D1E843C1B20120FEF770F8DD
:1036800003E029460120FEF76BF808F1010000F085
:10369000FF08B8F1080FE8DB09F1010000F0FF09AD
:1036A000B9F1020FDEDB012001490860BDE8F087B7
:1036B0009001214202E008C8121F08C1002AFAD175
:1036C00070477047002001E001C1121F002AFBD1A2
:1036D0007047000070B504460D460020E070401EA3
:1036E000E0622946204601F0D9FB08B1042070BDF4
:1036F00004F22E2001F085FA4AF65521884201D0C5
:103700000320F4E794F83000E92807D094F830005B
:10371000EB2803D094F83000E82811D1032209A146
:1037200004F1660001F07BFA08B90020DFE705220A
:1037300005A104F1820001F072FA08B90020D6E771
:103740000220D4E746415400464154333200000081
:10375000024600E0521C107810B110788842F9D16E
:10376000107870470246891E5069801E884201D831
:10377000002070475389906A03FB0100F9E72DE9A7
:10378000F04782468846DAF80040B8F1000F06D1CB
:10379000E76817B16069B84215D8012713E04146C0
:1037A000504601F00CF90546022D02D20120BDE879
:1037B000F087681C08B92846F9E76069A84201D972
:1037C0002846F4E74746206908B90020EFE70026BD
:1037D000474518D17E1C6069B04200D802263146A8
:1037E000504601F0ECF80546012D01D0681C08B9DF
:1037F0002846DCE73DB1E568022D03D36069A842A5
:1038000000D92F460026E6B93E4600BF761C606907
:10381000B04204D80226BE4201D90020C7E7314693
:10382000504601F0CCF8054605B909E0012D01D05C
:10383000681C08B92846BAE7BE42E7D10020B6E7BF
:1038400000BF4FF0FF323146204601F05BFB81465E
:10385000B9F1000F08D1B8F1000F05D0324641464A
:10386000204601F04FFB8146B9F1000F0DD1E66013
:10387000D4E90410801E814202D82069401E2061D4
:10388000207940F00100207107E0B9F1010F02D169
:103890004FF0FF3000E001200646304687E7000089
:1038A0002DE9F35F8946D9F80080009800F12005E2
:1038B0000B222021284601F037FA00200746064651
:1038C0004FF0080B00BF3046761C18F80040202C43
:1038D00000DC4AE02F2C01D05C2C0AD100E0761CE1
:1038E00018F806002F28FAD018F806005C28F6D041
:1038F0003BE02E2C01D05F450BD3BBF10B0F01D069
:103900002E2C02D00620BDE8FC9F08274FF00B0BA1
:10391000D9E7204600F046F8A8B13046761C18F8E2
:1039200000A0504600F058F818B1ABF10100B842C1
:1039300001D80620E7E738467F1C2C5438467F1C08
:1039400005F800A010E0214612A0FFF701FF08B122
:103950000620D8E7612C04DB7A2C02DCA4F12000DD
:10396000C4B238467F1C2C54ADE700BF08EB0600FC
:10397000C9F800000FB90620C5E72878E52801D16D
:1039800005202870202C01DC042000E00020E872D3
:103990000020B8E7222A2B2C3A3B3C3D3E3F5B5DA2
:1039A0007C7F000001460B48007888420FDC094804
:1039B0004078884201DB01207047064880788842C1
:1039C00005DC0448C078884201DB0120F4E70020D0
:1039D000F2E70000D45700080146104800798842F9
:1039E00019DC0E484079884201DB012070470B4802
:1039F0008079884205DC0948C079884201DB0120D2
:103A0000F4E70648007A884205DC0448407A884298
:103A100001DB0120EAE70020E8E70000D4570008B6
:103A20002DE9F04104460E46D4F8008000212046DE
:103A300000F00DF90546EDB9002700BF4046A16929
:103A400001F02CFA054605B113E0E0690078E5289D
:103A500002D0E069007820B9781C0746B04201D155
:103A600007E000270121204600F070F80546002DF0
:103A7000E4D000BF042D00D107252846BDE8F08121
:103A80002DE9F04704468946204601F091FB10B12C
:103A90000120BDE8F08749462046FFF763FE064651
:103AA000E6624FF40072002104F1300001F03CF9AD
:103AB00004F130080127002500E03D446089A84258
:103AC00007D9721960783B46414600F059F9002841
:103AD000F3D06089A84201D00120DAE70020D8E7BE
:103AE0002DE9F041044627680021204600F0AFF898
:103AF000054615B12846BDE8F08100BF3846A169EA
:103B000001F0CCF9054605B11DE0E06906780EB973
:103B1000042518E0E069C07A00F03F00A071E06978
:103B2000C07A00F0080038B90B2204F12001E069E6
:103B300001F075F800B906E00021204600F006F813
:103B40000546002DDAD000BF2846D4E72DE9F04124
:103B5000044688462768206900F12006A06910B154
:103B6000B6F5001F02D30420BDE8F081C6F30800BB
:103B7000002845D1A069401CA061606938B9388926
:103B8000B0EB561F3CD80020A0610420ECE77889F8
:103B9000401E00EA562098BB2046616900F00FFFE6
:103BA0000546012D01D80220DEE7681C08B9012076
:103BB000DAE77869A8421DD8B8F1000F03D10020D8
:103BC000A0610420D0E720466169FFF7D8FD0546D3
:103BD0000DB90720C8E7012D01D10220C4E7681CF8
:103BE00008B90120C0E729463846FFF749FF08B168
:103BF0000120B9E7656129463846FFF7B3FDA061AA
:103C00002661C6F3080107F130000844E061002096
:103C1000AAE770B50446266801212046FFF700FF99
:103C2000054695B93046A16901F038F9054665B9F0
:103C300020220021E06901F077F80B2204F1200135
:103C4000E06900F0FEFF0120F070284670BD2DE90C
:103C5000F04104460D462668B5F5001F02D205F076
:103C60001F0010B10220BDE8F0812561A7681FB9CF
:103C70003078032800DB776A47B93089B0EB551FED
:103C800001D80220EFE7706AA0611CE070894FEA5A
:103C9000402811E03946204600F091FE0746781C86
:103CA00008B90120DFE7022F02D37069B84201D8BA
:103CB0000220D8E7A5EB08054545EBD2394630464A
:103CC000FFF750FDA0616761A06908B90220CAE74B
:103CD000A06900EB5520A061C5F3080106F1300092
:103CE0000844E0610020BEE770B505460DB1012033
:103CF00070BDFEF72DFB04460CB10120F8E7002053
:103D0000F6E72DE9F04107460E46154636B1012E7D
:103D10000FD0022E04D0032E10D106E000240FE0B5
:103D20004FF40070286000240AE00120286000247D
:103D300006E0FEF74DFA2860002401E0042400BFED
:103D400000BF2046BDE8F0812DE9F04107460C4652
:103D500015461E46012E07D933464FF400722946F8
:103D60002046FEF779FB05E04FF400722946204615
:103D7000FEF736FB0020BDE8F081014600207047C9
:103D80002DE9F04107460C4615461E46012E07D97F
:103D900033464FF4007229462046FEF725FC05E025
:103DA0004FF4007229462046FEF7DCFB0020BDE8F8
:103DB000F081000010B54FF40C7001F089F8124941
:103DC00008604FF40A7001F083F8104908604FF45E
:103DD0000A7001F07DF80E4908604FF4007001F0A0
:103DE00077F80C4908600848006850B10748006837
:103DF00038B10748006820B10846006808B10020C3
:103E000010BD0120FCE700000C0000201000002085
:103E1000140000202000002038B50546284600F098
:103E2000B9FA04463CB96946284601F0E6F9044669
:103E30000CB900202860204638BD2DE9F84F044613
:103E40000E466946204601F0D8F98246BAF1000FC5
:103E500001D194F811A0BAF1000F02D05046BDE88C
:103E6000F88FE068B04204D2207C00F0020000B974
:103E7000E668D4F814904FF00008C4F81480002EBF
:103E800068D0009840894702B9F1000F11D0701E28
:103E9000B0FBF7F1A9F10100B0FBF7F0814208D3C4
:103EA000A9F10100791E884360616069361AA5692D
:103EB00012E0A5687DB900212046FFF760FC0546A9
:103EC000012D02D102206074C9E7681C10B90120DD
:103ED0006074C4E7A560A561002D3BD024E0F61B0B
:103EE000606938446061207C00F0020040B100BF8E
:103EF00029462046FFF743FC054635B9002615E064
:103F00002946204600F05BFD0546681C10B90120DB
:103F10006074A4E7012D03D900984069A84202D833
:103F2000022060749BE7A561BE42D8D800BF6069DB
:103F300030446061C6F3080060B129460098FFF77D
:103F400011FC8046B8F1000F02D10220607486E7B0
:103F500008EB5628E1686069884205D96069E0602D
:103F6000207C40F040002074A08AC0F3080020B3F9
:103F7000E069404521D0207C00F0800078B1E26902
:103F800000994878012304F12801FFF7F9FE10B1E8
:103F90000120607463E7207C00F07F0020740099AA
:103FA00048780123424604F12801FFF7CDFE10B105
:103FB0000120607453E7C4F81C8050464FE70000AE
:103FC000F7B582B016460398019001A800F069FD8C
:103FD0000546002D02DA0B2005B0F0BD0C4850F864
:103FE00025400CB100202070029810B100200299E9
:103FF00008700749029841F825000EB90020EBE748
:10400000002202A903A800F005FB07463846E3E7B3
:10401000680000202DE9F74F8EB0044616461CB903
:10402000092011B0BDE8F08F06F03F06324602A924
:104030000FA800F0EFFA0546002D7DD102980390FD
:1040400003A80F9900F06CFC05462DB99DF83700C8
:1040500000F0800000B1062506F01C00002850D0BA
:1040600045B1042D03D103A8FFF7D3FD054646F063
:1040700008060AE09DF8120000F0110008B10725BB
:1040800003E006F0040000B10825002D4AD106F037
:104090000800002846D00A99029800F093FD814656
:1040A00000F0FDFC00900A9901F10E00009901F06A
:1040B00024F820200A99C87200220A99029801F077
:1040C0000AF80A9901F11C00002101F016F80120FC
:1040D0000299C870B9F1000F24D00298C06A01900B
:1040E0000022494603A800F0A9FF0546D5B9DDE93D
:1040F000011000F0D3FE0546A9F101000299C86045
:1041000010E07DB99DF8120000F0100008B1042500
:1041100008E006F0020028B19DF8120000F001004E
:1041200000B107255DB906F0080008B146F0400669
:104130000298C06A206200E04BE00A986062002D9D
:1041400055D10A99029800F03DFDA0600A9901F14D
:104150001C0000F04AFDE060029820600298C088D0
:10416000A080267400206074E06160614FF40072EA
:10417000002104F1280000F0D7FD06F0200040B334
:10418000E06830B3E0686061029840894FEA402AF5
:10419000A768D4F80C800CE03946204600F00FFCEC
:1041A0000746012F00D80225781C00B90125A8EB8D
:1041B0000A080DB9D045EFD8A76155B9C8F3080072
:1041C00038B139460298FFF7CDFAB0F1000B01D1B2
:1041D00002250CE00BEB5820E061E2690299487877
:1041E000012304F12801FFF7AFFD00B101250DB156
:1041F00000202060284614E72DE9FF4F85B00446D3
:1042000015469A46DDF818B00020CAF8000003A948
:10421000204600F0F2FF0490049810B9607C0490EE
:1042200018B1049809B0BDE8F08F207C00F00100BF
:1042300008B90720F6E76169E068401A0190019823
:10424000854200D9019DA0E0A08AC0F308000028A3
:104250007ED103984089401E616900EA5129B9F175
:10426000000F17D1606910B9A068029004E02046E1
:10427000A16900F0A4FB02900298022802D2022059
:104280006074CFE70298401C10B901206074C9E740
:104290000298A061A1690398FFF764FA064616B96F
:1042A00002206074BEE74E444FEA5528B8F1000F73
:1042B00029D009EB080003994989884203D903985A
:1042C0004089A0EB0908039948784346324659468D
:1042D000FFF73AFD10B101206074A3E7207C00F0E5
:1042E000800068B1E069801B404509D2E169891B03
:1042F0000BEB41204FF4007204F1280100F0A1FC07
:104300004FEA482737E0E069B04220D0207C00F037
:10431000800078B1E26903994878012304F128010B
:10432000FFF72EFD10B1012060747BE7207C00F0C8
:104330007F002074039948780123324604F1280154
:10434000FFF702FD18B1012060746BE700E0E66141
:10435000A08AC0F30800C0F50077AF4200D92F460D
:10436000A08AC0F3080204F1280011183A46584602
:1043700000F067FC00BFED1BDAF800003844CAF813
:104380000000BB44606938446061002D7FF45CAF7D
:10439000002047E7F8B504466946204600F02DFFA7
:1043A0000646002E44D1207C00F0400000283FD07B
:1043B000207C00F0800070B1E26900994878012308
:1043C00004F12801FFF7DCFC08B10120F8BD207CD6
:1043D00000F07F00207400F062FB0746216A00981D
:1043E00000F05CFD06461EBB656AE87A40F02000DE
:1043F000E8722946A268206800F06DFE05F11C00F5
:10440000E16800F07AFE394605F1160000F075FE0D
:10441000002105F1120000F07CFE01200099C87017
:10442000009800F07DFE0646207C00F0BF0020745E
:104430003046CBE72DE9FF4F83B0044615469B4637
:10444000049800900020CBF8000001A9204600F05D
:10445000D4FE0290029810B9607C029018B10298C4
:1044600007B0BDE8F08F207C00F0020008B90720FB
:10447000F6E700BF606928446169884202D260693A
:10448000C0F1FF35BBE0A08AC0F30800002875D159
:1044900001984089401E616900EA512ABAF1000F73
:1044A0001ED1606938B9A76857B900212046FFF7C7
:1044B00066F9074604E02046A169FFF760F9074660
:1044C00007B99FE0012F02D102206074C8E7781C71
:1044D00010B901206074C3E7A761A06800B9A760A4
:1044E000207C00F0800078B1E269019948780123CE
:1044F00004F12801FFF744FC10B101206074AFE71C
:10450000207C00F07F002074A1690198FFF72AF950
:10451000064616B902206074A2E756444FEA5529B0
:10452000B9F1000F2BD00AEB0900019949898842A3
:1045300003D901984089A0EB0A09019948784B46B4
:1045400032460099FFF71CFC10B10120607487E728
:10455000E069801B48450ED2E069801B009A02EB9F
:1045600040214FF4007204F1280000F06AFB207C27
:1045700000F07F0020744FEA49282BE013E0E06947
:10458000B0420FD0E168606988420BD20199487847
:104590000123324604F12801FFF7D6FB10B10120B8
:1045A00060745DE7E661A08AC0F30800C0F500789A
:1045B000A84500D9A846A18AC1F3080204F1280140
:1045C00050184246009900F03CFB207C40F08000EF
:1045D000207400BFA5EB0805DBF800004044CBF8D1
:1045E0000000009840440090606940446061E168C8
:1045F0006069884201D9606900E0E068E060002DF0
:104600007FF441AF00BF207C40F0400020740020C8
:1046100026E700002DE9F74F8AB000210B980160D2
:104620000A9800F03EFA08900898002803DA0B2058
:104630000DB0BDE8F08FB549089851F820400CB98D
:104640000C20F5E70B9804600C9800F0FE000C902D
:10465000207878B16078FFF790FB814609F001007F
:1046600040B90C9820B109F0040008B10A20DFE736
:104670000020DDE700202070089860706078FFF768
:1046800033FB814609F0010008B10320D0E70C9804
:1046900020B109F0040008B10A20C9E70027394613
:1046A0002046FFF717F80546022D01D02EDA2DE03F
:1046B000002614E04FF4DF7000EB061104F1300027
:1046C000084409900998007920B10998083000F051
:1046D0008CFA00E0002002A941F82600761C042E86
:1046E000E8D3002606B1761E00BF02A850F8267057
:1046F00027B139462046FEF7EDFF00E003200546CE
:10470000022D03DB701C06460428EED3042D01D1D4
:1047100001208DE7022D01DB0D2089E704F13B002C
:1047200000F06FFAB0F5007F01D00D2080E704F1B2
:10473000460000F066FA8046B8F1000F04D104F19B
:10474000540000F052FA8046C4F818804020005D02
:10475000A070A078012804D0A078022801D00D20F4
:1047600066E7A07808FB00F83D20005D6081608965
:1047700018B16089411E084008B10D2058E704F1C6
:10478000410000F03EFA2081207A00F00F0008B1CD
:104790000D204DE704F1430000F033FA8346BBF1EE
:1047A000000F04D104F1500000F01FFA834604F119
:1047B0003E0000F026FA0190019808B90D2037E775
:1047C00001984044218900EB111007900798834518
:1047D00001D20D202CE70798ABEB00006189B0FBFC
:1047E000F1FABAF1000F01D10D2021E70025484868
:1047F000824500D803254FF6F570824500D8022582
:1048000040F6F570824500D801250DB90D200FE75F
:104810000AF102006061E76101983844206207985C
:104820003844A062032D13D104F15A0000F0E9F9D5
:1048300008B10D20FCE6208908B10D20F8E604F14E
:104840005C0000F0D2F9606260698000069014E0BC
:10485000208908B90D20EBE6206A40446062022DF1
:1048600002D16069400007E0207D00F0010061692D
:1048700001EB410100EB51000690A169069800F29E
:10488000FF10B1EB502F01D20D20D1E64FF0FF30D9
:104890002061E06080202071032D2CD104F16000A4
:1048A00000F0AFF9012826D1791C204600F0F6FA75
:1048B00008BB0020207104F22E2000F0A2F94AF675
:1048C0005521884217D104F1300000F08EF91149CA
:1048D000884210D104F5057000F087F90E4988422E
:1048E00009D104F5067000F080F9206104F5077025
:1048F00000F07BF9E060257008480088401C80B219
:1049000006490880E080002092E600006800002050
:10491000F5FFFF0F52526141727241616C0000203D
:104920002DE9F3410446276802E00198401C0190FC
:10493000019800782F28F8D0019800785C28F4D0EE
:104940000020A06001980078202808D280212B2028
:10495000015500212046FFF77AF905462CE000BFFB
:1049600001A92046FEF79CFF054605B123E020463D
:10497000FFF7B6F805462B20065D3DB1042D04D1A6
:1049800000BF06F0040000B9052514E006F004009D
:1049900000B110E0A07900F0100008B905250AE088
:1049A000208AC0F3080207F130001118384600F0E1
:1049B00009F9A060D4E700BF2846BDE8FC812DE9D5
:1049C000F04781460C46D9F80050022C02D36869A2
:1049D000A04202D84FF001085EE04FF0FF3828787F
:1049E000012804D002282CD0032851D13CE02646CF
:1049F00006EB5606286A00EB5621284600F04EFAD0
:104A000000B148E03046761CC0F3080105F13000E3
:104A1000475C286A00EB5621284600F03FFA00B1B7
:104A200039E0C6F3080105F13000405C47EA002791
:104A300004F0010008B1380901E0C7F30B0080461B
:104A400029E0286A00EB1421284600F027FA00B17B
:104A500021E040F2FF1101EA440205F13001501853
:104A600000F0CFF8804616E0286A00EBD411284603
:104A700000F014FA00B10EE040F2FF1101EA8402E6
:104A800005F13001501800F0B0F820F0704802E055
:104A90004FF0010800BF00BF4046BDE8F08700208E
:104AA000704770B504464FF0FF30266831463246F5
:104AB00001B970BD00BF12F8013B212B01D33A2B85
:104AC000F9D13A2B11D101250E78302E08DB0E7862
:104AD000392E05DC8E1C964202D10E78A6F13005E7
:104AE000012D01DA28462260E3E7002000BFE0E75D
:104AF00070B500240025FCF74FFD04462D480078D2
:104B000020B1012809D0022850D116E024B101209B
:104B1000284908702848047049E0274800788442F2
:104B200007D10220234908702348007840F0A005EF
:104B300002E000201F49087039E07CB900201D49BF
:104B400008701E4908801E48007818B91A48007875
:104B500040F0D00500201A49087028E01648007877
:104B6000844222D115480088401C1449088014480A
:104B7000007801280AD108460088052806DD0020B3
:104B8000088044F0C0050C48047010E00B48008811
:104B900064280ADD01200A490870002007490880BE
:104BA0000548007840F0B00501E000BF00BF00BF3D
:104BB000284670BD390000203A0000203C0000204B
:104BC0003E00002070B505460C4604F11A0000F0C6
:104BD00018F806462878032805D104F1140000F0DF
:104BE00010F846EA0046304670BD0146C8788A781B
:104BF00042EA00204A7842EA00200A7842EA00208D
:104C00007047014648780A7842EA00207047FDF76D
:104C100077FE03E0FCF7D8FCFCF712F9FAE7F0B5F1
:104C200003461D460C46002000BF15F8017B14F812
:104C300001CBA7EB0C00561E321E01D00028F4D089
:104C4000F0BD30B503460C463AB100BF14F8015B25
:104C500003F8015B551E2A1EF8D130BD00B5094985
:104C60004FF48072C868002100F042F905494FF402
:104C700080528868002100F03BF901200149087446
:104C800000BD0000540000202DE9F041064600243C
:104C9000A0461A48007C10B91849086880471EB918
:104CA0004FF0FF30BDE8F081C6F34F1506F01F004E
:104CB00008B1681C85B27F241AE01048C06830F83B
:104CC000140020B908F101001FFA80F801E04FF04C
:104CD0000008A8450BD1002705E00848C068E11985
:104CE00020F811507F1CAF42F7D36001DAE7641E51
:104CF000002CE2DA4FF0FF30D4E70000540000202F
:104D00000022002106E00748C06830F8110000B119
:104D1000521C491C8029F6D364205043C0F3C710AD
:104D2000704700005400002010B5034600BF03F890
:104D3000011B541E221EFAD110BD000010B50348FD
:104D40000068FFF769F8002010BD00001000002087
:104D500010B5FF24FFF72EF804490122086804A1CA
:104D6000FFF72EF90446204610BD00000C0000207D
:104D7000303A000010B50446214602480068FFF7AB
:104D80005CF810BD1000002070B504460D462A46A0
:104D9000214603480068FFF73DF90646304670BDDE
:104DA000100000202DE9F047044600270026B146F8
:104DB00021E02A4B4FF40072294801682948006815
:104DC000FFF71AFA074607B11BE0002507E0244861
:104DD0000068405DA919244A5054681C85B21F48D8
:104DE00000688542F3D31D480088304486B209F13B
:104DF00001001FFA80F9E11704EBD151B9EB612FE3
:104E0000D7DB00BFE11704EBD1514912A4EB4121DC
:104E100009B3A046E01704EBD0504012A4EB4022A7
:104E20000E4B0F4801680F480068FFF7E5F9074689
:104E30008FB9002507E00A480068405DA9190A4AB1
:104E40005054681C85B2054800688542F3D3034876
:104E50000088304486B23846BDE8F087180000204C
:104E60002000002010000020B4000020014800684D
:104E7000C06870471000002070B504460D46054B11
:104E80002A46214604480068FFF7D4FA0646304611
:104E900070BD00001C0000201000002070B504460A
:104EA0000D460026E06AA84210D0204600F080F9A6
:104EB00006465EB9607801232A4604F13001FEF708
:104EC00043FF10B14FF0FF350126E562304670BD5B
:104ED00070B505462846FFF7D7FE0446601C08B9A2
:104EE000002070BD014880682044FAE7540000208B
:104EF00030B5034601E003F8011B141EA2F10102C4
:104F0000F9D130BD2DE9F04704460D4616464FF065
:104F10000209022D74D36069A84271D92078012852
:104F200004D0022849D003280DD15EE02F4607EBBC
:104F30005707206A00EB57212046FFF7AFFF814655
:104F4000B9F1000F00D075E038467F1CC0F30801AE
:104F500004F1300001EB000805F0010028B1F1B2C6
:104F600098F8000061F31F1000E0304688F8000058
:104F70000120E070206A00EB57212046FFF78EFFEA
:104F80008146B9F1000F00D054E0C7F3080104F1E5
:104F9000300001EB000805F0010010B1C6F3071066
:104FA00006E098F8000000F0F000C6F30321084383
:104FB00088F800000120E0703CE0206A00EB152139
:104FC0002046FFF76BFF8146B9F1000F00D031E0BA
:104FD000B1B240F2FF1202EA450304F13002981820
:104FE00000F097F80120E07024E0206A00EBD51172
:104FF0002046FFF753FF8146B9F1000F01D019E0B9
:1050000019E040F2FF1101EA850204F13001501865
:10501000FFF7EBFD66F31B00064640F2FF1101EAC5
:10502000850204F130015018314600F066F8012085
:10503000E07000BF00BF4846BDE8F0872DE9F047AB
:1050400081460E4617464FF00008D9F80040022E60
:1050500002D36069B04202D80220BDE8F08767B190
:1050600000BF4FF0FF3239462046FFF74BFF804626
:10507000B8F1000F01D04046EFE700BF3146484687
:10508000FFF79DFC054605B922E0012D01D1022064
:10509000E3E7681C08B90120DFE70022314620461B
:1050A000FFF730FF8046B8F1000F01D04046D4E74B
:1050B000D4E90410801E814206D22069401C206180
:1050C000207940F0010020712E466069B042D5D8A9
:1050D00000BF0020C1E770B506460C461546A9B2D0
:1050E00004F11A0000F015F83078032804D1290CD7
:1050F00004F1140000F00DF870BD00F8011B090A5E
:1051000000F8011B090A00F8011B090A00F8011B3D
:10511000704700F8011B091200F8011B70470000DE
:1051200070B50446204600F043F80546002D38D1FE
:10513000207803282ED1207901282BD1420200218A
:1051400004F13000FFF7F0FD4AF6552104F22E205D
:10515000FFF7DFFF144904F13000FFF7CEFF1349DA
:1051600004F50570FFF7C9FF04F506702169FFF724
:10517000C4FF04F50770E168FFF7BFFFE069401C5A
:10518000E0626078012304F13001E26AFEF7F8FD85
:1051900000202071607800221146FEF7B2FD00B1B8
:1051A0000125284670BD0000525261417272416172
:1051B00070B504460025E078E8B16078012304F179
:1051C0003001E26AFEF7DCFDA0B90020E070216A40
:1051D000E06A401AA16988420DD2A07802280AD15B
:1051E000A369E16ACA186078012304F13001FEF76F
:1051F000C7FD00E00125284670BD70B504460D4688
:1052000009268CB1206878B12068007860B1A08848
:105210002168C988884207D121684878FEF7ADFD2A
:1052200000F0010000B900260EB9206800E000205F
:105230002860304670BD303A42414E4B302F464CCC
:1052400041472E7478740000000000000000000048
:105250000000000000000000000000000000303AE4
:1052600042414E4B302F42494E2E7478740000005C
:10527000000000000000000000000000000000002E
:10528000000000000000303A42414E4B302F4346B0
:10529000472E747874000000000000000000000039
:1052A0000000000000000000000000000000303A94
:1052B00042414E4B302F43464742414B2E74787447
:1052C00000000000000000000000000000000000DE
:1052D000000000000000303A42414E4B302F4F5446
:1052E0004845522E74787400000000000000000051
:1052F0000000000000000000000000000000303A44
:1053000042414E4B312F464C41472E747874000079
:10531000000000000000000000000000000000008D
:10532000000000000000303A42414E4B312F42490C
:105330004E2E747874000000000000000000000091
:105340000000000000000000000000000000303AF3
:1053500042414E4B312F4346472E74787400000073
:10536000000000000000000000000000000000003D
:10537000000000000000303A42414E4B312F4346BE
:105380004742414B2E74787400000000000000007A
:105390000000000000000000000000000000303AA3
:1053A00042414E4B312F4F544845522E7478740071
:1053B00000000000000000000000000000000000ED
:1053C000000000000000303A42414E4B322F464C64
:1053D00041472E74787400000000000000000000B7
:1053E0000000000000000000000000000000303A53
:1053F00042414E4B322F42494E2E747874000000C9
:10540000000000000000000000000000000000009C
:10541000000000000000303A42414E4B322F43461C
:10542000472E7478740000000000000000000000A7
:105430000000000000000000000000000000303A02
:1054400042414E4B322F43464742414B2E747874B3
:10545000000000000000000000000000000000004C
:10546000000000000000303A42414E4B322F4F54B2
:105470004845522E747874000000000000000000BF
:105480000000000000000000000000000000303AB2
:1054900042414E4B332F464C41472E7478740000E6
:1054A00000000000000000000000000000000000FC
:1054B000000000000000303A42414E4B332F424979
:1054C0004E2E747874000000000000000000000000
:1054D0000000000000000000000000000000303A62
:1054E00042414E4B332F4346472E747874000000E0
:1054F00000000000000000000000000000000000AC
:10550000000000000000303A42414E4B332F43462A
:105510004742414B2E7478740000000000000000E8
:105520000000000000000000000000000000303A11
:1055300042414E4B332F4F544845522E74787400DD
:10554000000000000000000000000000000000005B
:10555000000000000000303A505542414E4B2F46AB
:10556000544150502E747874000000000000000078
:105570000000000000000000000000000000303AC1
:10558000505542414E4B2F43524150502E74787427
:10559000000000000000000000000000000000000B
:1055A000000000000000303A505542414E4B2F465B
:1055B000544346472E747874000000000000000039
:1055C0000000000000000000000000000000303A71
:1055D000505542414E4B2F43524346472E747874E8
:1055E00000000000000000000000000000000000BB
:1055F000000000000000303A42414E4B30000000F5
:1056000000000000000000000000303A42414E4B14
:105610003100000000000000000000000000303AEF
:1056200042414E4B3200000000000000000000002C
:105630000000303A42414E4B3300000000000000B1
:10564000000000000000303A505542414E4B00002F
:105650000000000000000000000000000D30000805
:10566000BD3000086D310008E12D0008252F00082D
:105670008D2F00083D300008ED300008D12C0008C7
:10568000112E0008526561645374617475733A2079
:10569000504153530052657365744961703A20203C
:1056A00020504153530053656E644366673A20208F
:1056B000202050415353004C6F6164436F64653A3E
:1056C0002020205041535300557064617461436F32
:1056D00064653A20504153530052657365744170BC
:1056E000703A202020504153530052656164537436
:1056F000617475733A2045525200005265736574A7
:105700004961703A202020455252000053656E6472
:105710004366673A2020202045525200004C6F61BA
:1057200064436F64653A2020204552520000557052
:1057300064617461436F64653A20455252000052BF
:10574000657365744170703A202020455252000004
:105750007512000809120008000000000000000097
:105760000000000000000000000000000000000039
:10577000000000000000000000000000C10300085D
:10578000210400085704000865050008910300087B
:10579000F10300080000000000000000000000000D
:1057A000000000000000000088000000FD1200085A
:1057B00000000000000000000000000000000000E9
:1057C0000000000051070008000000000000000079
:1057D00000000000819FE0FC407E80FC00002B2E3A
:1057E0002C3B3D5B5D2F5C222A3A3C3E3F7C7F0098
:1057F0000100040010004000000100020000010050
:105800000200040008001000200000002C580008CE
:105810000000002070000000B43600089C5800080A
:1058200070000020A8550000C436000800000000E9
:105830000000000000000000000000000000000068
:105840000000000000000000000000000000000058
:105850000000000000000000000000000000000048
:105860000000000000000000000000000000000137
:1058700002030401020304060708090204060800E3
:105880005D4C0008014D000808410020085100202F
:0C5890000000000000000000000000000C
:0400000508000131BD
:00000001FF
