:020000040800F2
:10500000980900200151000861800008C97A000851
:105010005D8000082153000801BF00080000000067
:10502000000000000000000000000000FD8F0008EC
:10503000C55D000800000000C5820008D99B00087B
:1050400017510008175100081751000817510008A0
:105050001751000817510008175100081751000890
:105060001751000817510008175100081751000880
:105070001751000817510008175100081751000870
:105080001751000817510008175100081751000860
:10509000D5B700081751000817510008175100082C
:1050A0001751000817510008175100081751000840
:1050B0002D9C0008B59C00081751000817510008E6
:1050C0001751000817510008175100081751000820
:1050D0001751000817510008175100081751000810
:1050E000175100081751000817510008DFF80CD0BD
:1050F00000F03AF800480047B9C2000898090020BB
:1051000005480047FEE7FEE7FEE7FEE7FEE7FEE7AD
:10511000FEE7FEE7FEE7FEE7ED50000840EA010388
:105120009B0703D009E008C9121F08C0042AFAD25D
:1051300003E011F8013B00F8013B521EF9D2704721
:10514000D2B201E000F8012B491EFBD270470022C9
:10515000F6E710B504460846114602462046FFF71A
:10516000EFFF204610BD0000064C074D06E0E0684A
:1051700040F0010394E8070098471034AC42F6D39E
:10518000FFF7B8FFA0CC0008C0CC000870B501EB59
:10519000020410F8015B15F0070301D110F8013B80
:1051A0002A1106D110F8012B03E010F8016B01F869
:1051B000016B5B1EF9D12B0705D40023521E0FD4BF
:1051C00001F8013BFAE710F8013B02F10202A1EB02
:1051D000030303E013F8015B01F8015B521EF9D5EC
:1051E000A142D6D3002070BD2DE9F041012740F245
:1051F000F7150A204649C1F856000846D0F856006F
:10520000C0F3C7363D2E00DD0027C6F13E00C6B212
:10521000002101EBC63003F02BFC3E4803F0E2FD19
:105220004FF4FE1003F0DEFD3B4803F0DBFD384891
:10523000D0F85600394908703548D0F85600000AB1
:1052400048703348D0F85600000C88703048D0F8C9
:105250005600000EC8700020C8718871487108712E
:10526000002409E02D48015D024604F108001154B4
:1052700008301154601CC4B2082CF3DB18222549F5
:10528000264803F03FFC00240AE02249601803F09E
:10529000CDFC2249095D884200D00027601CC4B2C1
:1052A000182CF2DB1D490D70281248708D702812E1
:1052B000C8700D712812487106224FF4FE1117486C
:1052C00003F020FC00240AE004F5FE1003F0AEFC1D
:1052D0001249095D884200D00027601CC4B2062C28
:1052E000F2DB06220C490D4803F00CFC00240AE016
:1052F0000949601803F09AFC0849095D884200D00A
:105300000027601CC4B2062CF2DB3846BDE8F081F1
:105310007602002000D01F0000B01F0074010020A2
:1053200000BFFEE70146CAB20B1243EA02207047F3
:1053300010B5002476E147F6FF70C0490860C04808
:10534000008800F00F00BF49087008460078F0BBE5
:10535000BD48006800F44050BC490880BC48D0F803
:10536000000C00F03000BB490880B749096889B2D9
:105370004BF68F7201EA020080F40050B449C1F884
:10538000000CB149096889B248F6BF7201EA02000F
:1053900080F02000AE49C1F8000CA948008810F048
:1053A000100F3DD1A848006880B248F60F7100EA9E
:1053B0000100A749C1F8000C02F088FBA249096866
:1053C00089B24BF68F7201EA0200A04900E0E9E0E1
:1053D000098811F4805F01D080F480509B490988CE
:1053E00011F4005F01D080F400509749086098499B
:1053F000D1F8001C89B248F6BF7201EA0200954953
:10540000098811F0100F01D080F01000914909882F
:1054100011F0200F01D080F020008B49086010BDF2
:105420008948006884B214F0800F3BD08648006839
:1054300080B248F60F7100EA01008549C1F8000CFE
:1054400002F044FB8049096889B24BF68F7201EA89
:1054500002007E49098811F4805F01D080F48050F9
:105460007A49098811F4005F01D080F40050764930
:1054700008607749D1F8001C89B248F6BF7201EA8A
:1054800002007449098811F0100F01D080F010005B
:105490007049098811F0200F01D080F020006A497E
:1054A0000860BCE714F4006F3CD067480068C0F3A4
:1054B0000E0048F68F7100EA01006549C1F8000C42
:1054C00004F086F86049096889B24BF68F7201EAE8
:1054D00002005E49098811F4805F01D080F4805099
:1054E0005A49098811F4005F01D080F400505649F0
:1054F00008605749D1F8001C89B248F6BF7201EA2A
:1055000002005449098811F0100F01D080F01000FA
:105510005049098811F0200F01D080F020004A493D
:1055200008607CE714F4004F7CD047480068C0F363
:105530000E0048F68F7100EA01004549C1F8000CE1
:1055400002F086FE4049096889B24BF68F7201EA83
:1055500002003E49098811F4805F01D080F4805038
:105560003A49098811F4005F01D080F400503649AF
:1055700008603749D1F8001C89B248F6BF7201EAC9
:1055800002003449098811F0100F01D080F010009A
:105590003049098811F0200F01D080F020002A49FD
:1055A00008603CE727480078294901EB8000D0F8E3
:1055B000000C84B214F4004F18D02248007801EB9C
:1055C0008000D0F8000CC0F30E0048F68F71084040
:1055D0001C4909781E4A02EB8101C1F8000C1949E7
:1055E0000978491E1C4A52F82100804714F0800FA8
:1055F00018D014480078164901EB8000D0F8000C50
:1056000080B248F60F7108400E490978104A02EB43
:105610008101C1F8000C0B490978491E0F4A52F864
:10562000210080470548006880B20549088010F4D1
:10563000004F7FF480AE00BFF1E60000445C004004
:105640007000002014020020005C004028020020AE
:10565000005000402A0200205400002038000020A2
:105660000C4901EB8001D1F8001C11F4804F0FD0E0
:10567000084901EB8001D1F8001C89B248F68F720D
:10568000114041F48041034A02EB8002C2F8001C41
:1056900070470000005000400C4901EB8001D1F838
:1056A000001C11F0400F0FD0084901EB8001D1F828
:1056B000001C89B248F68F72114041F04001034A44
:1056C00002EB8002C2F8001C70470000005000404E
:1056D000074901EB8001D1F8001C89B248F68F62BE
:1056E0001140034A02EB8002C2F8001C7047000020
:1056F00000500040F0B5034601201C460D4604E072
:10570000A65CAF5CBE4200D000201600A2F10107EB
:10571000FAB2F5D1F0BD000070B504460025062CA4
:1057200018D118480068007800F07F00012811D1D6
:1057300014480068407968B91248006880782228C7
:1057400001D1114D10E00F480068807821280BD15D
:105750000E4D09E00B480068007800F07F0021281A
:1057600002D1032C00D10A4D0DB9022070BD0548AD
:105770000068856100210348006841820020A84735
:105780000020F3E718020020ED570008BD5700087D
:10579000D157000810B504460249204604F036F8F7
:1057A00010BD0000D400002010B504460249204678
:1057B00004F02CF810BD0000CC00002010B5044609
:1057C0000249204604F022F810BD0000E400002049
:1057D000014629B90120034A12681082002070474F
:1057E0000148FCE7180200200C01002010B5044617
:1057F0000249204604F00AF810BD0000DC00002039
:1058000070B5054606480068C478042C01DD002008
:1058100070BD044800EBC401284603F0F7FFF7E72A
:1058200018020020EC0000200246002901DD0220C1
:105830007047002A01DD0220FAE70020F8E70000A7
:1058400000B5024606480068007800F07F00212875
:1058500004D10B2A02D100F07BF800BD0220FCE746
:105860001802002010B500202A49096888722949C9
:105870000968C8722848C07926490968487200201A
:1058800003F014FD4FF40071002003F0FFFD102120
:10589000002003F0C7FD1821002003F035FD58213A
:1058A000002003F09FFD0020FFF712FF1B4890F837
:1058B0002C10002003F03AFD002003F07DFD4FF492
:1058C000C061012003F0E2FD9821012003F01CFDDE
:1058D0002121012003F02AFD4FF44051012003F063
:1058E0004DFD4FF4C061022003F0D0FD4FF48C71E8
:1058F000022003F077FD2121022003F083FD202107
:10590000022003F08FFD012005490860002003F00C
:10591000D5FC10BD18020020C2C30008780000208A
:105920001001002010B505480068807A20B10520DC
:105930000349086002F002F910BD000018020020BF
:105940001001002004200149086070471001002068
:1059500003480068C17803480160002070470000D8
:10596000180200200C0100207047704710B502F0AB
:1059700083F800200A490968887202F0C9FC0020F7
:10598000084908604FF43F400749088008460088EE
:105990000649C1F8400C4FF000000549086010BDF1
:1059A00018020020445C0040220200200050004009
:1059B000100100202DE9F0472948006800F110058A
:1059C0002E8827480068077AEEB9042F1BD1254896
:1059D0000078012812D100212348006880B200F12C
:1059E0000200224A42F810104FF03000204908808F
:1059F00000BF4FF000001B49087003E0072710208C
:105A00001B49088027E0AC88A64201D8042000E0AA
:105A100002200746B44200D93446A0B2A96888479C
:105A20008046002002F008F88146A2B201464046B6
:105A300006F068FAA1B2002003F0E4FC2888001BFD
:105A40002880688820446880302009490880000246
:105A50000849088000BF024909680F72BDE8F08755
:105A6000180200200E020020505C00400060004040
:105A70002A020020280200202DE9F0412948006870
:105A800000F110042688A068C0B1BEB1A588B54257
:105A900000D93546A8B2A168884707462088401B30
:105AA0002080608828446080002001F0B3FF804699
:105AB000AAB20146384602F0F3FB00BF208850B17D
:105AC0004FF44050184908800021084603F09AFC22
:105AD0003020164908802088A188884204DB0320F2
:105AE0001049096808721AE02088002804DD0520A2
:105AF0000C490968087212E0208880B9062009491B
:105B00000968087200210A48006880B200F10200AA
:105B1000084A42F810104FF0300004490880BDE8F0
:105B2000F081000018020020280200202A02002034
:105B3000505C0040006000402DE9F05F984800682C
:105B400045780027BA46062D1AD195480068007896
:105B500010F07F0F13D1924909688878012803D18A
:105B600090490968CF690AE0022803D18D49096884
:105B70000F6A04E0032802D18A4909684F6A91E05C
:105B8000F5BB874800684088D0BB85480068C0885E
:105B9000022859D182480068007988BB8048006893
:105BA000007810F07F0F05D17D480068808808B923
:105BB0007D4F77E07A480068007800F07F00012888
:105BC0000ED1774909684879764909688A690021C0
:105BD0009047C0BB72480068807AA0B3724F61E002
:105BE0006F480068007800F07F0002285AD16C48A6
:105BF0000068407900F00F0669480068407900E0CD
:105C000022E000F0700966480068407910F0800FCB
:105C100007D0664800EB8600D0F8000C00F0300892
:105C200006E0624800EB8600D0F8000C00F4405813
:105C30005F480078B04235D9B9F1000F32D1B8F1E0
:105C4000000F2FD0584F2DE0082D07D15448006881
:105C5000007810F07F0F25D1564F23E00A2D21D177
:105C60004F480068007800F07F0001281AD14C48A6
:105C70000068807AB0B14A480068408890B94848C6
:105C80000068007970B946480068C088012809D1C9
:105C9000434909684879434909688A69002190475E
:105CA00000B9454F57B13E480068A0F812A03C48E3
:105CB000006887610020B84700240FE0384A126866
:105CC0005078384A1268116988470446032C05D178
:105CD0000920334909680872BDE8F09F3048006820
:105CE000008AA0F57F41FF3904D109202C490968B9
:105CF0000872F1E7022C03D029480068008A20B915
:105D00000820274909680872E6E7254800680078F6
:105D100010F0800F3BD022480068B0F806B0204851
:105D20000068008A584504D91D490968A1F810B0D7
:105D300023E01B480068008A19490968C98888421D
:105D40001BDA17480068008A1649096891F82C1078
:105D5000884203DA0020194908700EE010480068F4
:105D6000008A1049096891F82C1090FBF1F201FBB0
:105D7000120010B90120114908700A48006890F813
:105D80002C10074800688182FFF714FE06E003200C
:105D900003490968087200030949088000BF9BE7AE
:105DA000180200201C0200205D98000800500040EE
:105DB00074000020E1970008319800080E020020CE
:105DC00028020020704700E0401E0028FCD17047E8
:105DD000002001E000BF401CB0F5487FFAD37047B7
:105DE000002001E000BF401C4D28FBD3704700217C
:105DF00007E0002201E000BF521C632AFBD34B1CCA
:105E0000D9B28142F5DB704710B50246002308E0A5
:105E1000002403E0FFF7DCFF601CC4B20A2CF9DBAE
:105E20005B1C9342F4D310BD014606E042F6F82015
:105E300001E0421E90B20028FBD10A00A1F101034B
:105E400099B2F3D17047000008B5002000901948BE
:105E5000007850B96A462121174805F0EDFC40B39F
:105E600005F0BCFC0020009023E0124800783128A7
:105E70000AD16A465B21114805F0DEFCC8B100205A
:105E80000C490870009014E00A4800781A2810D1D4
:105E90006A465B21094805F0CFFC50B10020054956
:105EA00008700748007805F02BFF064908700020AD
:105EB000009008BD26000020550200207602002038
:105EC0002700002031000020704700002DE9F0413C
:105ED0000546884600260027002400202049087037
:105EE0000520FFF7A1FF00BF06F02AF906F05EF9D2
:105EF000062003F020FE042D03D1082003F03AFE13
:105F000002E00C2003F036FE0C2003F033FE0C20E0
:105F100003F0ECFD06F0D0F806F02EF9FFF760FF75
:105F200003F020FF84B2A4F549403F3801D010307F
:105F300001D1142601E0701CC6B2142ED4DB04F08B
:105F4000D3FE03F00FFF84B2A4F549403F3801D0DF
:105F5000103002D104F077FE01273846BDE8F08109
:105F60001801002010B503200249086001F0E6FD89
:105F700010BD00001001002000B5082003F0DBFD7B
:105F8000FFF72EFFFFF72CFFFFF72AFFFFF728FF91
:105F9000FFF726FFFFF724FFFFF722FFFFF720FFA1
:105FA000FFF71EFFFFF71CFF06F0B6F806F092F8A9
:105FB00000BD000010B504460848C078012807D18C
:105FC00000200649C8707721204603F059F903E004
:105FD0008821204603F054F910BD00003401002050
:105FE00010B50120FFF720FF10BD000070B5054679
:105FF000002007490870284602F0A6FF04462CB985
:106000000348007840F0400001490870204670BD08
:106010003100002070B50446A4F1D000C5B2034899
:1060200050F825102046884770BD000038C8000889
:1060300070B58CB0064600200A900B900690079031
:10604000089009900290039004900590002547481D
:106050004078012826D10AA948554448401CD0F868
:10606000010006A921F815004048401CB0F80500C1
:1060700002A921F81500681CC5B205F007053C48C7
:106080000078012834D13B48C07888BB394948782A
:1060900004F0CCFB3749888804F014FAFF20354916
:1060A000C87025E03148407810BB3148007801289D
:1060B0000CD101232D48401C0093B0F80530D0F8D6
:1060C000010081B20022072004F010FB00240DE043
:1060D00000200AA9085506A921F8140002A921F8F0
:1060E000140000252349C870601CC4B2082CEFDBE3
:1060F000002432E01E48007888B90AA8005D012813
:1061000007D106A830F814100122204603F06AFFD8
:1061100021E000221146204603F064FF1BE01448F2
:106120000078012817D10AA8005D01280CD10123AD
:1061300002A8009330F8143006A830F81410012299
:10614000204604F0D3FA06E000231A4619462046FA
:10615000009304F0CBFA601CC4B2082CCADB99216E
:10616000304603F08DF80CB070BD000055020020E1
:10617000D10200202A00002070B505460E480078A4
:1061800010B903F005FE12E00B48007801280ED18B
:1061900004F042F984B209480078D52807D10748AD
:1061A000848004F0E4F905494870002008709921C2
:1061B000284603F065F870BDD10200202A000020B7
:1061C00010B5044615480078F8B903F0EFFE03F067
:1061D000C9FDA0F549413F3904D00121204603F013
:1061E0004FF819E00121002004F042FD012804D1FC
:1061F0000221204603F044F80EE003F02DFEDC28D7
:1062000004D00321204603F03BF805E0002120469E
:1062100003F036F803F0D2FE10BD0000D1020020DA
:10622000F8B505460020009021215548FEF78FFF64
:10623000534805705348007850BB534840780128B4
:1062400003D051484078022808D14F488279401C39
:10625000D0F80110012003F017FE7EE04A48407894
:10626000032808D148488279401CD0F80110022048
:1062700003F00AFE71E04448407806286DD1424898
:106280008279401CD0F80110032003F0FDFD64E08A
:106290003C480078012860D13C480078D4280CD1D3
:1062A000002004F0AFFA04F0B7F83849888004F011
:1062B0005EF936494870002008703348407801285C
:1062C00003D031484078022808D12F488279401CF9
:1062D000D0F80110012004F05BF936E02A4840783C
:1062E000032808D128488279401CD0F801100220E8
:1062F00004F04EF929E024484078062825D12248A8
:106300008279401CD0F80110032004F041F91E48A6
:10631000401CD0F80100C0B2E02816D81A48401C32
:10632000D0F80100C0B2C0F1E00117488079814285
:106330000BD81548401CD0F80100C0B2C0F1E000F5
:10634000C6B21248407812498855104A9288D1B294
:106350000E4A9288100A04F0F7FA002406E00C486E
:10636000015D0748401C0155601CC4B20648807995
:10637000A042F4DC6A462121014805F0F5FAF8BD97
:1063800034020020D1020020550200202A00002003
:10639000EF02002038B50446002000902121174864
:1063A000FEF7D5FE154804701548007828B903F0AB
:1063B000D9FD1249C1F8010019E0114800780128FF
:1063C00015D110480078D4280CD1002004F01AFA16
:1063D00004F022F80B49888004F0C9F80949487094
:1063E00000200870074880880449C1F801006A4607
:1063F0002121024805F0B8FA38BD0000340200201F
:10640000D10200202A00002038B505460020009067
:1064100021218148FEF79BFE7F4805707F48007868
:10642000F0BB03F09FFD7C49491C8860012281215B
:10643000032003F029FD784948730122D02103206D
:1064400003F022FD744988730122E021032003F048
:106450001BFD714908740122F021032003F014FD93
:106460006D49C87301228221032003F00DFD6A49A2
:10647000487401228321032003F006FD66498874D5
:1064800001228421032003F0FFFC6349C874012228
:106490008521032003F0F8FC5F490875012200E024
:1064A0003CE08621032003F0EFFC5B4948750122A4
:1064B000EB21032003F0E8FC574948760122A8218C
:1064C000032003F0E1FC544988760122A92103202E
:1064D00003F0DAFC5049C8760122B821032003F00A
:1064E000D3FC4D4908770122B921032003F0CCFCED
:1064F000494948770846807B00F0180108220120AE
:1065000003F0C2FC002406E04548015D4248401CFF
:106510000155601CC4B2082CF6DB77E03F480078D8
:10652000012873D13F480078D4280CD1002004F012
:1065300069F903F071FF3B49888004F018F8394984
:1065400048700020087001228121032004F020F807
:10655000314948730122D021032004F019F82E4953
:1065600088730122F021032004F012F82A49C8732D
:1065700001228221032004F00BF8274948740122EC
:106580008321032004F004F8234988740122A82100
:10659000032003F0FDFF204988760122A921032072
:1065A00003F0F6FF1C49C8760122B821032003F04E
:1065B000EFFF194908770122B921032003F0E8FF12
:1065C000154948770846807B00F018010822012011
:1065D00003F0DEFF002406E01148015D0E48401C78
:1065E0000155601CC4B2082CF6DB0E49487804F053
:1065F0001DF9094908740B4A9288D1B2094A928858
:10660000100A04F0A1F90449491C88606A46212156
:10661000014805F0A9F938BD34020020D10200205C
:10662000EF0200202A00002070B5054625480078BA
:10663000F8B903F0FDFB00F00100012804D133217B
:10664000284602F01DFE3CE003F0F2FB00F00200E1
:10665000022804D1CC21284602F012FE31E003F0DA
:10666000E7FB10F0030F2CD1CC21284602F008FEE6
:1066700027E014480078012823D103F04BFF20B90C
:106680003321284602F0FCFD1BE003F043FF012804
:1066900017D103F0C1FE84B20B480078D52803D08F
:1066A00009480078D42808D1601E0749888003F083
:1066B0005EFF0549487000200870CC21284602F092
:1066C000DFFD70BDD10200202A00002010B5044675
:1066D0000D48007801280CD103F0BEFE03F047FFFF
:1066E0000A4948700021084604F02EF907498880BD
:1066F00004E00548007808B903F05EFB99212046C4
:1067000002F0BEFD10BD0000D10200202A000020D2
:1067100010B504461448007810B903F061FB1DE081
:1067200011480078012819D11048C078FF280AD1F3
:10673000012004F067F803F06FFE0C49888003F035
:1067400016FF0A4948700949487804F06FF807496C
:10675000888803F098FED5200449087099212046C6
:1067600002F08EFD10BD0000D10200202A000020A2
:1067700038B504460125002000900D4804702046DD
:1067800002F0E2FB08B9002504E0684601F018FBBE
:1067900000B90025012D04D19921204602F070FD99
:1067A00004E09DF80010204602F06AFD38BD0000AC
:1067B0003000002010B504460C48007810B903F0F2
:1067C00023FB0EE00948007801280AD108494878DF
:1067D00004F02CF80649888803F074FED42004499C
:1067E00008709921204602F04BFD10BDD102002017
:1067F0002A00002010B5044609480078D02809D1A5
:106800000020074908700748007808B903F0CEFB5C
:1068100001F0F8FD9921204602F032FD10BD000084
:1068200030000020D102002010B504463A4800781C
:1068300050BB3A484078012803D0384840780228B5
:1068400008D136488279401CD0F80110012003F0AD
:106850005DFC5CE031484078032808D12F488279FC
:10686000401CD0F80110022003F050FC4FE02B48F0
:10687000407806284BD129488279401CD0F8011075
:10688000032003F043FC42E02348007801283ED176
:1068900022484078012803D020484078022808D1B7
:1068A0001E488279401CD0F80110012003F0FAFF45
:1068B00025E01A484078032808D118488279401CFE
:1068C000D0F80110022003F0EDFF18E013484078E3
:1068D000062814D111488279401CD0F801100320F9
:1068E00003F0E0FF0D48401CD0F80100C0B2E028E2
:1068F00005D10A49887903F099FF09494870084A87
:106900009288D1B2064A9288100A04F01DF89921A3
:10691000204602F0B5FC10BDD10200205502002037
:106920002A00002010B504461248007858B9124ACF
:10693000D2F80120D1B2104AD2F80120C2F30720C8
:1069400003F03FFC10E00B48007801280CD10A4A04
:10695000D2F80120D1B2084AD2F80120C2F30720B0
:1069600003F0F2FF054988809921204602F088FC57
:1069700010BD0000D1020020550200202A00002096
:1069800070B50546B7480078F0BBB74A9268D1B2F7
:10699000B54A9268C2F3072003F013FC0122D0210C
:1069A000032003F071FA0446AF48401E427804F019
:1069B0001801012003F0AAFBAB48401E827804F0C6
:1069C0001800411C012003F0A1FBA748401EC2781B
:1069D00004F01800811C012003F098FBA248401E1F
:1069E000027904F01800C11C012003F08FFB9E48BF
:1069F000401E427904F01800011D012003F086FBBF
:106A00009948401E827900E07AE004F01800411DA8
:106A1000012003F07BFB9448401EC27904F018006B
:106A2000811D012003F072FB8F48401E027A04F0A2
:106A30001800C11D012003F069FB8B48401E427BFA
:106A40008121032003F062FB8748401E827BD02116
:106A5000032003F05BFB8448401E027CE0210320FE
:106A600003F054FB8048401EC27BF021032003F05A
:106A70004DFB7D48401E427C8221032003F046FBF3
:106A80007948401E827C8321032003F03FFB764837
:106A9000401EC27C8421032003F038FB7248401E54
:106AA000027D8521032003F031FB6F48401E427DAB
:106AB0008621032003F02AFB6B48401E427EEB2117
:106AC000032003F023FB6848401E827EA821032098
:106AD00003F01CFB6448401EC27EA921032003F082
:106AE00015FB6148401E027FB821032003F00EFB16
:106AF0005D48401E427FB921032003F007FBABE055
:106B00005848007801287ED15749491E087C03F077
:106B10008DFE56494870544A9268D1B2524A9268E2
:106B2000C2F3072003F010FF504988800122D021D2
:106B3000032003F02DFD04464B48401E427804F02C
:106B40001801012003F0AEFE4748401E827804F091
:106B50001800411C012003F0A5FE4348401EC278E6
:106B600004F01800811C012003F09CFE3E48401EEA
:106B7000027904F01800C11C012003F093FE3A488A
:106B8000401E427904F01800011D012003F08AFE26
:106B90003548401E827904F01800411D012003F0A1
:106BA00081FE3148401EC27904F01800811D012089
:106BB00003F078FE2C48401E027A04F01800C11D34
:106BC000012003F06FFE2848401E427B81210320F4
:106BD00003F068FE2448401E827BD021032003F08E
:106BE00061FE2148401EC27BF021032003F05AFEC3
:106BF0001D48401E427C8221032003F053FE1A48A8
:106C0000401E827C00E027E08321032003F04AFE3F
:106C10001548401E827EA821032003F043FE12483F
:106C2000401EC27EA921032003F03CFE0E48401EF8
:106C3000027FB821032003F035FE0B48401E427F3F
:106C4000B921032003F02EFE084A9288D1B2074AE8
:106C50009288100A03F078FE9921284602F010FB72
:106C600070BD0000D1020020560200202A00002042
:106C700070B50546002007490870284602F064F9FF
:106C800004462CB90348007840F0400001490870E0
:106C9000204670BD3100002010B504460948C07878
:106CA000012807D100200749C8707721204602F04B
:106CB000E7FA05E001F0A6FB8821204602F0E0FAA1
:106CC00010BD00003401002010B50446164880684D
:106CD0001649C1F80A001448401ED0F80100488047
:106CE0001148C068C1F80E001148D0F82200C880D1
:106CF0000F48D0F8260008810846C0888880002008
:106D00000C4908700949C1F81200C1F81600C1F811
:106D10001A00204602F018F928B90648007840F019
:106D200040000449087010BD56020020D102002026
:106D3000760200203100002070B505460124164877
:106D4000007800F04000402806D11348007820F079
:106D5000400011490870002410480078012803D031
:106D60000E484078012802D10C48847002E00020CF
:106D70000A498870012C07D10748007820B9992169
:106D8000284602F07DFA05E0AA21284602F078FAAA
:106D900001F038FB70BD00003100002034010020FC
:106DA00010B58448D0F812008249498888427DD2C3
:106DB00080484078012879D000240DE07E48005DAD
:106DC0007E4908557B48D0F81600095D084479498A
:106DD000C1F81600601CC4B2202CEFDB04F059F996
:106DE000744840887349D1F81210401A202829D2DB
:106DF000704840886F49D1F81210401AC4B20AE0B6
:106E00006C48D0F816006D49095D401A6949C1F80F
:106E10001600601CC4B2202CF2DB6648408865492D
:106E2000D1F81210431A6348D0F812200021FF2035
:106E300003F08CFFA8B96248007840F00100604977
:106E400008700EE05B48D0F8122020230021FF20BC
:106E500003F07CFF28B95A48007840F001005849F7
:106E600008705448D0F8120020305249C1F812007E
:106E70000846D0F812004988884213D34D48D0F80C
:106E80000A004C49D1F81610884205D04C480078C9
:106E900040F008004A49087000204649C1F81A002D
:106EA000C1F8160004F0E6F882E0FFE74148808868
:106EB0004049098988427BDA3E48407888B304F02B
:106EC000E8F83C4800893B498988401A202829DA9B
:106ED00000241EE03848005D3849087000204870E2
:106EE0003448D0F81A00097808443249C1F81A0029
:106EF00008468088021901230221FF2003F026FFA3
:106F000028B92F48007840F004002D490870601C13
:106F1000C4B22848008927498988401AA042D9DC90
:106F200023E045E000241EE02348005D234908706B
:106F3000002048701F48D0F81A00097808441D49FD
:106F4000C1F81A0008468088021901230221FF2097
:106F500003F0FCFE28B91A48007840F004001849F4
:106F60000870601CC4B2202CDEDB12488088203000
:106F700010498880084680880989884216DB0D48B8
:106F8000D0F80E000B49D1F81A10884205D00C48F1
:106F9000007840F008000A49087000200549C1F84F
:106FA0001A00C1F812000846C088888004F062F810
:106FB00010BD0000D102002056020020EF02002088
:106FC0003100002010B50446232C04D15521204661
:106FD00002F056F964E0312C03D1204600F0B4F8F9
:106FE0005EE0102C03D12046FFF76EFE58E0242C03
:106FF00003D12046FFF7A0FE52E0122C02D1FFF78A
:10700000CFFE4DE01A2C03D12046FFF75DFE47E08E
:10701000162C02D100F0A6F842E0402C05D1204603
:10702000FFF726FE1F4908703AE0412C03D12046A5
:10703000FFF732FE34E0182C05D12046FEF7D6FFCC
:10704000184948702CE0192C03D12046FEF7B2FFF6
:1070500026E0132C02D1FEF7C3FF21E0172C03D149
:10706000204600F025F81BE01A2C03D1204600F042
:107070006BF815E01B2C06D10B48007804F03EFDA0
:107080000A4908700CE01C2C06D10748007804F06F
:1070900067FE0649087003E01D2C01D104F02AFFA9
:1070A00010BD000034010020270000203100002026
:1070B00010B504461B48007828B91B490878772189
:1070C00002F0DEF822E01748007810F0010F04D03B
:1070D000B121204602F0D4F818E01248007810F0F0
:1070E000010F04D0B121204602F0CAF80EE00D488D
:1070F000007810F0010F04D0B321204602F0C0F850
:1071000004E009490878882102F0BAF8002005490E
:10711000087004F0E9FE01F075F91420FEF784FE12
:1071200010BD0000310000205502002070B504465B
:10713000A4F1A000C5B2034850F8251020468847A6
:1071400070BD000074C8000810B504465B210348F8
:10715000FDF7FDFF0248047010BD0000760200201C
:107160002600002010B58548D0F8120083494988D0
:1071700088427ED28148407801287AD000240DE0F0
:107180007F48005D7F4908557C48D0F81600095DAE
:1071900008447A49C1F81600601CC4B2202CEFDB09
:1071A000764840887549D1F81210401A202829D213
:1071B000724840887149D1F81210401AC4B20AE0EE
:1071C0006E48D0F816006F49095D401A6B49C1F846
:1071D0001600601CC4B2202CF2DB68484088674966
:1071E000D1F81210431A6548D0F812200021FF2070
:1071F00003F05EFFA8B96448007840F001006249DE
:1072000008700EE05D48D0F8122020230021FF20F6
:1072100003F04EFF28B95C48007840F001005A495D
:1072200008705648D0F8120020305449C1F81200B6
:107230000846D0F812004988884223D3534890F872
:107240003600012808D101F0B3F928B14E48007882
:1072500040F001004C4908704848D0F80A004749FE
:10726000D1F81610884207D04748007840F008004F
:1072700000E008E04449087000204049C1F81A00C5
:10728000C1F8160079E03D4880883C490989884268
:1072900073DA3A484078F0B300240DE03848005DD6
:1072A000384908553548D0F81A00095D0844334973
:1072B000C1F81A00601CC4B2202CEFDB2F480089F3
:1072C0002E498988401A202828DA2C4800892B4921
:1072D0008988401AC4B20AE02848D0F81A0029491F
:1072E000095D401A2549C1F81A00601CC4B2202C5F
:1072F000F2DB2248008921498988431A1F48828885
:107300000221FF2003F0D4FEB0B91F48007840F0FE
:1073100004001D4900E030E008700DE01748828845
:1073200020230221FF2003F0C3FE28B9164800786D
:1073300040F00400144908701048808820300F493C
:107340008880084680880989884216DB0B48D0F877
:107350000E000A49D1F81A10884205D00A48007870
:1073600040F008000849087000200449C1F81A00DC
:10737000C1F812000846C088888010BDD1020020E4
:1073800056020020EF02002031000020760200208B
:1073900000B585B000200090019002900390049009
:1073A000102101A800F058FB21210A48FDF7CFFE6B
:1073B0000948007807490870102201A90548401CB7
:1073C000FDF7ACFE6A462121024804F0CDFA05B073
:1073D00000BD000034020020550200202DE9F041DC
:1073E00006460027002410E02E4830F814002E49ED
:1073F00001F814002B4830F814000012012101EBB1
:107400004401294A5054601CC4B2102CECDB002506
:107410002EE0012424E0032C00D11FE0042C02DD27
:10742000082C00DA1AE004F00BFB0120FEF7FCFC4C
:107430004FF4164090FBF4F01FFA80F8404604F039
:107440001DFB20223146184801F09AFE0121174801
:1074500001F068F908B1012704E000BF601CC4B264
:10746000092CD8DB00BF012F00D103E0681CC5B296
:10747000032DCEDB00BF012F0DD10C48007855281D
:1074800004D15521304601F0FBFE08E0AA21304628
:1074900001F0F6FE03E0AA21304601F0F1FEBDE85E
:1074A000F081000056020020440100206401002009
:1074B00070B5044600222146114801F061FE002506
:1074C00017E06420FEF77FFC0E480078012202EBF3
:1074D0008000C1B20C4801F025F940B10A4800789B
:1074E000A82804D10848047001F0CEFD05E0681C0E
:1074F00085B244F620608542E3DB00BF70BD00002A
:10750000440100204F060020CE05002010B504469F
:1075100007222146124801F033FE1148401EC1796E
:10752000104842784078401C0E4B5870981C81548B
:1075300001210D4801F0F6F868B10B480078552894
:1075400004D15521204601F09BFE08E0AA212046E7
:1075500001F096FE03E0AA21204601F091FE10BD45
:10756000560200204F0600206401002010B504469A
:1075700000201149487011484078087001222146C6
:107580000E48401C01F0FCFD01210D4801F0CAF835
:1075900068B10B480078552804D15521204601F0E8
:1075A0006FFE08E0AA21204601F06AFE03E0AA214E
:1075B000204601F065FE10BD4F0600205502002058
:1075C0006401002010B50446002221460D4801F058
:1075D000D7FD01210C4801F0A5F868B10A480078F0
:1075E000552804D15521204601F04AFE08E0AA2181
:1075F000204601F045FE03E0AA21204601F040FEAE
:1076000010BD0000440100206401002010B50446B4
:107610001148D0F8010011490860042221460E48A3
:10762000401C01F0ADFD01210D4801F07BF868B16F
:107630000B480078552804D15521204601F020FE42
:1076400008E0AA21204601F01BFE03E0AA21204603
:1076500001F016FE10BD0000550200206801002058
:107660006401002070B5044600201349087000250D
:107670000CE00120A84011490968084204D00E48D6
:107680000078401C0C490870681CC5B2202DF0DB46
:10769000002221460A4801F073FD0748007800EBFC
:1076A0008000401CC1B2074801F03CF818B1054801
:1076B000047001F089FD70BD4F06002068010020B4
:1076C000440100202D05002010B50446002221466B
:1076D0000D4801F055FD01210C4801F023F868B177
:1076E0000A480078552804D15521204601F0C8FDEC
:1076F00008E0AA21204601F0C3FD03E0AA212046AC
:1077000001F0BEFD10BD0000440100206401002016
:1077100038B5044600250020009013480021016080
:10772000017100222146114801F02AFD00BF14E03A
:107730006420FEF748FB05210B4800F0F3FF50B131
:1077400009480078A82806D1074804706A46052130
:1077500004F00AF905E0681C85B244F62060854211
:10776000E6DB00BF38BD00006C01002044010020B2
:1077700010B5044607222146104801F001FD012101
:107780000F4800F0CFFF88B10D480078552806D18A
:107790000A49491E0878552101F072FD0CE007499D
:1077A000491E0878AA2101F06BFD05E00349491E36
:1077B0000878AA2101F064FD10BD000056020020E7
:1077C0006401002010B50446002221460F4801F054
:1077D000D7FC02210E4800F0A5FF90B10C480078BC
:1077E000552809D10A484078094A127842EA00210E
:1077F000204601F045FD08E0AA21204601F040FDA9
:1078000003E0AA21204601F03BFD10BD4401002009
:107810006401002008B501210C2000F011FE4FF694
:10782000FF70ADF8000003208DF8020004208DF8F1
:1078300003006946224800F047F84FF6FF70ADF8A4
:10784000000003208DF8020004208DF80300694633
:107850001C4800F039F80320ADF800008DF8020054
:1078600010208DF803006946154800F02DF803211B
:10787000134800F0B4F84FF44070ADF80000032056
:107880008DF8020010208DF8030069460D4800F0C5
:107890001BF84FF440710B4800F0A1F8042280213E
:1078A000084801F071FE0A20FEF7BEFA10224021BE
:1078B000044801F069FE4021024800F08EF808BD3E
:1078C00000080140000C01402DE9F041024600256E
:1078D0000026002000230024002791F803C00CF0AC
:1078E0000F0591F803C01CF0100F03D091F802C0EF
:1078F0004CEA0505B1F800C01CF0FF0F31D0146848
:1079000000202BE04FF0010C0CFA00F3B1F800C09E
:107910000CEA03069E4220D183004FF00F0C0CFAB4
:1079200003F7BC4305FA03FC4CEA040491F803C0D6
:10793000BCF1280F06D14FF0010C0CFA00FCC2F884
:1079400014C00AE091F803C0BCF1480F05D14FF014
:10795000010C0CFA00FCC2F810C0401C0828D1D35E
:107960001460B1F800C0BCF1FF0F34DD5468002092
:107970002EE000F1080C4FF0010808FA0CF3B1F802
:1079800000C00CEA03069E4221D183004FF00F0C89
:107990000CFA03F7BC4305FA03FC4CEA040491F823
:1079A00003C0BCF1280F05D100F1080C08FA0CF84F
:1079B000C2F8148091F803C0BCF1480F07D100F160
:1079C000080C4FF0010808FA0CF8C2F81080401CAF
:1079D0000828CED35460BDE8F08141617047016151
:1079E0007047000010B500240BE02021084803F088
:1079F000A0FD20B1064803F0F3FDC0B210BD601C2D
:107A000084B24CF250308442EFDB0020F6E70000F5
:107A10000038014001460648006880B200EBC10012
:107A200000F10400034A52F8100080B270470000D1
:107A3000505C00400060004001460548006880B28C
:107A400000EBC100034A52F8100080B270470000FA
:107A5000505C00400060004030B5064A8C080023AE
:107A600004E015680560121D001D5B1CA342F8D3DD
:107A700030BD0000004E000810B50F4B18680F4BCA
:107A8000D3F8EC170E4B1A68A8B10E4CA070030A7D
:107A90002371030CA371030E2372A1720B0A2373CB
:107AA0000B0CA3730B0E2374A274130A2375130C0F
:107AB000A375130E237610BDE8F7FF1F00F0FF1F1C
:107AC000F0F7FF1F0C00002000BFFEE710B51848BC
:107AD0000068047A022C01D0042C05D1FDF76AFF5E
:107AE00013480068047A1CE0062C19D1104800687D
:107AF000407805280ED10E480068007810F07F0FFE
:107B000008D10B490968C87801F0D8FB0949096810
:107B1000086A80470849096888688047082400E0A7
:107B20000824034909680C7200F0CEFB10BD000068
:107B300018020020240200201C02002000B50B487F
:107B40000068052809D1012009490870002000F0CB
:107B50000DFA00200749087007E00020044908706A
:107B600000F0B6F900200349087000BD10010020A4
:107B700040010020260000207CB5002404E0002005
:107B80000DF80400601CC4B2082CF8DB0024BAE035
:107B90008748005D302810DB8548005D39280CDC03
:107BA0008349095D3039F02202EA0111204604EBD5
:107BB000D47252100DF8021037E07D48005D412864
:107BC00010DB7B48005D5A280CDC7949095D3739A8
:107BD000F02202EA0111204604EBD47252100DF893
:107BE000021022E07248005D612810DB7048005DE1
:107BF0007A280CDC6E49095D5739F02202EA01113E
:107C0000204604EBD47252100DF802100DE06848C3
:107C1000005D50B96649095DF02202EA0111204673
:107C200004EBD47252100DF802106148611C405CE4
:107C3000302816DB5E48405C392812DC204604EB15
:107C4000D47252101DF80220594B661C9B5D03F044
:107C50000F031A43214604EBD4735B100DF8032085
:107C60004FE05348611C405C412817DB5048405CA2
:107C70005A2813DC204604EBD47252101DF802304F
:107C80004B4A661C925DD21F02F00F021A43214636
:107C900004EBD4735B100DF8032032E04448611C00
:107CA000405C612817DB4248405C7A2813DC2046A0
:107CB00004EBD47252101DF802303D4A661C925DEE
:107CC000D21F02F00F021A43214604EBD4735B105B
:107CD0000DF8032015E03648611C405C88B9204649
:107CE00004EBD47252101DF80230314A661C925DCA
:107CF00002F00F021A43214604EBD4735B100DF817
:107D00000320A01CC4B2082CFFF642AF0221084693
:107D1000FEF7DCF8012848D16420FEF775F801F081
:107D2000FBFF244988423ED103F000F80A20FEF709
:107D30006BF821480078322815D1002410E004F1B6
:107D400018020123F121FF2003F0B2F91DF804000D
:107D50001A490968C9B2884200D003E0601CC4B265
:107D6000042CECDB19E0002414E004F118020123D8
:107D7000F121FF2003F09CF91DF80410601C1DF890
:107D8000000001EB00200D490968884200D003E0A3
:107D9000A01CC4B2042CE8DB00BF042C01D10125D7
:107DA00004E0002502E0002500E0002528467CBD17
:107DB0008602002050544D002C010020300100208C
:107DC00070B5044601250020207002F028FA02F068
:107DD0008BFF01F0C7FFA0F549413F3939D164203D
:107DE000FEF712F802F080FF0321182002F040FF96
:107DF00001282BD100BF324800780A2800DD0CE0B2
:107E00002F480078401C2E49087002F06DFF0121B8
:107E1000002002F02DFF0128EDD000BF2848007897
:107E2000401C2749087002F05FFF02F015F8DC28BB
:107E300009D102F0C3F801F0BFFF22490878992167
:107E400001F01EFA34E0A520207031E0A42020705B
:107E50002EE001F087FFA0F549412F3926D164209B
:107E6000FDF7D2FF02F040FF0321182002F000FFCF
:107E7000012818D102F038FF02F0EEFA002002F0DB
:107E8000C1FC02F074FB1049487002F057FB0E4928
:107E900088800021084602F057FD0B4988800020A9
:107EA0000870C87004E0A420207001E0A3202070B6
:107EB000207818B10020054908700025284670BDBB
:107EC00018010020550200202A0000203000002068
:107ED000052841D2DFE800F0030B131B23002049E3
:107EE000096841F002011F4AC2F80C1835E01C492C
:107EF000096841F001011B4AC2F80C182DE01A492B
:107F0000096841F40071174AC2F80C1C25E01649B3
:107F1000096841F48071134AC2F80C1C1DE0104935
:107F2000096841F001010F4AC2F80C181146D1F856
:107F30000C1841F00201C2F80C181146D1F80C1CC3
:107F400041F40071C2F80C1C1146D1F80C1C41F42C
:107F50008071C2F80C1C00E000BF00BF7047000039
:107F60000C080140000001400C0C0140052841D2E2
:107F7000DFE800F0030B131B23002049096821F000
:107F800002011F4AC2F80C1835E01C49096821F0AB
:107F900001011B4AC2F80C182DE01A49096821F4A6
:107FA0000071174AC2F80C1C25E01649096821F433
:107FB0008071134AC2F80C1C1DE01049096821F0B9
:107FC00001010F4AC2F80C181146D1F80C1821F023
:107FD0000201C2F80C181146D1F80C1C21F40071F2
:107FE000C2F80C1C1146D1F80C1C21F48071C2F8A7
:107FF0000C1C00E000BF00BF704700000C080140EF
:10800000000001400C0C01400548817A19B105219E
:10801000044A116002E00121024A11607047000029
:108020007C0700201001002010B50024024800F059
:10803000FDFD0446204610BD55F01F0010B514226A
:108040004FF4C061044801F09FFA4FF4C061024848
:10805000FFF7C3FC10BD00000008014000BFFEE7B1
:108060007047704710B54FF4A0414FF0006000F02A
:1080700043F810BD70B5002100230F22C4784CB323
:108080001A4C246804F4E064C4F5E0644FEA142157
:10809000C1F1040322FA01F2447804FA03F184786E
:1080A00004EA020444EA01014FEA0111104C067887
:1080B000A155047804F01F054FF0010404FA05F4FB
:1080C00005784FEA65154FF0E02606EB8505C5F803
:1080D000004109E0047804F01F050124AC40054D7F
:1080E0000678761145F8264070BD00000CED00E0E2
:1080F00000E400E080E100E0024A0A400243024B53
:108100001A60704780FFFF1F08ED00E070B502267F
:108110004A480068447849480068007810F07F0FAA
:108120004AD1092C03D101F011FC064665E0052C6B
:1081300014D142480068C0787F280BDC3F480068B3
:10814000807838B93D480068808818B93B48006895
:10815000807A08B108256DE000264EE0032C14D18A
:1081600036480068C07801280DD1344800688088FE
:1081700048B932480068407A10F0200F03D001F06F
:1081800009FC064639E0022637E0012C35D12B48A0
:108190000068C07801280DD128480068808848B957
:1081A00026480068407A10F0200F03D001F068FAEA
:1081B000064622E0022620E020480068007800F011
:1081C0007F00012805D10B2C17D101F059FC064680
:1081D00013E01A480068007800F07F0002280BD1F5
:1081E000012C03D101F04CFA064606E0032C04D121
:1081F00001F0E4FB064600E002264EB1104800689C
:108200004169E0B288470646032E01D1092511E0F5
:108210000EB108250EE0062500210A48006880B24C
:1082200000F10200084A42F810104FF030000749F0
:10823000088000BF014909680D7270BD1802002056
:108240001C020020505C0040006000402A02002018
:1082500010B511480068047A032C01D0052C05D113
:10826000FDF70AFC0C480068047A0EE0072C05D1E3
:108270000A490968C8688047082406E0022C01D032
:10828000042C01D1082400E00824034909680C7279
:1082900000F01AF810BD0000180200201C02002097
:1082A000F0B5561C7510064E06EB41042B4604E053
:1082B00080CC20F8017B401C5B1E002BF8D1F0BD68
:1082C000006000407047000010B50D4890F82C1079
:1082D000002001F02BF80B480068007A082805D12F
:1082E00040020949088010200849088005480068B4
:1082F000007A092801D1012000E00020C0B210BDA1
:108300007800002018020020280200202A02002005
:1083100001210D4801604FF000000C4A108010460A
:1083200000880B4AC2F8400C4FF00000094A106068
:108330004FF4E050054A108010460088044AC2F805
:10834000400C4FF000007047405C004022020020CB
:1083500000500040445C004010B50446012C11D18F
:10836000042280211C4801F00FF90A20FDF75CFD72
:1083700010224021184801F007F940211648FFF764
:108380002EFB28E0022C15D110224021124801F0CA
:10839000FBF840211048FFF720FB0A20FDF744FDC1
:1083A00080210D48FFF719FB102280210A4801F0B7
:1083B000EBF810E004228021074801F0E5F80A20DC
:1083C000FDF732FD10224021034801F0DDF8402185
:1083D0000148FFF704FB10BD000C014010B5FFF78A
:1083E0002DFE012000F007F87820FDF71DFD02208A
:1083F00000F001F810BD10B504462046FFF7ACFFB1
:1084000010BD000010B501F00AFFFDF7B5FD042214
:108410004FF4C061014801F0B7F810BD00080140F9
:1084200029B1064AD2690243044BDA6104E0034AE7
:10843000D2698243014BDA617047000000100240AC
:1084400029B1064A92690243044B9A6104E0034A47
:1084500092698243014B9A6170470000001002400C
:1084600030B500210022002400232D4D6D6805F059
:108470000C0121B1042905D0082923D105E0294D9B
:10848000056022E0274D05601FE0254D6D6805F46D
:108490007012022505EB9242214D6D6805F480347F
:1084A0001CB9214D554305600BE01D4D6D6815F459
:1084B000003F03D01C4D5543056002E0194D554364
:1084C000056002E0174D056000BF00BF144D6D68E8
:1084D00005F0F0010909154D6B5C0568DD4045604C
:1084E0000F4D6D6805F4E061090A104D6B5C45683D
:1084F000DD4085600A4D6D6805F46051C90A0B4D79
:108500006B5C4568DD40C560054D6D6805F4404114
:10851000890B074D6B5CC568B5FBF3F5056130BD94
:108520000010024000127A0000093D00F90100200D
:10853000090200200149086070470000D80042424B
:108540002DE9F04107464FF0FF3600250CE02846A4
:1085500000F06CFB044686EA0400C0B2054951F8FD
:10856000200080EA16266D1CBD42F0D3F043BDE822
:10857000F0810000A0C800082DE9F04107468846B8
:108580004FF0FF3600250CE0E81900F04FFB0446E1
:1085900086EA0400C0B2054951F8200080EA162698
:1085A0006D1C4545F0D3F043BDE8F081A0C800083C
:1085B00030B585B0002500240CE0002002A901F8A8
:1085C0001400012101EB440102AA50540DF80400EB
:1085D000601CC4B2052CF0DB4F480078322818D15B
:1085E000002413E04D4850F8240068B1FF214B48A7
:1085F00050F824000DF800104848401F015D401D50
:1086000050F8240002AA1154601CC4B2052CE9DB06
:1086100042E04148007816283ED100243AE03F4825
:1086200050F82400A0B33D4850F8240010F0010F8A
:108630000FD13A4850F82400694601EB5000007809
:1086400040F00F01354850F824006A4602EB500014
:108650000170324850F8240000F0010001280FD1C9
:108660002E4850F82400694601EB5000007840F095
:10867000F0012A4850F824006A4602EB50000170CD
:108680002648401F015D401D50F8240002AA1154E5
:10869000601CC4B2052CC2DB1F480078322816D1FA
:1086A000002411E01DF80400FF280BD1012322460D
:1086B000F12102F0FDFC02A8005D19490968884219
:1086C00000D00125601CC4B2052CEBDB21E0124870
:1086D000007816281DD1002419E01DF80400FF2899
:1086E00013D162000123F12102F0E2FC02A810F88C
:1086F0001400012101EB440102AA515C40EA01206F
:1087000007490968884200D00125601CC4B2052CC5
:10871000E3DB284605B030BD2C010020B20200206A
:10872000300100202DE9F04104460D4600274FF0AE
:108730000108002608E0FFF755F92070207838443A
:10874000C7B2641C701CC6B2AE42F4DBFFF74AF934
:10875000C7F1FF01884201D04FF000084046BDE854
:10876000F081000070B50546072D01D02A4805703C
:1087700029480078082846D2DFE800F0040A1016DD
:108780002131464700F04EF806202349087040E0AA
:1087900000F048F80420204908703AE002201E4901
:1087A00048700320087034E01B484078401E1A4986
:1087B00048700846407808B90420087029E0174836
:1087C000006884B244F010041548C0F8404C4FF0E3
:1087D0000500114908704FF00A00487019E00E4872
:1087E0004078401E0C4948700846407850B90B4804
:1087F000006884B224F010040948C0F8404C4FF0DF
:108800000600087005E000BF00BF0620024908709E
:1088100000BF00BF70BD000015010020405C00409B
:108820000050004010B50748006884B224F00404EA
:108830000548C0F8404CFFF7E7FB4FF43F400149C3
:10884000086010BD405C0040005000402DE9FC5F16
:1088500081460024002000908246012001900025DE
:108860004F4600203149C87088704870087002F087
:1088700001FC38E0AB46002616E004235A460021EE
:10888000FF2002F015FC50B90AF1010000F0FF0AC8
:10889000BAF1030F06DB3D460020019006E04FF0E1
:1088A000000A03E0701CC6B2052EE6DB00BF2D1DDA
:1088B00064206843B0FBF7F0C4B2E11704EB917198
:1088C0008910B4EB81010ED10098A0420AD018485B
:1088D0004078022802D1642C00D162242146212054
:1088E00000F0CEFC0094BD4203D21148407801282C
:1088F000C0D10F484078B0B14FF000080BE004231E
:1089000042460221FF2002F0D3FB10B90020019063
:1089100004E0301DC6B2B8F1800FF0D300BF64216F
:10892000212000F0ADFC0198BDE8FC9FEF02002083
:10893000D10200202DE9F84F80460024A346A2462C
:10894000012000900025474600202E49C8708870FD
:108950004870087002F09DFB32E04FF0000912E011
:1089600004232A460021FF2002F0F0F938B90AF169
:10897000010000F0FF0A3D460020009006E02D1D9A
:108980004FF0000A02E0B9F1050FE9DB00BF6420F7
:108990006843B0FBF7F0C4B204EBD4714910B4EBF8
:1089A00041010DD1A3450AD017484078022802D1D1
:1089B000642C00D162242146212000F061FCA346F2
:1089C000BD4203D2104840780128C6D10E484078F5
:1089D00098B100260AE0012332460221FF2002F06E
:1089E000B5F910B90020009002E0761C802EF2D379
:1089F00000BF6421212000F043FC02F03BFB009803
:108A0000BDE8F88FEF020020D102002010B5104819
:108A1000807801280BD10E480078012807D10D4934
:108A2000C869FFF787FF0A49C87000200870084826
:108A3000807801280BD106484078012807D10549E4
:108A4000C869FFF703FF0249C8700020487010BDD5
:108A5000340100207602002021B1028842F0400259
:108A6000028004E002884FF6BF731A40028070470C
:108A700010B5044600F02CFA00F012FA10210C4850
:108A8000FEF7ABFF522000F0CFF9C4F3074000F02F
:108A9000CBF9C4F3072000F0C7F9E0B200F0C4F945
:108AA00010210348FEF79BFF00F0FAF910BD00000B
:108AB0000008014070B504460D46002610211048FC
:108AC000FEF78BFF032000F0AFF9C4F3074000F07E
:108AD000ABF9C4F3072000F0A7F9E0B200F0A4F965
:108AE00003E0FF2000F0A0F906442800A5F10101F1
:108AF0008DB2F6D110210248FEF771FF304670BDED
:108B0000000801402DE9F05F07460E4614464FF07D
:108B1000000A0025A946A846AB4606F0FF0ACAF19E
:108B20000000C5B22046E11704EB1161C1F307292B
:108B3000E11704EB11610912A4EB012101F0FF0818
:108B4000BAF1000F23D1B9F1000F05D12246314609
:108B5000384600F0D9F867E009E04FF480723146FA
:108B6000384600F0D1F806F5807607F580775FEAA1
:108B70000900A9F1010101F0FF09EED1B8F1000FE0
:108B800052D042463146384600F0BEF84CE0B9F1CA
:108B9000000F18D1A84510DDA8EB050000F0FF0B71
:108BA0002A463146384600F0AFF82E442F445A4644
:108BB0003146384600F0A8F836E0224631463846BD
:108BC00000F0A2F830E0601B84B22046E11704EB0D
:108BD0001161C1F30729E11704EB11610912A4EB3C
:108BE000012101F0FF082A463146384600F08CF892
:108BF0002E442F4409E04FF480723146384600F08D
:108C000083F806F5807607F580775FEA0900A9F119
:108C1000010101F0FF09EED1B8F1000F04D0424686
:108C20003146384600F070F8BDE8F09F70B5044654
:108C300010210D48FEF7D1FE032000F0F5F8C4F333
:108C4000074000F0F1F8C4F3072000F0EDF8E0B2BF
:108C500000F0EAF8FF2000F0E7F80546102102488E
:108C6000FEF7BDFE284670BD0008014000B587B084
:108C700001211420FFF7E4FB01210803FFF7E0FBCB
:108C80001020ADF818008DF81B0003208DF81A0095
:108C900006A91B48FEF718FEE020ADF818001820C2
:108CA0008DF81B0006A91648FEF70EFE1021144889
:108CB000FEF795FE0020ADF804004FF48270ADF889
:108CC00006000020ADF80800ADF80A00ADF80C0071
:108CD0004FF40070ADF80E000820ADF81000002031
:108CE000ADF812000720ADF8140001A9054800F006
:108CF0000DF901210348FFF7AFFE07B000BD0000EA
:108D0000000801400030014070B505460C4616468B
:108D100000F0DEF810211348FEF75FFE022000F09D
:108D200083F8C4F3074000F07FF8C4F3072000F095
:108D30007BF8E0B200F078F8B6F5807F01DD4FF403
:108D4000807603E0287800F06FF86D1C3000A6F103
:108D500001018EB2F6D110210248FEF740FE00F06C
:108D60009FF870BD000801402DE9F041002410215A
:108D70000E48FEF732FE9F2000F056F8FF2000F06C
:108D800053F80546FF2000F04FF80646FF2000F09C
:108D90004BF8074610210548FEF721FE280440EA5B
:108DA000062040EA07042046BDE8F08100080140A3
:108DB0002DE9F0410646012700240BE004F5FF10E1
:108DC000FFF734FF05460648005DA84200D00027A3
:108DD000601CC4B2B442F1DB3846BDE8F08100004B
:108DE0007401002010B5044600F072F800F058F845
:108DF00010210C48FEF7F1FD202000F015F8C4F317
:108E0000074000F011F8C4F3072000F00DF8E0B2BD
:108E100000F00AF810210348FEF7E1FD00F040F8E9
:108E200010BD00000008014010B5044600BF02213B
:108E30000A4800F05DF80028F9D02146074800F004
:108E400063F800BF0121054800F052F80028F9D06E
:108E5000024800F056F8C0B210BD000000300140DA
:108E60002DE9F041054601272A464FF4FF110B4832
:108E7000FFF748FE00240BE004F5FF10FFF7D6FED5
:108E800006460648005DB04200D00027601CC4B210
:108E9000AC42F1DB3846BDE8F081000074010020EF
:108EA00010B510210948FEF798FD0520FFF7BCFF1B
:108EB00000BFFF20FFF7B8FF044604F001000128BF
:108EC000F7D010210148FEF78AFD10BD00080140CF
:108ED00010B510210548FEF780FD0620FFF7A4FF1E
:108EE00010210248FEF77BFD10BD00000008014084
:108EF0000246002013890B4201D0012000E000202F
:108F000070470146888970478181704710B50022FB
:108F1000028802F441520B884C8823438C882343F7
:108F2000CC8823430C8923434C8923438C892343D6
:108F3000CC8923431A430280838B4FF2FF74234072
:108F400083830B8A038210BD70B504460025284830
:108F5000C07B00F08000802847D12548C07B00F00E
:108F60000400042803D132202249087007E0204879
:108F7000C07B10F0040F02D116201E4908701C4857
:108F8000C07B00F06000202803D101201A4908703E
:108F900007E01748C07B10F0600F02D1002016498F
:108FA0000870134890F82000012803D100201249CE
:108FB000487010E00E4890F82000022803D10120EC
:108FC0000D49487007E00A4890F82000032802D1B4
:108FD000022009494870FFF701FAFEF7CDFD05466A
:108FE000102C02D10DB102F0A9FF284670BD00007F
:108FF000760200202C010020D102002070470000E2
:109000002DE9F0470446002020604FF00109DFF809
:1090100040805B220F494046FFF774FD002511E0B8
:109020000C496818FFF702FE064698F80070BE4229
:1090300001D04FF0000920683844206008F1010891
:10904000681CC5B25B2DEBD34846BDE8F087000035
:109050007602002000F01F0070B504462146094842
:1090600002F0C3FA002507E04021064802F061FA49
:1090700000B170BD681C85B24CF250308542F3DB04
:1090800000BFF6E7003801402DE9F0478AB00746F7
:10909000242101A8FCF75BF87D1C384800780621E4
:1090A00090FBF1F000F0FF0A3448007890FBF1F2F9
:1090B00001FB1200C6B297F80090BAF1000F2FDD45
:1090C0004FF000082AE0242101A8FCF740F88DF8B1
:1090D0000490012415E0052094FBF0F100FB114001
:1090E00048B9052094FBF0F0401E2449891C085C17
:1090F00001A9085503E0287801A908556D1C601CDA
:10910000C4B21F2CE7DB01A802F008FC10B90AB0BA
:10911000BDE8F08708F1010000F0FF08D045D2DB80
:10912000062E29DA002E27DD242101A8FCF70FF8EE
:109130008DF80490012415E0052094FBF0F100FB6C
:10914000114048B9052094FBF0F0401E0B49891CE2
:10915000085C01A9085503E0287801A908556D1C91
:10916000601CC4B206EB8600401CA042E4DC01A8EF
:1091700002F0D4FB00B9CAE700BFC8E74F060020E1
:109180002DE9F04105460E4617464FF000083046DF
:10919000FFF762FF08EB060000F0FF08012F0CDB71
:1091A000002408E0285DFFF757FF285D404400F0E9
:1091B000FF08601CC4B2BC42F4DBC8F1FF00FFF73B
:1091C0004BFFBDE8F08100002DE9F0478AB007466B
:1091D000242101A8FBF7BBFF7D1C2848007806214D
:1091E00090FBF1F000F0FF0A2448007890FBF1F2C8
:1091F00001FB1200C6B297F80090BAF1000F1FDD14
:109200004FF000081AE0242101A8FBF7A0FF8DF819
:109210000490012405E0287801A908556D1C601C04
:10922000C4B21F2CF7DB01A802F078FB10B90AB01A
:10923000BDE8F08708F1010000F0FF08D045E2DB4F
:10924000062E19DA002E17DD242101A8FBF77FFF77
:109250008DF80490012405E0287801A908556D1CBB
:10926000601CC4B206EB8600401CA042F4DC01A8DE
:1092700002F054FB00B9DAE700BFD8E74F06002040
:1092800038B505460C460020009021210648FBF722
:109290005EFF05490D700846C0F801406A4621216D
:1092A00002F062FB38BD0000340200204FF6F87176
:1092B0000140014A11607047505C004030B50146E2
:1092C0000E4B1A78002012E003060D4C04EB93536A
:1092D000D3F8003C9BB248F68F742340C4B22343BA
:1092E0000406074D05EB9454C4F8003C401C904222
:1092F000EAD341F08003034C236030BD74000020AA
:10930000005000404C5C004010B54A105300054A24
:10931000126892B202EBC00202F10402024C44F85D
:10932000123010BD505C00400060004010B5024695
:109330001048006880B200EBC20000F106000E4C3D
:1093400004EB40033E290BDD481111F01F0F01D142
:10935000441EA0B24FF4004444EA80241C6007E09D
:10936000481011F0010F01D0441CA0B284021C600F
:1093700010BD0000505C00400060004010B50D4B77
:1093800003EB8003D3F8003C9BB24BF68F7403EAE7
:10939000040211F4805F01D082F4805211F4005F66
:1093A00001D082F40052034B03EB8003C3F8002C7E
:1093B00010BD000000500040094A02EB8002D2F8C4
:1093C000002C92B24BF68F7302EA030181F48051B4
:1093D00081F40051024A02EB8002C2F8001C70477F
:1093E0000050004010B54A105300044A126892B26F
:1093F00002EBC002024C44F8123010BD505C004039
:1094000000600040054A126892B202EBC00202F10D
:109410000202034B43F8121070470000505C0040FA
:109420000060004010B50D4B03EB8003D3F8003C07
:109430009BB248F6BF7403EA040211F0100F01D08A
:1094400082F0100211F0200F01D082F02002034BB5
:1094500003EB8003C3F8002C10BD00000050004057
:10946000094A02EB8002D2F8002C92B248F6BF7390
:1094700002EA030181F0100181F02001024A02EBAF
:109480008002C2F8001C704700500040074A02EBFF
:109490008002D2F8002C92B248F68F131A400A4389
:1094A000024B03EB8003C3F8002C704700500040D0
:1094B00010B500F001F810BD00210020304A1268FC
:1094C00042F480322E4B1A6000BF2D4A126802F41B
:1094D0000030491C10B9B1F5A06FF6D1284A1268C6
:1094E00012F4003F01D0012000E00020012843D108
:1094F000244A126842F01002224B1A601A4612687F
:1095000022F003021A601A46126842F002021A6040
:109510001B4A52681A4B5A601A4652685A601A46D9
:10952000526842F480625A601A46526822F47C12F1
:109530005A601A46526842F4E8125A601A46126893
:1095400042F080721A6000BF0D4A126812F0007F6C
:10955000FAD00B4A526822F00302094B5A601A46AD
:10956000526842F002025A6000BF054A526802F097
:109570000C02082AF9D101E000BFFEE770470000A5
:109580000010024000200240F8B506460C46154681
:10959000ADF8004003208DF802008DF803506946B5
:1095A0003046FEF791F9F8BD10B500F017FBFEF755
:1095B00059FDFEF72FF9FFF759FB10BD10B500203C
:1095C000FEF7B8FF0121C805FEF72AFF10BD000015
:1095D00008B52848006880B200F10400264951F817
:1095E000100080B201EB4000009024480068007A2F
:1095F00009282FD000980078204909680870009841
:10960000401C0090009800781C4909684870009838
:10961000401C00900098801C0090009931F8020BCB
:109620000091FBF77FFE1549096848800098801C6F
:109630000090009931F8020B0091FBF773FE0F497F
:10964000096888800098801C0090009800880B4969
:109650000968C8800120094909680872074800683C
:10966000C08810B9FEF752FD01E0FCF765FAFEF77D
:109670002BFE08BD505C0040006000401802002036
:109680002DE9F04751480068007800F07F08B8F1F4
:10969000000F0AD14D480068407A00F0DF004B49C6
:1096A000096848720020BDE8F087B8F1020F7DD14B
:1096B00046480068408818B944480068007908B1F5
:1096C0000220F0E7DFF8089140480068477927F06A
:1096D00080052C463D480068407910F0800F07D087
:1096E0003C4800EB8400D0F8000C00F0300606E0A7
:1096F000384800EB8400D0F8000C00F4405699F88C
:109700000000A84204D91EB130480068807A08B928
:109710000220C8E717F0800F10D02E4800EB84001D
:10972000D0F8000C00F03000102845D1E0B2FBF773
:10973000B3FF3021E0B2FFF775FE3DE0254800EBB6
:109740008400D0F8000C00F44050B0F5805F33D1B5
:10975000CCB9214890F82C10E0B2FFF7E7FD1D4985
:1097600001EB8401D1F8001C89B24BF68F7201EA3B
:10977000020080F4805080F40050164901EB84010F
:10978000C1F8000C18E0E0B2FBF76AFF114901EBE9
:109790008401D1F8001C89B24BF68F7201EA0200F5
:1097A00080F4805080F400500A4900E00AE001EBA8
:1097B0008401C1F8000C00BF084909684869804766
:1097C000002070E700BF02206DE7000018020020B3
:1097D0007400002000500040780000202402002087
:1097E00010B504462CB901200649096808820020FA
:1097F00010BD0549096808688047024800680A30BA
:10980000F6E70000180200202402002010B50246EE
:1098100006480068438A32B98888C01A034C246815
:109820002082002010BD08681844FBE718020020C1
:1098300010B504462CB901200649096808820020A9
:1098400010BD0549096888688047024800680C30E7
:10985000F6E70000180200202402002010B504469C
:109860002CB90220354909680882002010BD00206B
:109870003349088031480068007810F07F0F1CD110
:109880002E490968487A10F0200F05D02C49097834
:1098900041F002012A4A117010F0400F06D0284909
:1098A000097801F0FE01264A117005E02449097883
:1098B00041F00101224A11703AE020480068007826
:1098C00000F07F00012801D11D48CFE71B48006848
:1098D000007800F07F00022828D1184A12685179D8
:1098E00001F00F0011F0800F0FD0164A02EB80023A
:1098F000D2F8002C02F03002102A16D1104A127849
:1099000042F001020E4B1A700FE00E4A02EB800289
:10991000D2F8002C02F44052B2F5805F05D1084A1B
:10992000127842F00102064B1A7001E000209DE718
:109930000549096808698047014897E7180200202F
:1099400010020020005000402402002010B50E48F4
:109950000068C0780D494978884213DC0A480068DD
:10996000807878B908480068808858B90648006847
:10997000C0780549096888720549096848688047C0
:10998000002010BD0220FCE7180200207400002017
:109990002402002010B507480068407A40F02000FB
:1099A00004490968487204490968C8698047002069
:1099B00010BD000018020020240200202DE9F04113
:1099C0002B480068467926F080073C462848006806
:1099D000407910F0800F07D0264800EB8400D0F8C3
:1099E000000C00F0300506E0224800EB8400D0F8BF
:1099F000000C00F4405520480078A04208D91C48CB
:109A00000068408820B91DB119480068807A10B9F3
:109A10000220BDE8F08116F0800F11D0154901EB4E
:109A20008401D1F8001C89B248F6BF7201EA020035
:109A300080F010000F4901EB8401C1F8000C11E027
:109A40000C4901EB8401D1F8001C89B24BF68F72EE
:109A500001EA020080F48050064901EB8401C1F85C
:109A6000000C00BF05490968886980470020D0E7DD
:109A70001802002000500040740000202402002042
:109A800010B5174B1B68D978154B1B685879154BC7
:109A90001B689A699047044611480068807AE8B1CB
:109AA0003CB90F480068007918B90D480068807803
:109AB00008B1022010BD8CB90B490968C8688047FD
:109AC00007480068407906490968C8720448006878
:109AD000C0780349096808730020EBE70220E9E732
:109AE000180200201C0200202402002030B5054688
:109AF00002F012FB02F0EEFA00240DE014F0010F68
:109B000002D102F047FB01E002F036FB02F004FB59
:109B100002F0E0FA601CC4B2AC42EFDB02F0FCFAE7
:109B200002F0D8FA02F0F8FA02F0D4FA02F024FBBC
:109B300002F0D0FA30BD00B5034602F0E1FA00BFF2
:109B400000BF00BF00BF002209E012F0010F02D1E8
:109B500002F020FB01E002F00FFB501CC2B29A425F
:109B6000F3DB02F009FB02F0A7FA00BF00BF00BF61
:109B700000BF00BD30B5044600250FE004F0010031
:109B8000012802D102F006FB01E002F0F5FA6410B0
:109B900002F0C2FA02F09EFA681CC5B2042DEDDB99
:109BA00002F0EAFA30BD000010B50948006884B23E
:109BB00044F008040748C0F8404C0548006884B2E7
:109BC00044F004040348C0F8404CFCF7CBF910BD46
:109BD000405C0040005000407047000010B5104845
:109BE000006840F001000E490860084640680D49D1
:109BF00008400B494860084600680B49084008497E
:109C000008600846006820F4802008600846406824
:109C100020F4FE00486000208860FFF749FC10BD7A
:109C2000001002400000FFF8FFFFF6FE10B5022111
:109C3000480700F060F860B316480078401C1549EA
:109C400008700846007814490978884202DB012030
:109C50001249087012480078401C114908700846E3
:109C6000007810490978884202DB01200E4908700B
:109C70000E480088401C80B20C490880C82804DDCA
:109C80000020088001200A4908800221480700F0CE
:109C90002FF810BD0000002002000020040000206A
:109CA0000100002003000020050000200600002025
:109CB0000800002010B50221094800F01CF868B126
:109CC0000848007830B10848006880F080000749F3
:109CD000C1F80C080221024800F00AF810BD00008B
:109CE000000400400B0000200C180140001001404F
:109CF000CA430282704730B5024600200023002488
:109D0000158A05EA0103958905EA010413B10CB12E
:109D1000012000E0002030BD10B5002400F0E4FE7A
:109D2000A12001F09DFB002001F0A4FB002001F028
:109D3000A1FB002001F08AFB09480068C0F3C710AE
:109D4000010407480068C0F3C73001EB0020044954
:109D50000968C1F3C751441800F0B4FE204610BD95
:109D60002001002010B500230E220421032000F062
:109D7000D3FE00231A461021012000F007FE0348FD
:109D80000068C0F3CF34204610BD00002001002041
:109D900000B501230C220821002000F0F7FD01236B
:109DA00000220821104600F0F1FD012300220821C5
:109DB000104600F0EBFD00BD00B501230E22082186
:109DC000002000F0E3FD012300220821104600F0EE
:109DD000DDFD012300220821104600F0D7FD00BD63
:109DE00000B501230D220821002000F0CFFD012342
:109DF00000220821104600F0C9FD0123002208219D
:109E0000104600F0C3FD00BD00B501230B22082160
:109E1000002000F0BBFD012300220821104600F0C5
:109E2000B5FD012300220821104600F0AFFD00BD62
:109E300010B501230A220821002000F0A7FD01230C
:109E4000FF220821002000F0A1FD02480068040E56
:109E5000204610BD2001002010B500F0AFF801230E
:109E600006220821002000F091FD0123FF22082195
:109E7000002000F08BFD00F099F802480068040E05
:109E8000204610BD200100202DE9F04304460D4678
:109E90001746C5F3072805F0FF09202F00DD20270E
:109EA000012300220821104600F070FD0123224604
:109EB0000821002000F06AFD01230822114600203D
:109EC00000F064FD0CB1022C17D1012300220821FF
:109ED000104600F05BFD012300220821104600F02F
:109EE00055FD012300220821104600F04FFD0123FB
:109EF00042460821002000F049FD012300220821EC
:109F0000104600F043FD01234A460821002000F0DE
:109F10003DFD012315220821002000F037FD002619
:109F200012E0012317220821002000F02FFD012359
:109F3000FF220821002000F029FD08480068000EDB
:109F400007498855701CC6B23800A7F10101CFB28D
:109F5000E7D103480078BDE8F0830000200100202D
:109F6000EF02002030B5012314220821002000F068
:109F70000DFD0123FF220821002000F007FD0A4803
:109F80000068050E0123FF220821002000F0FEFCDE
:109F900005480068040E0123FF220821002000F07C
:109FA000F5FC05EB042030BD2001002000B50423A2
:109FB00007220321002000F0AFFD00BD00B50423FF
:109FC0001A460321002000F0A7FD012300220821EA
:109FD000104600F0DBFC012300220821104600F0AF
:109FE000D5FC00BD2DE9F04305460E469146012300
:109FF00000220821104600F0C9FC0123002208219C
:10A00000104600F0C3FC012308221146002000F096
:10A01000BDFCB9F1000F56D0F02000EA0514012371
:10A0200000220821104600F0B1FC0123224608213D
:10A03000002000F0ABFC012312220821002000F0D8
:10A04000A5FCC6F30728F7B2012300220821104619
:10A0500000F09CFC012300220821104600F096FC31
:10A06000012300220821104600F090FC0123424603
:10A070000821002000F08AFC01230022082110465C
:10A0800000F084FC01233A460821002000F07EFC09
:10A09000012310220821002000F078FC44F0010484
:10A0A000012300220821104600F070FC0123224603
:10A0B0000821002000F06AFC012312220821002060
:10A0C00000F064FC14E0F02000EA051401230022F3
:10A0D0000821104600F05AFC0123224608210020E6
:10A0E00000F054FC012312220821002000F04EFC55
:10A0F000012300220821104600F048FC0123002221
:10A100000821104600F042FCBDE8F0832DE9F04143
:10A1100004460D461646C5F3072705F0FF08012340
:10A1200000220821104600F031FC012322460821BC
:10A13000002000F02BFC012308221146002000F033
:10A1400025FC022C17D1012300220821104600F023
:10A150001DFC012300220821104600F017FC0123FA
:10A1600000220821104600F011FC01233A46082184
:10A17000002000F00BFC012300220821104600F013
:10A1800005FC012342460821002000F0FFFB0123CB
:10A1900015220821002000F0F9FB012300220821EC
:10A1A000104600F0F3FB012332460821002000F0A6
:10A1B000EDFB012316220821002000F0E7FBBDE89B
:10A1C000F08130B504460D460123002208211046D7
:10A1D00000F0DCFB012300220821104600F0D6FB32
:10A1E000012300220821104600F0D0FB0123224663
:10A1F0000821002000F0CAFB01230022082110469C
:10A2000000F0C4FB01232A460821002000F0BEFB19
:10A21000012313220821002000F0B8FB30BD00B557
:10A2200000230A220421032000F076FC00231A46B2
:10A230000821012000F0AAFB00230322042110467C
:10A2400000F06AFC00BDF0B5002404E0002000F03E
:10A25000D7F8601CC4B2032CF8DB00F003FA054603
:10A26000E843C5B2002600BFE843C7B2002404E0BB
:10A27000002000F0C5F8601CC4B2B442F8DB7420C2
:10A2800000F0BEF8284600F0BBF8002404E00020EF
:10A2900000F0B6F8601CC4B2032CF8DB00F0E2F961
:10A2A0000746701CC6B20A2E01DAAF42DCD1F0BDFF
:10A2B00030B504460D46022000F0A2F8204600F01A
:10A2C0009FF8284600F09CF830BD70B50446E520A4
:10A2D00000F096F8204600F093F8002504E00020F6
:10A2E00000F08EF8681CC5B2032DF8DB00F0BAF957
:10A2F0000646304670BD70B50446782000F080F800
:10A30000204600F07DF8E62000F07AF8002504E011
:10A31000002000F075F8681CC5B2032DF8DB00F0D2
:10A32000A1F90646304670BD70B504460D4675204D
:10A3300000F066F8204600F063F8284600F060F868
:10A34000002604E0002000F05BF8701CC6B2022E6C
:10A35000F8DB70BD70B504460D46782000F050F86B
:10A36000204600F04DF8762000F04AF8284600F02C
:10A3700047F8002604E0002000F042F8701CC6B246
:10A38000032EF8DB70BDF0B504460D46902000F0BA
:10A3900037F8204600F034F8284600F031F8E02085
:10A3A00000F02EF8002604E0002000F029F8701CD0
:10A3B000C6B2082EF8DB00F055F907463846F0BD66
:10A3C000F0B504460D461646902000F019F82046D8
:10A3D00000F016F8284600F013F8742000F010F88A
:10A3E000304600F00DF8F02000F00AF8002704E0F5
:10A3F000002000F005F8781CC7B2072FF8DBF0BD8D
:10A4000010B50446012322461E21002000F0BEFAAA
:10A41000012001F038F810BD10B500F03FF9042319
:10A420001A460321002000F077FB012300221E21A1
:10A43000104600F0ABFA074800684FF6FF7101EADA
:10A440001044FFF700FFFFF7FEFE00F013F920466F
:10A4500010BD00002001002010B54FF4800404F569
:10A46000805400F02FF9012322461721002000F02C
:10A470008DFAA402012322461721002000F086FA5B
:10A4800000F0F8F810BD70B50446C4F30725E6B235
:10A4900000F004F904231A460321002000F03CFBDD
:10A4A000FFF7D1FEFFF7CFFE31462846FFF700FF4A
:10A4B00000F0E0F8042305220321002000F02CFB2B
:10A4C00070BD000070B50446C4F30725E6B200F085
:10A4D000E5F804231A460321002000F01DFBFFF7D6
:10A4E000B2FEFFF7B0FE31462846FFF7E1FE00F06E
:10A4F000E9F80123064A1721002000F047FA00F08E
:10A50000B9F8042305220321002000F005FB70BDEB
:10A510000020400010B500F0D5F8012300221721DB
:10A52000104600F033FA04480068C0F3402400F0FD
:10A53000A1F8204610BD00002001002010B500F059
:10A54000ADF804231A460321002000F0E5FA0123A8
:10A5500000221E21104600F019FA012000F093FF9E
:10A5600000F076F8044600F085F8204610BD10B5DE
:10A5700000F094F8012300221E21104600F006FA94
:10A5800000F070F8044600F075F8204610BD000099
:10A590002DE9FC4F04460E4617464FF0000BC6F35C
:10A5A000072AF5B2202F00DD202700F077F80423DA
:10A5B0001A460321002000F0AFFAFFF744FE002006
:10A5C000FFF783FE01908320FFF77FFE009082203B
:10A5D000FFF77BFE81464FF0000821E0012C01D0FF
:10A5E000032C0DD1012C06D1802D04DB2846FFF76A
:10A5F00082FE83460BE02846FFF767FE834606E0AF
:10A60000022C04D129465046FFF7BDFE83460F4871
:10A6100000F808B008F1010000F0FF08681CC5B29E
:10A620003800A7F10101CFB2D8D10199FFF77CFE24
:10A6300083200099FFF778FE49468220FFF774FED9
:10A6400000F018F801480078BDE8FC8FEF02002008
:10A65000034909684FF6FF7202EA11407047000093
:10A660002001002002490968C1F3870070470000FB
:10A670002001002000B5042302220321002000F065
:10A680004BFA012300220421104600F07FF9042335
:10A6900003221146002000F03FFA00BD00B504235C
:10A6A00002220321002000F037FA01231A46042178
:10A6B000002000F06BF9042303221146002000F073
:10A6C0002BFA00BD00B5042302220321002000F074
:10A6D00023FA012304221146002000F057F9042335
:10A6E00003221146002000F017FA00BD2DE9F043C7
:10A6F00005460E4617461C46DDF81C90B9F1000FC2
:10A700003DD000F0C6FC00F09EFA3A4800783228AE
:10A7100031D039490C70200A487047B116F0010F4A
:10A7200002D10020087002E0002033494870022363
:10A7300032460021FF2000F009FB30480068A042AB
:10A7400005D0022332460021FF2000F0FFFA2B48FB
:10A750000068A04205D0022332460021FF2000F00D
:10A76000F5FA26480068A04205D0022332460021AF
:10A77000FF2000F0EBFA00F07DFCFFF750FDFFF743
:10A78000A1FF01239A051721002000F0FFF8D7B19F
:10A790004FF4C00000EB854000EB06080123424661
:10A7A0001721002000F0F2F84FF4C00000EB8540C4
:10A7B00000F5403808F180080123424617210020A7
:10A7C00000F0E4F80BE04FF4C00000EB854000F52A
:10A7D0004038012342461721002000F0D7F801231A
:10A7E000074A1721002000F0D1F8FFF743FFBDE82A
:10A7F000F08300002C010020EF0200203001002037
:10A800000200400030B505460DB1074C01E04FF4A1
:10A810008004FFF757FF012322461721002000F094
:10A82000B5F8FFF727FF30BD02004000F0B5054640
:10A83000FFF734FF04231A460321002000F06CF9CF
:10A84000002404E00020FFF7DBFD601CC4B2032CF1
:10A85000F8DB002600BFE843C7B2002404E0002074
:10A86000FFF7CEFD601CC4B2B442F8DB7420FFF7E2
:10A87000C7FD2846FFF7C4FD002404E00020FFF7D1
:10A88000BFFD601CC4B2032CF8DBFFF7EBFE0746EC
:10A89000701CC6B20A2E01DAAF42DCD1FFF7EAFE25
:10A8A0003846F0BD2DE9F04F04460E461746C6F374
:10A8B0000728F5B2FFF7F2FE04231A460321002011
:10A8C00000F02AF9FFF7BFFC0020FFF7FEFC8246EC
:10A8D0008320FFF7FAFC83468220FFF7F6FC8146CF
:10A8E000012C01D0032C0DD1012C06D1802D04DBCD
:10A8F00039462846FFF72EFD0BE039462846FFF77C
:10A9000013FD06E0022C04D13A4629464046FFF7E3
:10A9100057FD012C00D11DB151460020FFF704FD69
:10A92000032C01D1832D03D059468320FFF7FCFC73
:10A93000032C01D1822D03D049468220FFF7F4FC7D
:10A94000FFF798FEBDE8F08FF0B505460E46FFF71D
:10A95000A5FE04231A460321002000F0DDF8FFF7CE
:10A9600072FC31462846FFF7A3FC002404E00020D7
:10A97000FFF746FD601CC4B2032CF8DBFFF768FE4E
:10A980000746FFF777FE3846F0BD00002DE9F0439B
:10A9900005460E461746984600F0A6F800241EE02D
:10A9A00001F0EAFB01F0B8FB01F094FB01F0E4FBDD
:10A9B00001F0B2FB01F016FC01F08CFB01F0ACFBE6
:10A9C00001F04AFC3E48006810F4806F01D001F0AD
:10A9D00039FC01F07FFB01F0E9FB601CC4B2444587
:10A9E000DEDB002435E007F00100012802D101F090
:10A9F000D1FB01E001F0C0FB01F08EFB01F06AFB2E
:10AA0000701EA04203D115B901F0C4FB01E001F0B2
:10AA1000B3FB01F081FB01F0E5FB01F05BFB01F012
:10AA20007BFB2748006810F4806F02D04FF00109CB
:10AA300001E04FF0000901F04DFB7F0801F00CFC34
:10AA4000B9F1000F01D001F0FDFB01F0AFFB601C7C
:10AA5000C4B2B442C7DB00242CE001F08DFB01F04E
:10AA60005BFB01F037FB681EA04202D101F092FBB4
:10AA700001E001F081FB01F04FFB01F0B3FB01F0BD
:10AA800029FB01F049FB0E48006810F4806F02D0EA
:10AA90004FF0010901E04FF0000901F01BFB01F04C
:10AAA000DBFBB9F1000F01D001F0CCFB01F07EFB24
:10AAB000601CC4B2AC42D0DB00F004F8BDE8F08307
:10AAC0000808014000B501F065FB01F025FB01F02D
:10AAD00001FB01F051FB01F01FFB01F0FBFA01F05B
