:020000040800F2
:10500000C80200200151000805510008075100089E
:10501000095100080B5100080D5100080000000064
:105020000000000000000000000000000F51000818
:10503000115100080000000013510008155100082C
:1050400017510008175100081751000817510008A0
:105050001751000817510008175100081751000890
:105060001751000817510008175100081751000880
:105070001751000817510008175100081751000870
:105080001751000817510008175100081751000860
:105090001751000817510008175100081751000850
:1050A0001751000817510008175100081751000840
:1050B0001751000817510008175100081751000830
:1050C0001751000817510008175100081751000820
:1050D0001751000817510008175100081751000810
:1050E000175100081751000817510008DFF80CD0BD
:1050F00000F014F800480047F96A0008C8020020D0
:1051000005480047FEE7FEE7FEE7FEE7FEE7FEE7AD
:10511000FEE7FEE7FEE7FEE7ED500008064C074D10
:1051200006E0E06840F0010394E807009847103477
:10513000AC42F6D3FFF7DEFFF4AF000814B000086E
:1051400030B50246002300240021002002F0300385
:1051500002F0030443EA04011B4D2D78322D0FD1D8
:105160001A4D2D78092D03DA10292CDD01202AE0B3
:10517000164D2D780D2D26DA012924DD012022E09F
:10518000114D2D78162D1ED1104D2D780A2D03DAD4
:10519000012918DD012016E00C4D2D781E2D03DAB3
:1051A000002910DD01200EE0084D2D78222D03DAB4
:1051B000102908DD012006E0044D2D782D2D02DA9E
:1051C000102900DB012030BD5800002046000020DF
:1051D000014606E042F63C0001E0421E90B2002883
:1051E000FBD10A00A1F1010399B2F3D1704700008D
:1051F0002DE9F047A0B00025A846A946AA460027F9
:10520000002405E01048005D0DF80400601CC4B2E5
:10521000802CF7DB00F010FA0221012000F098FA50
:1052200007460A4887420BD102210A2001F0FAFA08
:10523000054600F023FA86B200F056FA00F0FF0AA5
:10524000284620B0BDE8F087086F00083032F7929A
:105250002DE9F04105460E460027B84600240020FF
:1052600021490870304600F0E5FF00BF01F070FBF7
:1052700001F0D8FB062000F024FF042D03D1082004
:1052800000F03EFF02E00C2000F03AFF0C2000F09E
:1052900037FF0C2000F0F0FE01F00AFB01F0A2FB4A
:1052A00000F0B4FF00F094FF0446A4F549403F38F5
:1052B00001D0103001D1142701E0781CC7B2142F9F
:1052C000D4DB01F046F900F083FF0446A4F5494021
:1052D0003F3801D0103003D101F027F94FF0010819
:1052E0004046BDE8F08100003800002008B50121EB
:1052F0000C2000F0B3F94FF6FF70ADF8000003206A
:105300008DF8020004208DF8030069463E4800F045
:105310007FF84FF6FF70ADF8000003208DF8020013
:1053200004208DF803006946384800F071F8032026
:10533000ADF800008DF8020010208DF803006946DA
:10534000314800F065F803212F4800F0ECF84FF4E5
:105350004070ADF8000003208DF8020010208DF899
:1053600003006946294800F053F84FF4407127487C
:1053700000F0D9F84FF4E040ADF8000003208DF8BC
:10538000020010208DF803006946204800F040F824
:105390004FF4E0411D4800F0C6F84FF40040ADF86E
:1053A000000003208DF8020048208DF803006946B4
:1053B000164800F02DF84FF40041144800F0B3F8FF
:1053C00004228021114800F03FFE0A20FFF700FF71
:1053D000102240210D4800F037FE40210B4800F01C
:1053E000A0F80420ADF8000003208DF8020048204A
:1053F0008DF803006946044800F00AF804210248C9
:1054000000F091F808BD000000080140000C0140C8
:105410002DE9F0410246002500260020002300244B
:10542000002791F803C00CF00F0591F803C01CF0A1
:10543000100F03D091F802C04CEA0505B1F800C086
:105440001CF0FF0F31D0146800202BE04FF0010C4E
:105450000CFA00F3B1F800C00CEA03069E4220D11A
:1054600083004FF00F0C0CFA03F7BC4305FA03FC62
:105470004CEA040491F803C0BCF1280F06D14FF0A8
:10548000010C0CFA00FCC2F814C00AE091F803C049
:10549000BCF1480F05D14FF0010C0CFA00FCC2F82A
:1054A00010C0401C0828D1D31460B1F800C0BCF172
:1054B000FF0F34DD546800202EE000F1080C4FF09F
:1054C000010808FA0CF3B1F800C00CEA03069E428A
:1054D00021D183004FF00F0C0CFA03F7BC4305FAFF
:1054E00003FC4CEA040491F803C0BCF1280F05D179
:1054F00000F1080C08FA0CF8C2F8148091F803C007
:10550000BCF1480F07D100F1080C4FF0010808FA70
:105510000CF8C2F81080401C0828CED35460BDE8B7
:10552000F081416170470161704700000348806964
:105530000349096808430149886170470010024027
:105540007800002000B500F0FDFBFFF7EFFF00F052
:1055500011F800F00DF801F027FA01F081FA01F0DE
:1055600023FA00200149087000BD00003800002027
:1055700070470000034880690349096808430149EE
:1055800088617047001002407C00002010B54FF485
:10559000A0414FF0006000F001F810BD024A0A403F
:1055A0000243024B1A60704780FFFF1F08ED00E0C6
:1055B00010B50446012C11D1042280211D4800F0B1
:1055C00043FD0A20FFF704FE10224021194800F095
:1055D0003BFD40211748FFF7A6FF29E0022C15D11B
:1055E00010224021134800F02FFD40211148FFF701
:1055F00098FF0A20FFF7ECFD80210E48FFF791FF8E
:10560000102280210B4800F01FFD11E084B9042214
:105610008021084800F018FD0A20FFF7D9FD10226C
:105620004021044800F010FD40210248FFF779FFB7
:1056300010BD0000000C014010B5012000F007F87B
:105640003220FFF7C5FD022000F001F810BD10B5B3
:1056500004462046FFF7ACFF10BD000029B1064A02
:1056600092690243044B9A6104E0034A92698243BF
:10567000014B9A61704700000010024078B500208D
:105680000090002600F052FA15480078322812D116
:10569000012302226946F12000F066FA11480068F1
:1056A000C4B2012303226946F12000F05DFA0D48DF
:1056B0000068C5B210E00A48007816280CD1012312
:1056C00002226946F12000F04FFA06480068C4B291
:1056D00004480068C0F3072544EA0526304678BD33
:1056E000580000205C00002018B500200090002425
:1056F00000F01CFA0C480078322809D1012304225A
:105700006946F12000F030FA08480068C4B209E0A8
:10571000012304226946F12000F026FA03480068BC
:10572000C0F30724204618BD580000205C0000206C
:1057300002460020002107E001238B40134201D0E4
:10574000084603E04B1CD9B21029F5DB00BF7047B7
:10575000FCB506460F4600250020009001901EB9BA
:1057600032204149087004E0012E02D116203E4942
:10577000087039460220FFF76BFD012842D100F086
:1057800001FD3A4988423AD100F005FF36480078D9
:10579000322815D1002410E004F1180201236946D3
:1057A000F12000F0E1F932480068C0B2E100C1F137
:1057B000180188400543601CC4B2042CECDB23E0D4
:1057C000002419E004F1180201236946F12000F0D9
:1057D000CBF927480068C0B2E100C1F11801884048
:1057E0000543E000C0F1100121480068C0F3072024
:1057F00088400543A01CC4B2042CE3DB04E04FF056
:10580000FF3501E04FF0FF3517480078322812D1FC
:1058100000240DE0174850F82400A84202D1164891
:10582000047007E00C2C01D14FF0FF35601CC4B2AE
:105830000D2CEFDB16E00C480078162812D100245E
:105840000DE00E4850F82400A84202D10A48047026
:1058500007E02C2C01D14FF0FF35601CC4B22D2C79
:10586000EFDB00BF2846FCBD5800002050544D001F
:105870005C000020C0AF0008460000200CAF00080C
:105880002DE9F84F06460D4617469946A34800787D
:1058900032280FD1F12E01D0022E01D1C8460FE0DF
:1058A00019F0030F02D14FEA990809E0012000EB3B
:1058B000990805E0022E01D1C84601E04FEA5908D7
:1058C0004FF0000B00F082FDC12000F04BFF30468E
:1058D00000F052FF91480078322814D1F12E01D007
:1058E000022E07D1C7F3072000F046FFF8B200F000
:1058F00043FF1AE0C7F3872000F03EFFC7F387009D
:1059000000F03AFF11E0022E07D1C7F3072000F0A4
:1059100033FFF8B200F030FF07E0C7F3472000F094
:105920002BFFC7F3470000F027FF7D480068C0F356
:1059300007407C49086008460068B0420BD0002050
:1059400000F044FF012000F02FFF012000F01DFFB8
:105950000020BDE8F88F7148007832281DD1F12E63
:1059600001D0022E0CD1287800F006FF002000F0B4
:1059700003FF002000F000FF002000F0FDFE1BE010
:10598000287800F0F9FE687800F0F6FEA87800F0BC
:10599000F3FEE87800F0F0FE0EE0022E06D1287843
:1059A00000F0EAFE002000F0E7FE05E0287800F0B5
:1059B000E3FE687800F0E0FE0124A3E000205949EE
:1059C0000860444543D255480078322829D1F12E49
:1059D00001D0022E0CD1285D00F0CEFE002000F098
:1059E000CBFE002000F0C8FE002000F0A7FE3EE045
:1059F000002101EB8401685C00F0BEFE012101EB97
:105A00008401685C00F0B8FE022101EB8401685C4F
:105A100000F0B2FE032101EB8401685C00F08EFE11
:105A200025E0022E06D1285D00F0A6FE002000F041
:105A300085FE1CE0002101EB4401685C00F09CFE47
:105A4000012101EB4401685C00F078FE0FE033486F
:105A50000078322805D1002000F08EFE002000F0F2
:105A60008BFE002000F088FE002000F067FE2B482F
:105A70000078322804D12C4800682A49086004E0E4
:105A800027480068C00B27490860002000F09EFEF0
:105A900000904FF0000A05E0002000F097FE009013
:105AA0000AF1010ABAF5FA6F02D200980128F3D080
:105AB000BAF5FA6F01D14FF0FF0B4FF0000A0CE07E
:105AC000BAF1010F04D1002000F080FE009002E046
:105AD000002000F07BFE0AF1010ABAF1030FEFD3B8
:105AE000002000F073FE012000F070FE444508D055
:105AF000012000F04AFE012000F056FE012000F0D7
:105B000044FE641C44457FF659AF00F04DFCBBF1E8
:105B1000FF0F01D100201CE701201AE758000020E8
:105B20004C0000205C0000205400002000B500F074
:105B30004DFCB42000F016FE002000F01DFE0020F9
:105B400000F006FE00F030FC00BD00B500F03EFCA9
:105B5000B42000F007FE002000F00EFEAA2000F0A6
:105B6000F7FD00F021FC00BD2DE9F04F05460E4683
:105B7000174698466F48007832280FD1F12D01D092
:105B8000022D01D1C14616E018F0030F02D14FEAF1
:105B9000980910E0012000EB98090CE0022D01D1DA
:105BA000C14608E018F0010F02D14FEA580902E09F
:105BB000012000EB58094FF0000B00F007FCD32048
:105BC00000F0D0FD284600F0D7FD5A480078322872
:105BD00014D1F12D01D0022D07D1C7F3072000F019
:105BE000CBFDF8B200F0C8FD1AE0C7F3872000F043
:105BF000C3FDC7F3870000F0BFFD11E0022D07D100
:105C0000C7F3072000F0B8FDF8B200F0B5FD07E0DB
:105C1000C7F3472000F0B0FDC7F3470000F0ACFD2C
:105C200000247BE043480078322829D1F12D01D0AF
:105C3000022D0CD1305D00F09FFD002000F09CFD96
:105C4000002000F099FD002000F078FD2DE00021FB
:105C500001EB8401705C00F08FFD012101EB8401F8
:105C6000705C00F089FD022101EB8401705C00F0A2
:105C700083FD032101EB8401705C00F05FFD14E003
:105C8000022D06D1305D00F077FD002000F056FDBA
:105C90000BE0002101EB4401705C00F06DFD01217F
:105CA00001EB4401705C00F049FD22480078322885
:105CB00004D1214800682149086004E020480068B8
:105CC000C00B1E4908601E4800684FEAD07ABAF13E
:105CD000000F09D104F00100012803D01548007815
:105CE000322801D14FF0FF0B002000F06FFD8246FB
:105CF000BAF1010F01D14FF0FF0B012000F066FD5A
:105D0000A9F10100A04208D0012000F03EFD0120D1
:105D100000F04AFD012000F038FD641C4C4581D3A1
:105D200000F042FBBBF1FF0F02D10020BDE8F08F75
:105D30000120FBE758000020540000205C000020F8
:105D40004C00002000B500F067F801284AD1264831
:105D50000068264908440C30254908602548006839
:105D6000224908440C3024490860224800681F4931
:105D700008440830214908602148007807280ADCD7
:105D80001F4800781F4908701748006817490844E1
:105D90001D4908600BE01A48007808381949087056
:105DA0001148006811490844001D17490860174848
:105DB000007807280ADC15480078154908700D4856
:105DC00000680A490844134908600BE00F4800784E
:105DD00008380F4908700748006804490844001D46
:105DE0000C49086000BD00003C0000200008014094
:105DF0006400002040000020680000206C000020AB
:105E000044000020600000207000002045000020B9
:105E1000610000207400002070B501263E48006833
:105E20003E4908603E4800683E4908603E480068B8
:105E30003A4948603D4800683A4948603C48006833
:105E4000364988603B480068364988603A480068AF
:105E50003249C860394800683249C860384800682B
:105E60002E490861374800682E49086136480068A5
:105E70002A494861354800682A4948613448006821
:105E8000264988613348006826498861002415E066
:105E9000224850F8240078B1204951F82400FFF737
:105EA00047FC2D490870A0022C490860A01C012164
:105EB00081402B48016003E0601CC4B2082CE7DB82
:105EC00000BF002515E0174850F8250078B11549A6
:105ED00051F82500FFF72CFC22490870A80222493E
:105EE0000860A81C012181402048016003E0681C73
:105EF000C5B2082DE7DB00BF082C01D0082D00D16A
:105F00000026064850F82400064951F8241088421B
:105F100000D10026304670BD04000020880000201B
:105F200000000020A80000200C0000200800002035
:105F300014000020100000201C0000201800002089
:105F400024000020200000202C0000202800002039
:105F50003400002030000020440000203C000020DD
:105F60007800002045000020400000207C00002038
:105F700010B500F001F810BD00210020304A126871
:105F800042F480322E4B1A6000BF2D4A126802F490
:105F90000030491C10B9B1F5A06FF6D1284A12683B
:105FA00012F4003F01D0012000E00020012843D17D
:105FB000244A126842F01002224B1A601A461268F4
:105FC00022F003021A601A46126842F002021A60B6
:105FD0001B4A52681A4B5A601A4652685A601A464F
:105FE000526842F480625A601A46526822F47C1267
:105FF0005A601A46526842F4E8125A601A46126809
:1060000042F080721A6000BF0D4A126812F0007FE1
:10601000FAD00B4A526822F00302094B5A601A4622
:10602000526842F002025A6000BF054A526802F00C
:106030000C02082AF9D101E000BFFEE7704700001A
:106040000010024000200240F8B506460C461546F6
:10605000ADF8004003208DF802008DF8035069462A
:106060003046FFF7D5F9F8BD10B500F063F8FFF73B
:106070008DFAFFF73BF910BD30B5054600F050FC36
:1060800000F026FC00240DE014F0010F02D100F016
:10609000B9FC01E000F0A6FC00F042FC00F018FCA6
:1060A000601CC4B2AC42EFDB00F03AFC00F010FC24
:1060B00000F036FC00F00CFC00F094FC00F008FC52
:1060C00030BD10B5044600F01BFC00BF00BF00BF90
:1060D00000BF002309E013F0010F02D100F092FC91
:1060E00001E000F07FFC581CC3B2A342F3DB00F0D8
:1060F00079FC00F0DDFB00BF00BF00BF00BF10BD9A
:1061000030B5044600250FE004F00100012802D15B
:1061100000F078FC01E000F065FC641000F000FC89
:1061200000F0D6FB681CC5B2042DEDDB00F05AFC74
:1061300030BD000010B51048006840F001000E4965
:106140000860084640680D4908400B494860084609
:1061500000680B490840084908600846006820F4B8
:10616000802008600846406820F4FE004860002057
:106170008860FFF7FDFE10BD001002400000FFF830
:10618000FFFFF6FE10B5002400F020F9A12000F07A
:10619000E9FA002000F0F0FA002000F0EDFA00200B
:1061A00000F0D6FA09480068C0F3C7100104074898
:1061B0000068C0F3C73001EB002004490968C1F34F
:1061C000C751441800F0F0F8204610BD4C000020E4
:1061D00010B500230E220421032000F00FF9002344
:1061E0001A461021012000F035F803480068C0F37A
:1061F000CF34204610BD00004C000020002001E0FC
:1062000000BF401CB0F5487FFAD37047002001E082
:1062100000BF401C4D28FBD37047002107E000223F
:1062200001E000BF521C632AFBD34B1CD9B2814250
:10623000F5DB704710B50246002308E0002403E0B8
:10624000FFF7DCFF601CC4B20A2CF9DB5B1C934235
:10625000F4D310BD2DE9F04305460E461746984687
:1062600000F0B4F8002422E000F0BCFB00F058FB82
:1062700000F02EFB00F0B6FB00F052FB00F0F0FB4C
:1062800000F026FB00F04CFB00F02EFC44480068B8
:10629000006844490A7801219140084201D000F089
:1062A00019FC00F015FB00F0BDFB601CC4B24445B6
:1062B000DADB002439E007F00100012802D100F008
:1062C000A1FB01E000F08EFB00F02AFB00F000FBD8
:1062D000701EA04203D115B900F094FB01E000F05C
:1062E00081FB00F01DFB00F0BBFB00F0F1FA00F0B9
:1062F00017FB2B48006800682A490A780121914061
:10630000084202D04FF0010901E04FF0000900F00F
:10631000DFFA7F0800F0E8FBB9F1000F01D000F0D0
:10632000D9FB00F07FFB601CC4B2B442C3DB002485
:1063300030E000F057FB00F0F3FA00F0C9FA681EF5
:10634000A04202D100F05EFB01E000F04BFB00F048
:10635000E7FA00F085FB00F0BBFA00F0E1FA104824
:10636000006800680F490A7801219140084202D074
:106370004FF0010901E04FF0000900F0A9FA00F028
:10638000B3FBB9F1000F01D000F0A4FB00F04AFB11
:10639000601CC4B2AC42CCDB00F006F8BDE8F08370
:1063A0006C0000204500002000B500F02BFB00F041
:1063B000B7FA00F08DFA00F015FB00F0B1FA00F02A
:1063C00087FA00F075FA00F00DFB00BD00B500F093
:1063D0006FFA00F007FB00F015FB00F0A1FA00F0E7
:1063E00077FA00F0FFFA00F09BFA00F071FA00F083
:1063F000F9FA00F095FA00F06BFA00BD2DE9F041D2
:1064000005460F461646984600F052FA00F0EAFAA2
:1064100000F0F8FA00F084FA00F05AFA00F0F2FA0C
:1064200000F07EFA00F054FA00F0DCFA00F078FA9E
:1064300000F04EFA00F0D6FA00F072FA00F048FAD6
:10644000002415E000F0DEFA00F06AFA00F040FAED
:1064500000F0C8FA00F064FA00F002FB00F038FA2D
:1064600000F05EFA00F034FA00F0DCFA601CC4B20E
:106470004445E7DB002424E006F00100012802D1B6
:1064800000F0C0FA01E000F0ADFA00F049FA00F0C7
:106490001FFA781EA04203D115B900F0B3FA01E04B
:1064A00000F0A0FA00F03CFA00F0DAFA00F010FA7E
:1064B00000F036FA00F00CFA00F0B4FA7610601C26
:1064C000C4B2BC42D8DB00241BE000F09BFA00F011
:1064D00027FA00F0FDF9681EA04202D100F092FAFE
:1064E00001E000F07FFA00F01BFA00F0B9FA00F0CA
:1064F000EFF900F015FA00F0EBF900F093FA601CE8
:10650000C4B2AC42E1DB00F07DFA00F009FA00F021
:10651000DFF900F067FA00F003FA00F0D9F900F0B3
:10652000C7F900F05FFABDE8F08100B500230A2248
:1065300004210320FFF762FF0023802208210120AD
:10654000FFF788FE0023032204211046FFF756FFC1
:1065500000BD10B500F0ACF900F044FA002407E0EB
:1065600000F050FA00F0DCF900F0B2F9601CC4B29F
:106570000B2CF5DB002407E000F034FA00F0D0F932
:1065800000F0A6F9601CC4B2032CF5DB00F090F912
:1065900000F028FA10BD00B5FFF718FFB12000F099
:1065A000E1F8002000F0E8F8552000F0D1F8FFF7FE
:1065B000FBFE00BD2DE9F04305460F461646984602
:1065C00006F0F000102808D1012000F0DEF80120CC
:1065D00000F0EAF8012000F0D8F8002422E000F0F2
:1065E00001FA00F09DF900F073F900F0FBF900F0FA
:1065F00097F900F035FA00F06BF900F091F900F02E
:1066000073FA4A480068006849490A7801219140B4
:10661000084201D000F05EFA00F05AF900F002FAE8
:10662000601CC4B24445DADB00243DE007F0010001
:10663000012802D100F0B8F802E0012000F0A5F82E
:1066400006F00F00012805D1072C03D115B900F081
:10665000D9F901E000F0C6F900F062F900F000FAA3
:1066600000F036F900F05CF9304800680068304905
:106670000A7801219140084202D04FF0010901E05F
:106680004FF0000900F024F97F102A4800682A49D9
:10669000086000F029FAB9F1000F01D000F01AFAF1
:1066A00000F0C0F9601CC4B2082CBFDB002438E045
:1066B00000F098F900F034F900F00AF906F00F0044
:1066C000012805D1681EA04202D100F09BF901E02B
:1066D00000F088F900F024F900F0C2F900F0F8F8B1
:1066E00000F01EF911480068006811490A7801217C
:1066F0009140084202D04FF0010901E04FF000093B
:1067000000F0E6F80B4800680B49086000F0ECF96F
:10671000B9F1000F01D000F0DDF900F083F9601C41
:10672000C4B2AC42C4DBBDE8F08300006C000020C2
:10673000450000204C0000205400002030B50446E5
:10674000012500231A4621462846FFF733FF30BDB6
:1067500030B5044601250023012221462846FFF7D3
:1067600029FF30BD30B5044600252B4600222146C6
:106770001046FFF71FFF30BD10B5044600231A4630
:1067800021461846FFF716FF10BD30B5044600F04D
:1067900029F9002505E000F0C3F800F099F8681C1D
:1067A000C5B2A542F7DB30BD30B5044600F02AF98A
:1067B000002505E000F0B4F800F08AF8681CC5B2C6
:1067C000A542F7DB00F00EF930BD000030B50546FC
:1067D00000F008F900F0A4F800F07AF815B100F024
:1067E00011F901E000F0FEF800F09AF800F038F935
:1067F00000F06EF800F094F8084800680068084956
:106800000A7801219140084201D0012400E00024CF
:1068100000F05EF800F006F9204630BD6C00002064
:106820004500002078B504460D4601260020009062
:10683000FFF78BF91D48007832281BD12046FEF760
:106840007FFC012814D18DF8004001230222694603
:10685000F120FFF715F800B900268DF8005001234C
:1068600003226946F120FFF70BF8D0B9002618E0A3
:10687000002616E00D480078162812D12046FEF7B3
:106880005FFC01280CD18DF800408DF801500223E7
:106890001A466946F120FEF7F3FF10B9002600E022
:1068A0000026FFF743F9304678BD0000580000206D
:1068B00005480068006805490A780121914088432D
:1068C0000149096808607047640000204400002006
:1068D00000B509480068006808490A78012191401C
:1068E000884305490968086000F0E8F800BF00BF68
:1068F00000BF00BF00BD0000640000204400002075
:1069000005480068006805490A780121914008435C
:1069100001490968086070476400002044000020B5
:1069200000B509480068006808490A7801219140CB
:10693000084305490968086000F0C0F800BF00BFBF
:1069400000BF00BF00BD0000640000204400002024
:1069500011480068006811490A7801219140884374
:106960000D49096808600E48006800680D490978FB
:106970008A000F2191408843094909680860084846
:1069800000680068074909788A000321914008439C
:106990000349096808607047640000204400002033
:1069A00070000020600000200C48006800680C495E
:1069B00009788A000F2191408843084909680860D6
:1069C000064800680068064909788A000421914059
:1069D0000843024909680860704700007000002001
:1069E0006000002005480068006805490A78012118
:1069F0009140884301490968086070476800002099
:106A00004500002005480068006805490A78012112
:106A100091400843014909680860704768000020F8
:106A2000450000200C48006800680C4909788A007D
:106A30000F219140884308490968086006480068AA
:106A40000068064909788A000321914008430249F9
:106A50000968086070470000740000206100002091
:106A60000C48006800680C4909788A000F219140A1
:106A700088430849096808600648006800680649B4
:106A800009788A0004219140084302490968086096
:106A900070470000740000206100002002E008C878
:106AA000121F08C1002AFAD170477047002001E088
:106AB00001C1121F002AFBD17047000000B5044835
:106AC0000078002803DD02480078FFF7A6FB00BD30
:106AD0003800002003480068A0F100400149086028
:106AE000704700004C00002002480068400801493F
:106AF000086070474C000020FFF7B6FAFEF722FD51
:106B0000FEF776FB00BFFEE7000000009630077737
:106B10002C610EEEBA51099919C46D078FF46A7091
:106B200035A563E9A395649E3288DB0EA4B8DC79B1
:106B30001EE9D5E088D9D2972B4CB609BD7CB17E31
:106B4000072DB8E7911DBF906410B71DF220B06A01
:106B50004871B9F3DE41BE847DD4DA1AEBE4DD6D11
:106B600051B5D4F4C785D38356986C13C0A86B6411
:106B70007AF962FDECC9658A4F5C0114D96C066331
:106B8000633D0FFAF50D088DC8206E3B5E10694C11
:106B9000E44160D5727167A2D1E4033C47D4044B51
:106BA000FD850DD26BB50AA5FAA8B5356C98B24231
:106BB000D6C9BBDB40F9BCACE36CD832755CDF45B1
:106BC000CF0DD6DC593DD1ABAC30D9263A00DE51E1
:106BD0008051D7C81661D0BFB5F4B42123C4B356D1
:106BE0009995BACF0FA5BDB89EB802280888055F51
:106BF000B2D90CC624E90BB1877C6F2F114C6858B1
:106C0000AB1D61C13D2D66B69041DC760671DB019E
:106C1000BC20D2982A10D5EF8985B1711FB5B60670
:106C2000A5E4BF9F33D4B8E8A2C9077834F9000FB0
:106C30008EA8099618980EE1BB0D6A7F2D3D6D0850
:106C4000976C6491015C63E6F4516B6B62616C1C40
:106C5000D83065854E0062F2ED95066C7BA5011B70
:106C6000C1F4088257C40FF5C6D9B06550E9B71210
:106C7000EAB8BE8B7C88B9FCDF1DDD62492DDA15D0
:106C8000F37CD38C654CD4FB5861B24DCE51B53AF0
:106C90007400BCA3E230BBD441A5DF4AD795D83DF0
:106CA0006DC4D1A4FBF4D6D36AE96943FCD96E3430
:106CB000468867ADD0B860DA732D0444E51D033310
:106CC0005F4C0AAAC97C0DDD3C710550AA41022720
:106CD00010100BBE86200CC925B56857B3856F20F0
:106CE00009D466B99FE461CE0EF9DE5E98C9D92950
:106CF0002298D0B0B4A8D7C7173DB359810DB42E90
:106D00003B5CBDB7AD6CBAC02083B8EDB6B3BF9ADB
:106D10000CE2B6039AD2B1743947D5EAAF77D29D67
:106D20001526DB048316DC73120B63E3843B649447
:106D30003E6A6D0DA85A6A7A0BCF0EE49DFF099347
:106D400027AE000AB19E077D44930FF0D2A30887B7
:106D500068F2011EFEC206695D5762F7CB67658067
:106D600071366C19E7066B6E761BD4FEE02BD38967
:106D70005A7ADA10CC4ADD676FDFB9F9F9EFBE8EC7
:106D800043BEB717D58EB060E8A3D6D67E93D1A107
:106D9000C4C2D83852F2DF4FF167BBD16757BCA6E7
:106DA000DD06B53F4B36B248DA2B0DD84C1B0AAF87
:106DB000F64A0336607A0441C3EF60DF55DF67A807
:106DC000EF8E6E3179BE69468CB361CB1A8366BC97
:106DD000A0D26F2536E2685295770CCC03470BBBE7
:106DE000B91602222F260555BE3BBAC5280BBDB2E7
:106DF000925AB42B046AB35CA7FFD7C231CFD0B587
:106E00008B9ED92C1DAEDE5BB0C2649B26F263EC78
:106E10009CA36A750A936D02A906099C3F360EEB86
:106E20008567077213570005824ABF95147AB8E246
:106E3000AE2BB17B381BB60C9B8ED2920DBED5E526
:106E4000B7EFDC7C21DFDB0BD4D2D38642E2D4F176
:106E5000F8B3DD686E83DA1FCD16BE815B26B9F606
:106E6000E177B06F7747B718E65A0888706A0FFF66
:106E7000CA3B06665C0B0111FF9E658F69AE62F826
:106E8000D3FF6B6145CF6C1678E20AA0EED20DD726
:106E90005483044EC2B30339612667A7F71660D046
:106EA0004D476949DB776E3E4A6AD1AEDC5AD6D986
:106EB000660BDF40F03BD83753AEBCA9C59EBBDEA6
:106EC0007FCFB247E9FFB5301CF2BDBD8AC2BACA56
:106ED0003093B353A6A3B4240536D0BA9306D7CDC6
:106EE0002957DE54BF67D9232E7A66B3B84A61C4E6
:106EF000021B685D942B6F2A37BE0BB4A18E0CC3A6
:106F00001BDF055A8DEF022D02054102152F0000EF
:106F100000000002142E00000000000215570000BF
:106F200000000002145B00000000000216AA00002E
:106F3000000000020CA80000000000021860000021
:106F4000000000020F6900000000000000000000C7
:106F5000000000021877000000000002161900006F
:106F60000000000217C7000000000002189AAB07DB
:106F7000E4F50CF50BF50AF509F50DF50E8B37F573
:106F800039F538E535648060030201C175EA55754D
:106F9000E96675EE7775ED888535EF7F0AFE121884
:106FA00054AFEBE4FCFDFE781012079DC004C00551
:106FB000C006C007AFECE4FCFDFE781812079DD0B8
:106FC00003D002D001D000EF4BFFEE4AFEED49FDA9
:106FD000EC48FCC004C005C006C007AFEAE4FCFDF5
:106FE000FE780812079DD003D002D001D000EF4BED
:106FF000FBEE4AFAED49F9EC48F8AFE9EB4FF50C36
:10700000EAF50BE9F50AE8F5097F307EC87DDF7CFB
:1070100027AB0CC312078C60037538AA75EC277573
:10702000EBDF75EAC875E93175EE7775ED88E53502
:107030004440F5EF7F0A7E00121854AFEBE4FCFDEC
:10704000FE781012079DC004C005C006C007AFEC53
:10705000E4FCFDFE781812079DD003D002D001D0C9
:1070600000EF4BFFEE4AFEED49FDEC48FCC004C0CA
:1070700005C006C007AFEAE4FCFDFE780812079DD4
:10708000D003D002D001D000EF4BFBEE4AFAED491D
:10709000F9EC48F8AFE9EB4FF50CEAF50BE9F50A26
:1070A000E8F509AFEEEFADEDF50DEDF50EE47F6619
:1070B0007E55FDFCAB0CC312078C7008E50E640115
:1070C000450D60197539AA8014E535B40112F5EF44
:1070D000AF367E0012176785FD3885FC3985EF379E
:1070E0007512007513007514377515037B007A004F
:1070F000793402149A8F09539A7F539B7FE509B420
:10710000800675FE878535FFE509B481068535E77C
:107110008536E6E509B482068535E28536E3E5097C
:10712000648360030202DDC2068535E1E536541F43
:10713000F5E8E53664106005E536B4110312186C05
:10714000E53630E62D7591FF75B1FF43A1FC439AFA
:10715000FE7590FF75B0FF43A0FC4380FEE53654FA
:107160001FFF64106003BF110912186C43A1034391
:10717000A003E53630E52C7591FF75B1FF43A1FC06
:10718000439AFEE4F590F5B053A003538001E53631
:10719000541FFF64106003BF110912186C53A1FC47
:1071A00053A0FC43E8807F647E00121854D2AFD213
:1071B000EE75A910E4F539F538F5377F03FE12179F
:1071C00067E536541FFF64106003BF110312174DAB
:1071D0007512007513007514377515037B007A005E
:1071E000793412149AE5096484705DF59AF59BD29E
:1071F0000675FE878535FF75E71F75E64075E10367
:10720000F5E275E3FF75E889E536B4010E7F647E2B
:1072100000121854D2AFD2EE75A910E534B455035C
:107220008535FF85FF3975120075130075143775A4
:1072300015037B007A00793412149AE534645560A2
:10724000DAE4F5E8F5A9C2AF22120345227455B479
:10725000550F74AAB4AA0A12035D1203D21203FCDA
:107260002243F50122E47460F879612824FE340099
:107270009424F560856061C32561356098C3273922
:1072800095610408060561C33614191715609775D2
:10729000F00DA48420D21FB4171C8420D218B4048B
:1072A000158420D211B4010E8420D20AB4010784BF
:1072B00030D20371B22243F502227455F6A7615809
:1072C0005560564945614768656067F42333C4C318
:1072D0000313B43A012243F5042276AAE6D2E0D39E
:1072E000B0E2501C82E2A0E372E44014B392E2B236
:1072F000E5C2E310E7028008B40705A2E3400122DB
:1073000043F5082278557460C8B8604C886086617F
:10731000626054AA7042447764566360354260608C
:1073200037B62134B560315401C560C060C061D04A
:1073300060D061E560B46020E561B4011BC6F27401
:1073400000E2B46013D6D5610F7901D90BF9B7000B
:1073500007B60004B461012243F51022228F37E4FE
:10736000F5ACF5ABF5AD75AA408535ADC204E53594
:10737000541FFFC39408503A53910F53920F53A1D7
:10738000F353A2F3EF64046003BF051212186C53A9
:10739000A1FC53A2FCD2047F0F7E00121767E535D3
:1073A0005407FF7401A807088002C333D8FCF5AB6B
:1073B0008021E535541FD3940F501853913F5392B9
:1073C0003FE53524F8FF7401A807088002C333D8CD
:1073D000FCF5ACE536700E75FEC2F5FF7FF47E015C
:1073E000121854800BE536B4010675FEC275FF8095
:1073F00043AD80D2AED2AF43AD40C203E4F5097FC6
:107400000A7E00121854300304C2038017E509C332
:1074100094324007E4F538F53980090509E509C3D8
:10742000946440DB300304C2AEC2AF300406E4F51E
:10743000AD12174D751200751300751437751503CD
:107440007B007A00793402149A78FF76FFB6FF2D1C
:10745000D8F978FF76AAB6AA1DD8F978FF7655B67E
:10746000550DD8F978FF7600B60019D8F9A18388B0
:10747000F275F515A18988F275F51AA18988F2755A
:10748000F51FA18988F275F510A18975F20075F5CF
:10749000CA0078FFE4F6D8FD7581610205D10215B6
:1074A000A7E493A3F8E493A34003F68001F208DF76
:1074B000F48029E493A3F85407240CC8C333C454BC
:1074C0000F4420C8834004F456800146F6DFE48070
:1074D0000B0102040810204080901687E47E01937F
:1074E00060BCA3FF543F30E509541FFEE493A36042
:1074F000010ECF54C025E060A840B8E493A3FAE49D
:1075000093A3F8E493A3C8C582C8CAC583CAF0A3ED
:10751000C8C582C8CAC583CADFE9DEE780BEE4FE0B
:10752000EFB40F0040030206E7900628F8282873FE
:1075300002065502065D02066502066702066F0234
:1075400006770206790206E7020689020698020615
:10755000A70206B10206C00206770206DFE4F59A2A
:10756000759BFF8031E4F5917592FF80388012E4BD
:10757000F5B175B2FF8047E4F5C175C2FF804E805A
:1075800056E4F5A175A2FF7F01FE121767AEA08039
:107590005EE4F59AF59B7F0AFE121767AE80804F76
:1075A000E4F591F5927F01FE121767AE908040E4FA
:1075B000F5A153A203AEA08036E4F5B1F5B27F0188
:1075C000FE121767AEB08027E4F5C1F5C27F01FE59
:1075D000121767AEC08018E4F5D975DAFF7F01FE97
:1075E000121767AED88008E4F5A175A2FCAEA0AF73
:1075F0000622BB010689828A83E0225002E722BB71
:10760000FE02E32289828A83E49322BB010CE58295
:1076100029F582E5833AF583E0225006E92582F8D0
:10762000E622BBFE06E92582F8E222E58229F58200
:10763000E5833AF583E49322BB010689828A83F0CD
:10764000225002F722BBFE01F322BB010A89828A83
:1076500083E0F5F0A3E022500687F009E71922BB8A
:10766000FE07E3F5F009E3192289828A83E493F5A2
:10767000F074019322BB010A89828A83F0E5F0A3AA
:10768000F0225006F709A7F01922BBFE06F3E5F039
:1076900009F31922EB9FF5F0EA9E42F0E99D42F0D2
:1076A000E89C45F022E8600FEFC333FFEE33FEEDB8
:1076B00033FDEC33FCD8F1228A838982E473E4F54C
:1076C0000AF50B8F37F539F538E5356003020849BF
:1076D00012186CE4F509C20085090C12107D120E17
:1076E0001D400FAF097401A807088002C333D8FCFE
:1076F0004238D20085090C12107D120E1D400FAFCA
:10770000097401A807088002C333D8FC423905096F
:10771000E509C3940440BF75CE807B007A00790AE6
:107720007DEC7C4E7F937E401213914003433920C1
:10773000E4F5CE1216F07B007A00790A7D7B7C009E
:107740007F677E00120E4F4003433940E4F5A88066
:1077500012E535B4012512186C1217317F0A7E002C
:1077600012176712174D75120075130075143775CF
:1077700015037B007A00793412149A22E4F509F596
:107780000A753D028F37F539F538E535F509E536E7
:10779000F50AE4FDFC7FFF120FD340087538514312
:1077A00039018014E4FDFCFF120FD34008753852F4
:1077B000433902800343380A75FEC2E4F5FF7FF4C3
:1077C0007E01121854E4F53D7F55120FCF50067517
:1077D000385343390475FEC275FF067FF47E0112EB
:1077E0001854E4F53DFF120FCF4008753854433963
:1077F000088016AD0AAC097FFF120FD34008753818
:107800005543391080034338C075FEC275FF027FAF
:10781000017E001217677512007513007514377515
:1078200015037B007A00793402149A8F0985093791
:10783000E4F598C2AFC2ACC2CAF5C8C205E509B446
:10784000A103121827E53564D06005E535B450056D
:1078500075C830D2CAE53564106005E535B49012BC
:10786000C2CAE4F5C875FEC175FF387FF47E011207
:107870001854853598853687D2AFD2ACE4F50A7FA7
:10788000647E00121854200509050AE50AC394FE17
:1078900040EDE53564106005E535B4900D75FEC129
:1078A00075FF087FF47E01121854E509B4A1031294
:1078B0001838C2AFC2AC12174D850A387512007560
:1078C00013007514377515037B007A0079340214A0
:1078D0009A8F09E509C39404502AE509B402117589
:1078E000F010A42404FFE435F0FEAB367D0C800DCF
:1078F000E50975F010A4FFAEF0AB367D101213163B
:1079000043D28022E509C394065024E50924FCFFF4
:10791000E434FFFEEF7803C333CE33CED8F92440EE
:10792000FFE43EFEAB367D0812131643D48022E5F9
:10793000096406702B12186CAB367D047F207E0024
:1079400012131643D2807F0F7E00121767E4F5D41E
:10795000F5D2F5A9C2AF7D50FFFE1213FC02174D00
:10796000E509B40711E4F5D4F5D27D50FFFE1213FA
:10797000FCE4F5A9C2AF22E4F50AEFB40E0040031F
:10798000020B09900A82F8282873020AAC020AB393
:10799000020ABA020ABF020AC6020ACD020AD302CA
:1079A0000ADA020AE0020AE7020AEE020AF5020A0D
:1079B000FC020B03759AFF75800022759AFF758093
:1079C000FF227591FF80407591FF7590FF2243A1C2
:1079D000FC53A0032243A1FC43A0FC75B1FF75B08A
:1079E000002275B1FF75B0FF75C1FF75C00022752B
:1079F000C1FF75C0FF2275D9FF75D8002275D9FF68
:107A000075D8FF2275A1FF7590002275A1FF75A0A2
:107A1000FF228F09850937E4F539F538F5A9F5A86E
:107A20005388F5E509B453248535C68536C7121841
:107A30006C7F0F7E0012176775A908D2AF7F0A7E90
:107A400000121767E4F5A8F5A912174DE509B4501F
:107A50001053A1F053A2F08535BA8536BBD2A8D217
:107A6000AFE509B4510A8535BC8536BDD2AAD2AF7F
:107A7000E509B4520B8535C68536C775A908D2AF5E
:107A80007F057E0012176775120075130075143795
:107A90007515037B007A00793412149AE4F5A9F580
:107AA000A85388F5228F0B8B0CE4F9FFEF9015F3A8
:107AB00093F582758300EDF00FBF26F0E4FFFBFA2B
:107AC000EF9015F393B50307E4B502030F80178B0E
:107AD000828A83E0650B600EAE0C7401A8060880F4
:107AE00002C333D8FCF90BBB00010AE4B503D1EAA9
:107AF000B407CDE4FFEF9015F393F582758300E0B2
:107B00006D600EAE0C7401A806088002C333D8FC69
:107B1000F90FBF26E0E4FAFB8B828A83EDF00BBB02
:107B200000010AE4B503F1EAB407EDAF01228B0BC3
:107B30008A0C890DED14601E14602814603224FD37
:107B4000603E14604824077066759CFFAB0BAA0C5E
:107B5000A90D741480567594FFAB0BAA0CA90D7473
:107B600004804975A3FCAB0BAA0CA90D740C803CD6
:107B7000EF70048535B322EF6401703375B3FF22D3
:107B800075A303AB0BAA0CA90D740C801FEF700B2F
:107B900075FE9DF5FF7F01FE121767E4F5B3F5A3AF
:107BA000F594F59CF593AB0BAA0CA90D12073022A6
:107BB000C0E0C0D075D000C005C00730CF08C2CF2C
:107BC000E5334401F53330CE5D0522E52270020530
:107BD00021C2CE30CF0E75390075380075A80075FA
:107BE000C8008042E522640A4521700AAFCBEFADA0
:107BF000CAF52FEDF530E522640B45217028AFCB97
:107C0000EFADCAF531EDF53275210075220075A88A
:107C10000075C800C3E5329530E531952FF538C3BE
:107C2000E5329530F539D007D005D0D0D0E032E438
:107C3000F5B8E5B8547F6002800A75B8FFE5B8442E
:107C400080F4600775F50575F2B822E4F58BF58DC3
:107C5000F58AF58CF5A8E58C458A458D458B600243
:107C60008017758BFF758DFF758AFF758CFFE58C0E
:107C7000558A558D558BF4600775F50575F28C2284
:107C800085838C85828A758355E583645560067586
:107C9000F50575F2837582AAE58264AA600675F51A
:107CA0000575F282858C83858A82228F09E4F50A24
:107CB000E509B4660A12186C7F017E00121767127C
:107CC0001663E50924A0FD7B007A00790AE4FF121F
:107CD0000C26E5096463600C75B301AF0A7E00AD44
:107CE000351216CD85368F759381E509B466147FFC
:107CF0000F7E0012176775FE9DE4F5FFF5A3F5935F
:107D000012174D7512007513007514347515037B29
:107D1000007A00793412149A7B007A00790A7D0780
:107D2000E4FF020C26E50975F006A42481F582E43F
:107D30003417F583E493FE740193FFE50975F006AB
:107D4000A42483F582E43417F583E493FC7401934F
:107D5000FD7B007A00790A8E0C8F0D8C0E8D0FC280
:107D600000E4FFFEE53320E00D0FBF00010EE4B597
:107D700007F2EEB460EEEE8FF012076D120742FFCD
:107D8000AEF0C3950DEE950C400BD3EF950FEE952D
:107D90000E5002D200A200228F37EF2490C433335A
:107DA00054C0F58F85359D85369E75A901D2AFE506
:107DB00037B4710A439D80E53530E530800DE537F5
:107DC000B47214439D80E536B401217F647E0012B5
:107DD0001854759F888015E537B473107595017533
:107DE0009EA17F017E00121767759F557F047E005C
:107DF0001217677512007513007514377515037B1C
:107E0000007A00793402149A8F09E4F50AE509B47E
:107E1000960A12186C7F017E00121767E50924701C
:107E2000FD7B007A00790A7F01120C26AF0A7E00E2
:107E3000AD351216CDE4F58F7593CFE509B4960FE5
:107E40007F0F7E00121767E4F5A3F59312174D75A7
:107E500012007513007514347515037B007A0079D0
:107E60003412149A7B007A00790A7D077F01020C94
:107E700026C0E0C0D0E58FB48019539DBFE59D5466
:107E800007704FF59DF5A9C2AF859F38859D39F5DF
:107E90009E803FE58FB44013759D0075A900C2AF69
:107EA000859F38859E39759E008027E58F64C07058
:107EB00021E59D30E011539DFE859F39859D3875E4
:107EC0009D0075A900C2AFE59D30E106539DFD43BD
:107ED0009D10D0D0D0E032AD0AAC098F0B8C0C8D48
:107EE0000DD200E53D7005753C108008E53DB402FB
:107EF00003753C80E4F50EE50EC3953C50337E00DF
:107F0000E50D250EFDEE350CFCAF0B1217DC7E00E7
:107F1000E50D250EFFEE350CFEE53B2FF582E53A2B
:107F20003EF583E493650B6004C2008004050E8077
:107F3000C6A200228B178A1889198D1AE4F51D75BF
:107F40001C01F51BE51BC3951A502912188AAB17A3
:107F5000AA18A919EF120730AB17AA18A919120607
:107F6000EA251DF51D74012519F519E43518F518D4
:107F7000051B80D012188AC374FF951D6F6003E43F
:107F8000F51CAF1C22438E03E4F588F58BF58DF5C7
:107F90008AF58CD2AFE53354FEF53354FDF533E565
:107FA0000CC39402400EE50CB40206E5334402F51E
:107FB00033538EFC200008850C89D2A9D28C22E58F
:107FC0000CB40304F5898007E50CC454F0F589D29C
:107FD0008ED2AB227509FFEF24E0F5096406600537
:107FE000E509B40E0A12186C7F0A7E001217678525
:107FF0003437AF091206168F38E50964066005E5C7
:1080000009B40E0A7F057E0012176712174D75120C
:10801000007513007514377515037B007A007934E9
:1080200002149AE4F50AD202F582F58374FFF0A3F4
:10803000E4B582F8E583B407F3E4FBFD7FFF120BA0
:108040009DEF420A7B017D55E4FF120B9DEF420A32
:108050007B027DAA7F55120B9DEF420A7B037D3385
:108060007FAA120B9DEF420AE50A6002C202A20239
:1080700022E4F50AD202F582F58374FFF0A3E4B599
:1080800082F8E583B407F3E4FBFD7FFF1214DCEF15
:10809000420A7B017D55E4FF1214DCEF420A7B02A9
:1080A0007DAA7F551214DCEF420A7B037D337FAA41
:1080B0001214DCEF420AE50A6002C202A202227533
:1080C00009FFEF24F0F509640C6005E509B40D0A19
:1080D00012186C7F0A7E00121767AF09120A6FE54B
:1080E00009640C6005E509B40D0A7F1E7E001217B5
:1080F0006712174D7512007513007514347515034A
:108100007B007A00793402149A8F3712186CE4F5E8
:10811000D9F5C1F5B1F5A1F591F59A75DAFF75C2FA
:10812000FF75B2FF75A2FF7592FF759BFF7F14FE6E
:1081300012176743A90875C601D2AF438702000032
:108140000000000000000000E4F5A9F5C6C2AF027F
:10815000174D8B178A1889198D1AE4F51CF51BE544
:108160001BC3951A502AAB17AA18A919851B82752B
:108170008300120703FF121892AB17AA18A91985DA
:108180001B82758300120703251CF51C051B80CF7D
:10819000C374FF951CFF0218928F378535B685365C
:1081A000B775A920D2AF7509F07F647E001218540C
:1081B000AF091509EF6004E5A970EE85B63885B7FB
:1081C000397512007513007514377515037B007A25
:1081D00000793412149AE4F5B7F5B622FF17F0FFD0
:1081E0001201FF15CDFF163EFF07B6FF157FFF08F2
:1081F00074FF0066FF1506FF18A0FF14B2FF12916E
:10820000FF11B7FF10CCFF13CAFF0455FF0B0AFF85
:108210000DA3FF0E90FF01EDFF0F00FF09238E0A53
:108220008F0B8D0CA903E4250BFFE50A34078F8221
:10823000F583E4250BFFE50A3407FE7C00EF250CEF
:10824000FFEC3EFEC3E5829FE5839E500FE5823042
:10825000E004E9F0800374C0F0A380D622E534C3C3
:1082600094014034E534D3940FE534500514F508F7
:108270008007C4540F240BF508E50875F003A42407
:10828000D4F582E43412F583740193FA740293F501
:10829000828A83AF341207B4228E0C8F0DC200E4A1
:1082A000FFFEE5CE20E60B0FBF00010EBEFFF3BFC1
:1082B000FFF0EE8FF012076D120742FFAEF0C3958C
:1082C0000DEE950C4009D3EF9DEE9C5002D200A21A
:1082D000002275D22175D430AE358ED18ED375A9DA
:1082E00002D2AFEF24D0FF1209C975120075130036
:1082F0007514347515037B007A00793412149A7F53
:10830000070209C98E0A8F0BA905E4250BFFE50AB0
:1083100034078F82F583E4250BFFE50A3407FEE975
:108320007C002FFFEC3EFEC3E5829FE5839E500557
:10833000E4F0A380E122C0E0C0D075D000C007AF58
:1083400033EFC31320E00FEF4401F533C2AF75885C
:108350000075A8008006E53354FDF533D007D0D072
:10836000D0E032C0E0C0D075D000C007AF33EFC35B
:108370001320E00FEF4401F533C2AF75880075A8F4
:10838000008006E53354FDF533D007D0D0D0E0327D
:108390007512007513007514377515037B007A008C
:1083A0007934E4F516AD1512102C8F16AB12AA1302
:1083B000A914AD1512124AAF162275CE8075FEC1F2
:1083C0008F3785CE3885FF39751200751300751407
:1083D000377515037B007A00793412149A53FFBF66
:1083E000E4F5CE228F0BA905E4FFF582F583E06565
:1083F0000B600E7401A803088002C333D8FCFF8011
:1084000002E9F0A3E4B582E6E583B407E1228F3701
:1084100075FEC18535FF85FF3875FEC28536FF853F
:10842000FF397512007513007514377515037B003D
:108430007A00793402149AC0E0C0D075D000C00030
:10844000C0075388FDAF3805387401A807088002BB
:10845000C333D8FC4239D007D000D0D0D0E032C0EE
:10846000E0C0D075D000C000C0075388F7AF380512
:10847000387401A807088002C333D8FC4239D007FA
:10848000D000D0D0D0E0328F09E4F5F2F5F5120338
:108490004185093785F53885F23975120075130065
:1084A0007514377515037B007A00793402149A121B
:1084B000171112174D12171175120075130075144C
:1084C000347515037B007A00793412149ABF01E5E4
:1084D00012135580E08F09120D271217B085093746
:1084E00085F53885F23975120075130075143775E6
:1084F00015037B007A00793402149A000102030408
:1085000005060708090A0B0C0D0E0F10203040500D
:1085100060708090A0B0C0D0E0F0000000000000CB
:1085200000C0E0C0D075D000C000C007AF3805382B
:108530007401A807088002C333D8FC4239D007D0A1
:1085400000D0D0D0E0328F3775FEC18535FF75126F
:10855000007513007514347515037B007A007934A7
:1085600012149AEF640160E602186C75FE9D75FFA7
:10857000017820D8FE0000000075FF03781ED8FEA9
:1085800075FF077811D8FE0000000075FF0F220369
:10859000346677880337667788C106023A0000029E
:1085A0002100000C2300000000000000000000007B
:1085B0000000C0E0C0D0309810C298E535B4100378
:1085C000759800859939853999309904C299D205F1
:1085D000D0D0D0E032A905E42FFDEE34078D82F52E
:1085E00083EF2408FDEE3407FCC3E5829DE5839C00
:1085F0005005E9F0A380EA22E53354FEF533438EBB
:1086000004E4F5C9F5C875CBF675CAA075CDF67545
:10861000CCA0D2AFD2CAD2AD22E4F5D9F5C1F5B122
:10862000F5A1F591F59A75D9FF75C2FF75B2FF7581
:10863000A2FF7592FF759BFF22758E04E4F5C97544
:10864000C809F5CAF5CBF5CCF5CDD2ADD2AFD2CABB
:10865000F521F52222E4F5A175A2FF438E0475CB26
:108660000175CAA175C830759850F587D2CA22EF36
:108670001FAA0670011E4A600F7C047DE2ED4C606B
:10868000EEED1D70F81C80F5220162019E00000ACB
:10869000FC0D540000010801300000008300970029
:1086A00000121488BF01108534377538037F017EAE
:1086B0000012176712148822121169920012111BFE
:1086C0009201A2018200400675F50675F2882285A6
:1086D000E53885E439300603D2EE3275E80075A935
:1086E00000C2AF32853DF48FF58DF28CF375F1F059
:1086F00075F60A00000000228F37121881438701A7
:108700000000000000000000000022438E04E4F599
:10871000C875C90275CBFE75CA8CD2CA2275FEC156
:10872000E5FF5430FEBE10047F1480027F04221245
:10873000186C75FE86AFFF4307018FFF438E04223E
:1087400012186C75FE86AFFF5307FE8FFF2275FE71
:10875000FEE5FF30E0FBE5FF20E0FB22EF4E600787
:10876000EF1F70F81E80F52285AF3885AE3975ADE4
:1087700000D20332E4F598F5C8C2CA538EFB2275C5
:10878000CE0075A90075A8003275CE8243A904D227
:10879000AF22C2983098FDAF9922C2998F99309933
:1087A000FD2275A900C2AF322212166375FEA0E445
:1087B000F5F4F5F3F5F275F11075F68000000000A0
:1087C0000000000000000000F5F2F5F580FE121632
:1087D0006375FE9C75FF0275FE9E75FF4075FEC1B8
:1087E00075FF0A121846753E3F75FE81853EFF7F74
:1087F000C87E0012185475FE9CE5FF30E607AF3EB8
:10880000153EEF70E475FE9CE4F5FF75FE9EF5FFE6
:1088100080FE1218158F1F12166375FE9CE4F5FF7B
:1088200075FE9E75FF1175FE85851FFF758E04759B
:10883000FE8375FF80F51E75FE8375FF8075C80D7C
:108840007D4030CEFDC2CEE4FC30CEFDC2CEAFCBFB
:10885000EFFEABCAAA0630CEFDC2CEAFCBEFFEA96B
:10886000CAE9F582E582C39BFFEE9AFED3EF94102E
:10887000EE9427401475FE83EC94075008C3E5FF7F
:108880009DF5FF800C15FF800875FE83ED25FFF533
:10889000FFEDC313FD0CBC08B075FE83E5FFC39468
:1088A000FF4012E51E700E751E0175FE85E51F2442
:1088B00004F5FF808275FE9EE4F5FFF5C880FE1288
:1088C000166375FE9CE4F5FF75FE9E75FF02121897
:1088D0004675FE8475FF80E4F58E75CE8075C80DF3
:1088E0007D4030CEFDC2CEE4FC30CEFDC2CEAFCB5B
:1088F000EFFEABCAAA0630CEFDC2CEAFCBEFFEA9CB
:10890000CAE9F582E582C39BFFEE9AFED3EF943568
:10891000EE940C400A75FE84E5FF9DF5FF80087516
:10892000FE84ED25FFF5FFEDC313FD0CBC08BA7501
:10893000FE9CE4F5FF75FE9EF5FFF5C8F5CE80FEC2
:1089400012166375FE9CE4F5FF75FE9E75FF20759B
:10895000FEC275FF8075AD8775AB8053A1FD1218FF
:10896000467F3F75FE828FFF30A1FD20A1FDAE073F
:108970001FEE70EFF5ABF5AD75FE9EF5FF75FEC20F
:10898000F5FF80FE00000000000000000000000075
:1089900000000000000000000000000000000000D7
:1089A00000000000000000000000000000000000C7
:1089B00000000000000000000000000000000000B7
:1089C00000000000000000000000000000000000A7
:108F0000000000000000000000000000020047B266
:108F1000A03232320000000200035385FC4380017E
:108F200075F83175FC0275F9FF75FB80C2AD43F829
:108F30008022000000000002000600000000000285
:108F40001E8FD3EF9400EE94004007EF1F70F31EC6
:108F500080F022787FE4F6D8FD758120021D720230
:108F60000007E4F585F584F580F592F5917590207C
:108F7000F5A2F5A1F5A0F5DAF5D875B40875B50830
:108F8000D2AF758702F5B4C2AF220000FFFFFFFF2A
:108F9000FFFFFFFFFFFFFFFFFFFFFFFFFFFFFFFFE1
:108FA000FFFFFFFFFFFFFFFFFFFFFFFFFFFFFFFFD1
:108FB000FFFFFFFFFFFFFFFFFFFFFFFFFFFFFFFFC1
:108FC000FFFFFFFFFFFFFFFFFFFFFFFFFFFFFFFFB1
:10ABE000FFFFFFFFFFFFFFFFFFFFFFFFEF14B408B2
:10ABF000004003021D71901CF875F003A4C5832565
:10AC0000F0C58373021D10021D1E021D21021D3797
:10AC1000021D3D021D4F021D56021D637810E6B451
:10AC20003C04D2938018C293800D02000E121E6B5A
:10AC3000E50EB45807D293D2A0C28222C293C2A01A
:10AC4000D2822253F87F021ECFE4F5AFF5A47FCE67
:10AC50007E04120036120056021EB1C28C75AF047B
:10AC6000801075AF054392805392BFC293800B75DD
:10AC7000AF054392805392BFD29343A4082275F646
:10AC80002578FF76FFB6FF1C7600B60017D8F4785B
:10AC9000FF74FFF2E2B4FF0C7400F2E2B40005D8D6
:10ACA000F075103C121EB1121DCCEF54FE640A70F8
:10ACB0001F121E0AAD07AC068C088D09121EDFAFED
:10ACC00009121E3EAF08121E3E7F0A121E3E80FE73
:10ACD000121DCC121CE080F8E4FFFE3094027F08C5
:10ACE0003092034307043095034307023091034336
:10ACF000070100000000003094034306083092036F
:10AD0000430604309503430602309103430601EFE6
:10AD10006E60027F0F22E4F50AF50B750C01F50D4C
:10AD2000FFFEE50D2FF582E50C3EF583E493FD254E
:10AD30000BF50BE4350AF50A0FBF00010EE4B50769
:10AD4000E1EEB41FDDAE0AAF0B223092FDE4FE202F
:10AD500092FDE4FDEE901EF8935F6004D2958002B0
:10AD6000C2950DEDC394FA4004D20080033092F2F4
:10AD70000EBE08DBA2002243A10253A1FE75C4024D
:10AD800075C581D2AED2AF43C540E4FF30AE040FEB
:10AD9000BF64F9C2AFE4F5C4F5C522C0E0C0D0532A
:10ADA000C5EF85C60EC2AEE50EC39456400AE50E49
:10ADB000D394625003750E58D0D0D0E032E4F585BC
:10ADC000758410F580F59275914075903675A201E5
:10ADD00075A102F5A0F5DA75D80322758C38758E49
:10ADE00001758902D2A9D2AFD28C225392CF53914E
:10ADF000F44391044390342200000000000000005E
:10AE0000000000000102040810204080FFFFFFFF47
:10AE1000FFFFFFFFFFFFFFFFFFFFFFFFFFFFFFFF42
:10AE2000FFFFFFFFFFFFFFFFFFFFFFFFFFFFFFFF32
:10AE3000FFFFFFFFFFFFFFFFFFFFFFFFFFFFFFFF22
:10AE4000FFFFFFFFFFFFFFFFFFFFFFFFFFFFFFFF12
:10AE5000FFFFFFFFFFFFFFFFFFFFFFFFFFFFFFFF02
:10AE6000FFFFFFFFFFFFFFFFFFFFFFFFFFFFFFFFF2
:10AE7000FFFFFFFFFFFFFFFFFFFFFFFFFFFFFFFFE2
:10AE8000FFFFFFFFFFFFFFFFFFFFFFFFFFFFFFFFD2
:10AE9000FFFFFFFFFFFFFFFFFFFFFFFFFFFFFFFFC2
:10AEA000FFFFFFFFFFFFFFFFFFFFFFFFFFFFFFFFB2
:10AEB000FFFFFFFFFFFFFFFFFFFFFFFFFFFFFFFFA2
:10AEC000FFFFFFFFFFFFFFFFFFFFFFFFFFFFFFFF92
:10AED000FFFFFFFFFFFFFFFFFFFFFFFFFFFFFFFF82
:10AEE000FFFFFFFFFFFFFFFFFFFFFFFFFFFFFFFF72
:10AEF000FFFFFFFFFFFFFFFFFFFFFFFFFFFFFFFF62
:10AF0000FFFFFFFFFFFFFFFFFFFFFFFF3032F79262
:10AF10002032F7921032F7920032F7922035F792F2
:10AF20001035F7920035F7922025F7921025F79209
:10AF30000025F7927054F8926054F8925054F892A9
:10AF40003054F8922054F8921054F8927044F892C9
:10AF50006044F8925044F8927054F7926054F7921B
:10AF60005054F7923054F7927044F7926044F7923D
:10AF70005044F7923036F7922036F7921036F79217
:10AF80003000F7920040FA920024FA920016FA92EA
:10AF90009054F7922037F8921037F8920037F892D1
:10AFA0001027F8920027F8923046F8922046F8923F
:10AFB0001046F8923036F8922036F8921036F89211
:10AFC0003043F8932043F8931043F8933033F893C9
:10AFD0002033F8931033F8933043F7932043F793DB
:10AFE0001043F7932031F5931031F5930031F59329
:10AFF0003000F59314B00008000000208800000025
:10B000009C6A00089CB000088800002040020000F4
:10B01000AC6A00080004000000020000000000000C
:10B020000000000000000000000000000000000020
:10B030000000000000000000000000000000000010
:10B040000000000000000000000000000000000000
:10B0500000000000000000000000000000000000F0
:10B0600000000000000000000000000000000000E0
:10B0700000000000000000000000000000000000D0
:10B0800000000000000000000000000000000000C0
:0CB09000000000000000000000000000B4
:04000005080050EDB2
:00000001FF
