:020000040800F2
:105000000004002047510008E5560008DB55000861
:10501000E1560008E5510008535E0008000000005A
:10502000000000000000000000000000DD58000843
:105030002354000800000000A5570008055A000886
:105040006751000867510008675100086751000860
:105050006751000867510008675100086751000850
:105060006751000867510008675100086751000840
:105070006751000867510008675100086751000830
:105080006751000867510008675100086751000820
:10509000515E000867510008675100086751000819
:1050A0006751000867510008675100086751000800
:1050B000595A00085B5A00086751000867510008F8
:1050C00067510008675100086751000867510008E0
:1050D00067510008675100086751000867510008D0
:1050E00067510008675100086751000867510008C0
:1050F00067510008675100086751000867510008B0
:10510000675100086751000867510008675100089F
:10511000E55B000867510008675100086751000807
:10512000675100086751000867510008E9510008FD
:10513000DFF80CD000F044F800480047755E000826
:1051400060020020704708488047084981F30888BA
:1051500007480047FEE7FEE7FEE7FEE7FEE7FEE75B
:10516000FEE7FEE7FEE7FEE745510008600200208B
:105170003151000840EA01039B0703D009E008C948
:10518000121F08C0042AFAD203E011F8013B00F80C
:10519000013B521EF9D27047D2B201E000F8012B58
:1051A000491EFBD270470022F6E710B504460846B8
:1051B000114602462046FFF7EFFF204610BD0000D3
:1051C000064C074D06E0E06840F0010394E8070054
:1051D00098471034AC42F6D3FFF7AEFF945E000858
:1051E000B45E000800BFFEE710B50A4800F0DCF826
:1051F00070B12021084800F0E2F9C0F10100C4B20A
:1052000022462021044800F0E3F9024800F006F8A5
:1052100010BD000000000210000C014010F0805F83
:1052200002D00349086001E002494860704700006D
:10523000040402400000024021B1026842F0010271
:10524000026003E0026822F0010202607047000081
:10525000016821F00101016000210160416081606D
:10526000C1604A4A811A90425BD012DC484AA0EBE6
:10527000020190423AD007DC464941181BD014295C
:1052800022D028297FD128E0142938D028297AD1A2
:105290003EE0B1F56C7F5DD006DCB1F5627F49D0B0
:1052A000B1F5677F6FD14DE0B1F5717F5AD0B1F59F
:1052B000767F68D15FE036494439496841F00F0193
:1052C000334A443A51605FE031494439496841F01A
:1052D000F0012F4A443A516056E02D49443949685B
:1052E00041F470612A4A443A51604DE028494439FA
:1052F000496841F47041264A443A516044E02449E7
:105300004439496841F47021214A443A51603BE0F4
:105310001F494439496841F470011D4A443A5160BB
:1053200032E01B494439496841F07061184A443AF7
:10533000516029E01849096841F00F01174AC2F885
:10534000041421E01449096841F0F001134AC2F83D
:10535000041419E01049096841F470610F4AC2F859
:10536000041411E00C49096841F470410B4AC2F879
:10537000041409E007E00849096841F47021074A6C
:10538000C2F8041400E000BF00BF70478000024074
:1053900044000240F8FFFDBF040402400000024048
:1053A0000146486880B2704701460020002211F093
:1053B000805F02D0054B1A6801E0054B1A680A426B
:1053C00001D0012000E000207047000000040240EE
:1053D000000002401AB103680B43036002E0036857
:1053E0008B430360704710B50022026847F6F073E4
:1053F0009A430C6A8B6823430C6923434C6923430B
:105400008C692343CC6923434C6A23438C6A23432E
:105410001A430260CB6843600B6883604B68C360CB
:1054200010BD7047014606E042F6F82001E0421E3A
:1054300090B20028FBD10A00A1F1010399B2F3D187
:105440007047000008B50121582000F0CDF9222056
:10545000ADF8000003208DF8020010208DF8030045
:1054600069460F4800F022F80120ADF80000032043
:105470008DF8020010208DF803006946094800F0FD
:1054800015F80120ADF8000003208DF8020010206F
:105490008DF803006946044800F008F808BD0000D4
:1054A000000C014000100140001801402DE9F041BE
:1054B000024600250026002000230024002791F842
:1054C00003C00CF00F0591F803C01CF0100F03D0BF
:1054D00091F802C04CEA0505B1F800C01CF0FF0FBE
:1054E00031D0146800202BE04FF0010C0CFA00F3CF
:1054F000B1F800C00CEA03069E4220D183004FF0B1
:105500000F0C0CFA03F7BC4305FA03FC4CEA040445
:1055100091F803C0BCF1280F06D14FF0010C0CFA32
:1055200000FCC2F814C00AE091F803C0BCF1480FB7
:1055300005D14FF0010C0CFA00FCC2F810C0401C61
:105540000828D1D31460B1F800C0BCF1FF0F34DDDE
:10555000546800202EE000F1080C4FF0010808FA12
:105560000CF3B1F800C00CEA03069E4221D183007F
:105570004FF00F0C0CFA03F7BC4305FA03FC4CEA9E
:10558000040491F803C0BCF1280F05D100F1080C08
:1055900008FA0CF8C2F8148091F803C0BCF1480F67
:1055A00007D100F1080C4FF0010808FA0CF8C2F816
:1055B0001080401C0828CED35460BDE8F08102461C
:1055C0000020D3680B4201D0012000E0002070478A
:1055D0000AB1016100E04161704700BFFEE70000D1
:1055E00010B50446052C31D2DFE804F003090F158D
:1055F0001B00002220211748FFF7EAFF27E00022C6
:1056000001211548FFF7E4FF21E0002202211148A3
:10561000FFF7DEFF1BE0002201211048FFF7D8FF53
:1056200015E0002220210B48FFF7D2FF00220121C4
:105630000948FFF7CDFF002202210648FFF7C8FF07
:10564000002201210548FFF7C3FF00E000BF00BFB3
:1056500010BD0000000C0140001801400010014086
:1056600010B50446052C31D2DFE804F003090F150C
:105670001B00012220211748FFF7AAFF27E0012283
:1056800011461548FFF7A4FF21E00122022111482D
:10569000FFF79EFF1BE0012211461048FFF798FF1D
:1056A00015E0012220210B48FFF792FF012211464D
:1056B0000948FFF78DFF012202210648FFF788FF06
:1056C000012211460548FFF783FF00E000BF00BF3D
:1056D00010BD0000000C0140001801400010014006
:1056E00000BFFEE7704710B54FF4A0414FF00060D7
:1056F00000F04EF810BD000070B5002100230F220D
:10570000C4784CB31A4C246804F4E064C4F5E06433
:105710004FEA1421C1F1040322FA01F2447804FA99
:1057200003F1847804EA020444EA01014FEA01111A
:10573000104C0678A155047804F01F054FF00104C1
:1057400004FA05F405784FEA65154FF0E02606EBFC
:105750008505C5F8004109E0047804F01F0501241F
:10576000AC40054D0678761145F8264070BD000026
:105770000CED00E000E400E080E100E002490143BC
:10578000024A1160704700000000FA050CED00E0CD
:10579000024A0A400243024B1A60704780FFFF1F13
:1057A00008ED00E07047000029B1064A5269024343
:1057B000044B5A6104E0034A52698243014B5A6127
:1057C000704700000010024029B1064AD269024326
:1057D000044BDA6104E0034AD2698243014BDA6187
:1057E000704700000010024029B1064A9269024346
:1057F000044B9A6104E0034A92698243014B9A6127
:10580000704700000010024030B500210022002443
:1058100000232D4D6D6805F00C0121B1042905D040
:10582000082923D105E0294D056022E0274D0560B8
:105830001FE0254D6D6805F47012022505EB9242BC
:10584000214D6D6805F480341CB9214D5543056028
:105850000BE01D4D6D6815F4003F03D01C4D554302
:10586000056002E0194D5543056002E0174D0560E3
:1058700000BF00BF144D6D6805F0F0010909154D1A
:105880006B5C0568DD4045600F4D6D6805F4E061B7
:10589000090A104D6B5C4568DD4085600A4D6D68F6
:1058A00005F46051C90A0B4D6B5C4568DD40C5606D
:1058B000054D6D6805F44041890B074D6B5CC5686B
:1058C000B5FBF3F5056130BD0010024000127A000F
:1058D00000093D000200002012000020704710B5B2
:1058E00000F002F810BD000000210020304A1268CC
:1058F00042F480322E4B1A6000BF2D4A126802F427
:105900000030491C10B9B1F5A06FF6D1284A1268D1
:1059100012F4003F01D0012000E00020012843D113
:10592000244A126842F01002224B1A601A4612688A
:1059300022F003021A601A46126842F002021A604C
:105940001B4A52681A4B5A601A4652685A601A46E5
:10595000526842F480625A601A46526822F47C12FD
:105960005A601A46526842F4E8125A601A4612689F
:1059700042F080721A6000BF0D4A126812F0007F78
:10598000FAD00B4A526822F00302094B5A601A46B9
:10599000526842F002025A6000BF054A526802F0A3
:1059A0000C02082AF9D101E000BFFEE770470000B1
:1059B000001002400020024010B500F025F8FFF76B
:1059C00092FEFFF73FFD4FF4E13000F047F810BDC5
:1059D00000BF012080F3138800BF00BF07480068A4
:1059E00000F4E060064940EA010000F104004FF0D5
:1059F000E021C1F80C0D00BF704700000CED00E085
:105A00000000FA057047000010B51048006840F02B
:105A100001000E490860084640680D4908400B49DE
:105A20004860084600680B49084008490860084675
:105A3000006820F4802008600846406820F4FE00DA
:105A4000486000208860FFF74AFF10BD0010024048
:105A50000000FFF8FFFFF6FE7047704710B592B0E8
:105A6000044601210220FFF79FFE01211020FFF7CD
:105A7000BBFE0121C804FFF7A7FE4FF48060ADF81C
:105A8000440018208DF8470003208DF8460011A926
:105A90004F48FFF70BFD4FF40060ADF844000420C1
:105AA0008DF8470011A94A48FFF700FD4FF4C06088
:105AB000FFF764FE34208DF8040001208DF8050006
:105AC0008DF806008DF8070001A8FFF715FE0D946C
:105AD0000020ADF83800ADF83A00ADF83C00ADF864
:105AE00040000C20ADF83E000DA93A4800F062F9E4
:105AF0000121384800F0FFF84021364800F0EEF868
:105B0000012240F22441334800F033F93B208DF864
:105B1000040001208DF8050002208DF80600012008
:105B20008DF8070001A8FFF7E7FD2B48FFF790FB72
:105B30002848001D0290294803900020049021204D
:105B40000590002006908020079000200890099082
:105B50000A904FF480500B9000200C9002A91E4830
:105B6000FFF741FC01211C48FFF766FB1A4828306B
:105B7000FFF76EFB1748001D029019480390102094
:105B8000049021200590002006908020079000209E
:105B9000089009900A904FF480500B9000200C90D0
:105BA00002A90D482830FFF71EFC00210A482830C2
:105BB000FFF742FB0122022107482830FFF70AFCC9
:105BC0000122C021034800F0A2F812B010BD00006D
:105BD00000100140004C004030040240180000203A
:105BE0003900002010B540F22441344800F09BF801
:105BF000A8B3324800884FF04020B0F8040C304879
:105C0000FFF7CEFBC0F1210084B200212C48FFF742
:105C100013FB21202B49086022462B492B48FFF714
:105C2000A9FA21212848FFF7BEFA0121254824308E
:105C3000FFF702FB012240F22661204800F099F8AC
:105C400040F224411D4800F04CF802202049088011
:105C50001E480078552830D1FFF7BAFE2DE0FFE747
:105C600040F22661154800F05EF830B340F226613C
:105C7000124800F036F816480088401E0004000C58
:105C8000134908800DD000210E482430FFF7D4FAC4
:105C90002120104908604FF001010F48FFF7CCFAAE
:105CA0000BE000210C48FFF7C7FA212009490860E2
:105CB0004FF001010248FFF7BFFA10BD004C004051
:105CC0003004024034040240180000203900002053
:105CD000000000205C04024058040240CA430280D5
:105CE000704710B5002200230A1201249440A3B289
:105CF000DC43048010BD21B1828942F400528281CC
:105D000004E082894DF6FF731A408281704710B516
:105D10001AB1838A0B43838204E0838ACC43A4B202
:105D20002340838210BD70B502460B46002400213B
:105D300000250020C3F3421503F01F01012606FAD7
:105D400001F1012D02D19689314006E0022D02D1E8
:105D5000168A314001E0968A31401C12012606FA6B
:105D600004F41688344011B10CB1012000E0002089
:105D700070BDF0B50346002400260025002018461B
:105D8000C1F3421401F01F06012707FA06F5012CA2
:105D900001D10C3004E0022C01D1103000E01430AD
:105DA0001AB107682F43076002E00768AF43076036
:105DB000F0BD00002DE9F04786B005460E460024F0
:105DC000A24600BF00BF00272F462C8A4CF6FF706A
:105DD0000440F08804432C82AC894EF6F310044052
:105DE000B08831890843718908430443AC81AC8A87
:105DF0004FF6FF400440B0890443AC8201A8FFF78E
:105E000003FD1248874202D1DDF810A001E0DDF861
:105E10000CA00AEBCA0000EB0A1031688900B0FB45
:105E2000F1F86420B8FBF0F004012009642101FBC3
:105E30001089322000EB0910B0FBF1F000F00F00E8
:105E400004432C8106B0BDE8F08700000038014013
:105E5000704700BFFEE702E008C8121F08C1002A11
:105E6000FAD170477047002001E001C1121F002ADB
:105E7000FBD17047FFF7A0FD0BE00020FFF7F0FB20
:105E80006420FFF7CFFA0020FFF7AAFB6420FFF79A
:105E9000C9FAF2E7B45E0008000000201800000014
:105EA000565E0008CC5E0008180000204802000082
:105EB000665E000800000000000001020304010209
:0C5EC0000304060708090204060800009D
:04000005080051316D
:00000001FF
